:020000040800F2
:100000000080012095560008AD120008AF120008CC
:10001000B1120008B3120008B51200080000000079
:10002000000000000000000000000000B7120008FF
:10003000B912000800000000BB120008BD12000841
:10004000E5560008E5560008E5560008E5560008A4
:10005000E5560008E5560008E5560008E556000894
:10006000E5560008E5560008E5560008E556000884
:10007000E5560008E5560008E5560008E556000874
:10008000E9120008E5560008E556000800000000E7
:10009000000000000000000000000000E55600081D
:1000A000E5560008E5560008E5560008E556000844
:1000B000E5560008E5560008E5560008E556000834
:1000C000E5560008E5560008E5560008E556000824
:1000D000E5560008E5560008F91200080000000087
:1000E000E5560008E5560008E55600080000000047
:1000F000000000000000000000000000E5560008BD
:1001000000000000E5560008E5560008E556000826
:1001100000000000000000000000000000000000DF
:10012000E5560008E5560008E5560008E5560008C3
:10013000E55600080000000000000000000000007C
:10014000000000000000000000000000E55600086C
:10015000E5560008E5560008E5560008E556000893
:10016000E5560008E5560008000000000000000009
:10017000000000000000000000000000000000007F
:1001800000000000E556000800000000000000002C
:04019000E556000828
:1001A000034613F8012B002AFBD1181A01387047B7
:1001B00001F0FF01102A2BDB10F0070F08D010F818
:1001C000013B013A8B422DD010F0070F42B3F6D11C
:1001D000F0B441EA012141EA014122F007047FF035
:1001E00000070023F0E80256083C85EA010586EA8C
:1001F000010685FA47F5A3FA87F586FA47F6A5FAC8
:1002000087F68EB9EED1F0BC01F0FF0102F00702D3
:1002100032B110F8013B013A83EA010313B1F8D17E
:100220000020704701387047002D06BF354603385F
:10023000073815F0010F07D1013015F4807F02BF98
:10024000013015F4C03F0130F0BC0138704700BFE9
:1002500081F0004102E000BF83F0004330B54FEA77
:1002600041044FEA430594EA050F08BF90EA020FE4
:100270001FBF54EA000C55EA020C7FEA645C7FEA77
:10028000655C00F0E2804FEA5454D4EB5555B8BF9A
:100290006D420CDD2C4480EA020281EA030382EA0B
:1002A000000083EA010180EA020281EA0303362D9D
:1002B00088BF30BD11F0004F4FEA01314FF4801C70
:1002C0004CEA113102D0404261EB410113F0004F82
:1002D0004FEA03334CEA133302D0524263EB430339
:1002E00094EA050F00F0A780A4F10104D5F1200ED7
:1002F0000DDB02FA0EFC22FA05F2801841F1000132
:1003000003FA0EF2801843FA05F359410EE0A5F105
:1003100020050EF1200E012A03FA0EFC28BF4CF036
:10032000020C43FA05F3C01851EBE37101F00045EC
:1003300007D54FF0000EDCF1000C7EEB00006EEBF9
:100340000101B1F5801F1BD3B1F5001F0CD3490883
:100350005FEA30004FEA3C0C04F101044FEA4452DA
:1003600012F5800F80F09A80BCF1004F08BF5FEA61
:10037000500C50F1000041EB045141EA050130BD41
:100380005FEA4C0C404141EB0101013C28BFB1F553
:10039000801FE9D291F0000F04BF01460020B1FA9E
:1003A00081F308BF2033A3F10B03B3F120020CDA71
:1003B0000C3208DD02F1140CC2F10C0201FA0CF04F
:1003C00021FA02F10CE002F11402D8BFC2F1200CB4
:1003D00001FA02F120FA0CFCDCBF41EA0C0190406A
:1003E000E41AA2BF01EB0451294330BD6FEA0404B3
:1003F0001F3C1CDA0C340EDC04F11404C4F120029E
:1004000020FA04F001FA02F340EA030021FA04F3AF
:1004100045EA030130BDC4F10C04C4F1200220FA06
:1004200002F001FA04F340EA0300294630BD21FA44
:1004300004F0294630BD94F0000F83F4801306BF0A
:1004400081F480110134013D4EE77FEA645C18BFFE
:100450007FEA655C29D094EA050F08BF90EA020F95
:1004600005D054EA000C04BF1946104630BD91EA8D
:10047000030F1EBF0021002030BD5FEA545C05D190
:100480004000494128BF41F0004130BD14F58004CF
:100490003CBF01F5801130BD01F0004545F0FE4143
:1004A00041F470014FF0000030BD7FEA645C1ABF78
:1004B000194610467FEA655C1CBF0B46024650EAAF
:1004C000013406BF52EA033591EA030F41F40021DB
:1004D00030BD00BF90F0000F04BF0021704730B561
:1004E0004FF4806404F132044FF000054FF0000136
:1004F00050E700BF90F0000F04BF0021704730B5F7
:100500004FF4806404F1320410F0004548BF4042CB
:100510004FF000013EE700BF42004FEAE2014FEA20
:1005200031014FEA02701FBF12F07F4393F07F4FFB
:1005300081F06051704732F07F4208BF704793F0FE
:100540007F4F04BF41F40021704730B54FF4607411
:1005500001F0004521F000411CE700BF50EA010214
:1005600008BF704730B54FF000050AE050EA0102BD
:1005700008BF704730B511F0004502D5404261EB2D
:1005800041014FF4806404F132045FEA915C3FF46E
:10059000D8AE4FF003025FEADC0C18BF03325FEA0B
:1005A000DC0C18BF033202EBDC02C2F1200300FABC
:1005B00003FC20FA02F001FA03FE40EA0E0021FAE1
:1005C00002F11444BDE600BF70B54FF0FF0C4CF4CF
:1005D000E06C1CEA11541DBF1CEA135594EA0C0F81
:1005E00095EA0C0F00F0DEF82C4481EA030621EABC
:1005F0004C5123EA4C5350EA013518BF52EA0335F7
:1006000041F4801143F4801338D0A0FB02CE4FF0A8
:100610000005E1FB02E506F00042E0FB03E54FF0D8
:100620000006E1FB03569CF0000F18BF4EF0010ED0
:10063000A4F1FF04B6F5007F64F5407404D25FEACC
:100640004E0E6D4146EB060642EAC62141EA55517F
:100650004FEAC52040EA5E504FEACE2EB4F1FD0CC1
:1006600088BFBCF5E06F1ED8BEF1004F08BF5FEA3F
:10067000500E50F1000041EB045170BD06F00046F1
:1006800046EA010140EA020081EA0301B4EB5C049E
:10069000C2BFD4EB0C0541EA045170BD41F4801196
:1006A0004FF0000E013C00F3AB8014F1360FDEBFBB
:1006B000002001F0004170BDC4F10004203C35DA97
:1006C0000C341BDC04F11404C4F1200500FA05F31A
:1006D00020FA04F001FA05F240EA020001F00042BB
:1006E00021F0004110EBD37021FA04F642EB060131
:1006F0005EEA430E08BF20EAD37070BDC4F10C045B
:10070000C4F1200500FA04F320FA05F001FA04F21E
:1007100040EA020001F0004110EBD37041F100010A
:100720005EEA430E08BF20EAD37070BDC4F1200515
:1007300000FA05F24EEA020E20FA04F301FA05F27D
:1007400043EA020321FA04F001F0004121FA04F225
:1007500020EA020000EBD3705EEA430E08BF20EAF5
:10076000D37070BD94F0000F0FD101F0004640002F
:1007700041EB010111F4801F08BF013CF7D041EAB1
:10078000060195F0000F18BF704703F000465200B5
:1007900043EB030313F4801F08BF013DF7D043EA86
:1007A0000603704794EA0C0F0CEA135518BF95EA3C
:1007B0000C0F0CD050EA410618BF52EA4306D1D1C3
:1007C00081EA030101F000414FF0000070BD50EAE2
:1007D000410606BF1046194652EA430619D094EA6C
:1007E0000C0F02D150EA013613D195EA0C0F05D156
:1007F00052EA03361CBF104619460AD181EA0301AA
:1008000001F0004141F0FE4141F470014FF0000061
:1008100070BD41F0FE4141F4780170BD70B54FF0FC
:10082000FF0C4CF4E06C1CEA11541DBF1CEA13557C
:1008300094EA0C0F95EA0C0F00F0A7F8A4EB05045E
:1008400081EA030E52EA03354FEA013100F0888055
:100850004FEA03334FF0805545EA131343EA12631E
:100860004FEA022245EA111545EA10654FEA0026D3
:100870000EF000419D4208BF964244F1FD0404F58C
:10088000407402D25B084FEA3202B61A65EB0305E8
:100890005B084FEA32024FF480104FF4002CB6EBA5
:1008A000020E75EB030E22BFB61A754640EA0C0025
:1008B0005B084FEA3202B6EB020E75EB030E22BF65
:1008C000B61A754640EA5C005B084FEA3202B6EBA6
:1008D000020E75EB030E22BFB61A754640EA9C0065
:1008E0005B084FEA3202B6EB020E75EB030E22BF35
:1008F000B61A754640EADC0055EA060E18D04FEAF3
:10090000051545EA16754FEA06164FEAC30343EA92
:1009100052734FEAC2025FEA1C1CC0D111F4801F5F
:100920000BD141EA00014FF000004FF0004CB6E758
:1009300011F4801F04BF01430020B4F1FD0C88BFF7
:10094000BCF5E06F3FF6AFAEB5EB030C04BFB6EB02
:10095000020C5FEA500C50F1000041EB045170BDF5
:100960000EF0004E4EEA113114EB5C04C2BFD4EB22
:100970000C0541EA045170BD41F480114FF0000EA6
:10098000013C90E645EA060E8DE60CEA135594EA22
:100990000C0F08BF95EA0C0F3FF43BAF94EA0C0F25
:1009A0000AD150EA01347FF434AF95EA0C0F7FF49A
:1009B00025AF104619462CE795EA0C0F06D152EAEE
:1009C00003353FF4FDAE1046194622E750EA4106D2
:1009D00018BF52EA43067FF4C5AE50EA41047FF4E3
:1009E0000DAF52EA43057FF4EBAE12E74FF0FF3C48
:1009F00006E000BF4FF0010C02E000BF4FF0010C19
:100A00004DF804CD4FEA410C7FEA6C5C4FEA430C91
:100A100018BF7FEA6C5C1BD001B050EA410C0CBFE0
:100A200052EA430C91EA030F02BF90EA020F002042
:100A3000704710F1000F91EA030F58BF994208BFA9
:100A400090422CBFD8176FEAE37040F00100704766
:100A50004FEA410C7FEA6C5C02D150EA013C07D1BD
:100A60004FEA430C7FEA6C5CD6D152EA033CD3D008
:100A70005DF8040B704700BF8446104662468C4602
:100A80001946634600E000BF01B5FFF7B7FF002835
:100A900048BF10F1000F01BD4DF808EDFFF7F4FF5E
:100AA0000CBF012000205DF808FB00BF4DF808EDE9
:100AB000FFF7EAFF34BF012000205DF808FB00BF0C
:100AC0004DF808EDFFF7E0FF94BF012000205DF82E
:100AD00008FB00BF4DF808EDFFF7CEFF94BF0120E3
:100AE00000205DF808FB00BF4DF808EDFFF7C4FFDC
:100AF00034BF012000205DF808FB00BF4FEA41022F
:100B000012F5001215D211D56FF47873B3EB62525F
:100B100012D94FEAC12343F0004343EA505311F086
:100B2000004F23FA02F018BF404270474FF0000018
:100B3000704750EA013005D111F0004008BF6FF056
:100B4000004070474FF00000704700BF4A0011D2CC
:100B500012F5001211D20DD56FF47873B3EB625217
:100B60000ED44FEAC12343F0004343EA505323FA23
:100B700002F070474FF00000704750EA013002D198
:100B80004FF0FF3070474FF00000704753B94AB93B
:100B9000002908BF00281CBF4FF0FF314FF0FF3085
:100BA00000F00CB8ADF1080C6DE904CE06F0D8FBEE
:100BB000DDF804E0DDE9022304B07047704700BFB0
:100BC00010B5054C237833B9044B13B10448AFF387
:100BD00000800123237010BD74000020000000007D
:100BE0001C76000808B5034B1BB103490348AFF35B
:100BF000008008BD00000000780000201C7600087E
:100C000010B500241CE02046FFF774FC12A3D3E9C2
:100C10000023FFF7D9FC00220D4BFFF7D5FC41EC78
:100C2000100B05F019FA51EC100B07A3D3E90023C0
:100C3000FFF7CAFCFFF762FF064B23F814000134EC
:100C4000FF2CE0DD10BD00BF00000000C0FFDF4052
:100C50000000703F94000020182D4454FB211940DF
:100C6000034B044A1A60044B01221A70704700BFFC
:100C7000000000209402002094030020034B044A4B
:100C80001A60044B01221A70704700BF0000002058
:100C90001403002094030020F8B551EC100B00223F
:100CA000194BFFF791FC16A3D3E90023FFF7B6FD1C
:100CB00004460D46002601E00236F6B23F2E18D853
:100CC000124F3888124B1B68124A32F9102023F851
:100CD0001620FFF70FFC22462B46FFF7BFFAFFF75F
:100CE00035FF80B23880FF28E6D9A0F580703880C3
:100CF000E2E7094B00221A70F8BD00BFAFF3008095
:100D0000000000008086E540000070409000002058
:100D1000000000209400002094030020F0B58BB068
:100D200000240594069407940894099401942A4B8E
:100D30001A6B42F004021A631A6B02F00402019269
:100D4000019A02941A6B42F080021A631A6B02F045
:100D500080020292029A03941A6B42F001021A6313
:100D60001A6B02F001020392039A04941A6B42F088
:100D700002021A631B6B03F002030493049B174FD8
:100D800022462021384601F009FB154D224602215A
:100D9000284601F003FB4FF4005305934FF404136E
:100DA0000693079405A90F4801F014FA2023059330
:100DB000012606960794089405A9384601F00AFA18
:100DC0000223059306960794089405A9284601F086
:100DD00001FA0BB0F0BD00BF003802400000024035
:100DE000000402400008024000B583B000210191D8
:100DF000094B1A6B42F400121A631B6B03F40013C5
:100E00000193019B0A46102000F054FF102000F0CF
:100E100061FF03B05DF804FB0038024008B50848E4
:100E2000084B03604FF4E133436000238360C360E9
:100E300003610C2242618361C36102F0C4FE08BDFC
:100E40009C0400200044004008B50C480C4B036093
:100E50004FF48273436000238360C3600361436186
:100E60004FF4007282613022C26103624362836286
:100E70000A23C36202F020FB08BD00BFE404002087
:100E80000038004008B50948094B03604FF4007270
:100E9000426000238360C36002614AF644424261BB
:100EA0008361C361036201F04BFB08BD9C05002018
:100EB000003C00400FB410B582B004AB53F8042BD3
:100EC00001930A4C4FF48071204604F037FC204611
:100ED000FFF766F94FF0FF3382B22146044802F073
:100EE000A2FE02B0BDE8104004B070479C03002091
:100EF0009C04002030B595B03022002108A804F0F1
:100F00002BFC002403940494059406940794019404
:100F10001B4B1A6C42F080521A641B6C03F0805316
:100F20000193019B0294174A136823F4404343F44E
:100F300000431360136803F440430293029B0225AD
:100F4000089501230B9310230C930E950F94109387
:100F50004FF4A8731193042312930723139308A843
:100F600001F0D8FD0F230393049505944FF48053AB
:100F700006930794294603A802F036F815B030BD51
:100F8000003802400070004000B5ADF2744D00F032
:100F9000FDFDFFF7AFFFFFF7C1FEFFF725FFFFF7EE
:100FA0003DFF03F075F8FFF74FFFFFF76BFF4FF4BE
:100FB0007A7000F017FE0122254990A804F04CF841
:100FC00020B101462348FFF775FFFEE702AA03A9F7
:100FD0001F4804F0BFFA014618B11F48FFF76AFF27
:100FE000FEE7029A5369023B528902FB03F1039B1D
:100FF00003FB02F2520849081848FFF75BFF012281
:10100000174904A804F056F800B1FEE704A800F060
:101010004FFD04A804F089FA80221249124801F019
:1010200081FB8DF8070000220949104604F014F8EE
:10103000FFF7E6FD0D4B1B78002BFBD09FED020B5D
:10104000FFF72AFEF6E700BF0000000000408F40D7
:101050004C7600083876000850760008687600085C
:10106000B0760008940200209C0500209403002024
:101070007047000000B583B0002100910C4B5A6C02
:1010800042F480425A645A6C02F480420092009A00
:1010900001911A6C42F080521A641B6C03F0805369
:1010A0000193019B072000F0F3FD03B05DF804FB02
:1010B00000380240F0B58FB0002309930A930B93D8
:1010C0000C930D930493059306930793089302687A
:1010D000364B9A4201D00FB0F0BD04460123049371
:1010E0004FF49E7305930723069304A802F052F869
:1010F000002854D1002501952D4B1A6C42F4004272
:101100001A641A6C02F400420192019A02951A6B59
:1011100042F001021A631A6B02F001020292029A73
:1011200003951A6B42F004021A631B6B03F004036D
:101130000393039B1023099302270A970B950C95A1
:1011400006260D9609A91B4801F044F84FF4A45354
:1011500009930A970B950C950D9609A9164801F06D
:1011600039F81648164B0360456040238360C5601C
:101170004FF4806303614FF4006343614FF4005305
:1011800083614FF48073C3614FF44033036245625F
:1011900000F03AFE30B9094BA3639C639BE7FFF76D
:1011A00067FFA7E7FFF764FFF5E700BF003C0040DB
:1011B0000038024000000240000802403C050020C8
:1011C0008860024000B589B000230393049305931F
:1011D000069307930268154B9A4202D009B05DF856
:1011E00004FB0021019103F500331A6C42F48042A4
:1011F0001A641A6C02F480420192019A02911A6BED
:1012000042F002021A631B6B03F002030293029B7B
:101210004FF46043039302230493032306930523AF
:10122000079303A9024800F0D5FFD7E70038004034
:101230000004024010B588B0002303930493059383
:10124000069307930268174B9A4201D008B010BD6D
:101250000024019403F5FA331A6C42F400321A6444
:101260001A6C02F400320192019A02941A6B42F055
:1012700001021A631B6B03F001030293029B0C2310
:101280000393022304930723079303A9064800F05E
:10129000A1FF22462146262000F00CFD262000F06A
:1012A00019FDD3E70044004000000240FEE7FEE7DE
:1012B000FEE7FEE7FEE770477047704708B5084B4A
:1012C0001B8813B1013B064A1380064B1B8813B1E0
:1012D000013B044A138000F073FC00F014FD08BDCC
:1012E000980300209603002008B5024800F084FE11
:1012F00008BD00BF3C05002008B5024802F086FD8D
:1013000008BD00BF9C04002010B503460C4A0D49DF
:101310000D48006840B10C4800680344521A9342DB
:1013200006D8094A136010BD0748084C0460F2E76C
:1013300004F01AFA0C2303604FF0FF30F3E700BF0C
:10134000008001200004000008060020A007002003
:10135000034AD2F8883043F47003C2F888307047EB
:1013600000ED00E000B587B08DF80F003223009348
:1013700001230DF117020DF10F01044802F0D7F916
:101380009DF8170007B05DF804FB00BFE4040020DF
:1013900070B5064600F020FC0546FF20FFF7E2FF8F
:1013A0000446FF2804D000F017FC401BB042F4D3E1
:1013B000FF2C14BF0020012070BD70B506460D46FD
:1013C000002404E0FF20FFF7CDFF30550134AC428C
:1013D000F8D370BD08B501220221034800F0DEFFFA
:1013E000FF20FFF7BFFF08BD0004024010B5002238
:1013F0000221094800F0D2FFFF20FFF7B3FF4FF4AE
:10140000FA70FFF7C5FF10B10124204610BD044655
:10141000FFF7E0FFF9E700BF0004024030B583B0FA
:1014200004460D4610F0800F40D10C2C05D0FFF77C
:10143000D1FFFFF7DBFF002853D044F04000FFF757
:1014400091FF280EFFF78EFFC5F30740FFF78AFFD5
:10145000C5F30720FFF786FFE8B2FFF783FF0123FC
:101460008DF807309CBB95238DF807309DF8070059
:10147000FFF778FF0C2C30D00A238DF80730FF20BF
:10148000FFF770FF8DF806009DF8063013F0800F0F
:1014900007D09DF80730013BDBB28DF80730002BF9
:1014A000EDD19DF80600C0B203B030BD00F07F045E
:1014B00000213720FFF7B2FF8DF806009DF80630B7
:1014C000DBB2012BB1D99DF80600C0B2ECE7082CC5
:1014D000CCD187238DF80730C8E7FF20FFF742FF04
:1014E000CAE7FF20E0E7000008B54FF0FF338AB2FB
:1014F0000146024802F03FF808BD00BFE4040020A6
:1015000038B505460C464FF4FA70FFF741FF00B9B5
:1015100038BD2046FFF726FFFD2C01D10120F7E75B
:101520004FF400712846FFF7DFFFFF20FFF71AFF97
:10153000FF20FFF717FFFF20FFF714FF00F01F0049
:10154000052801D10120E3E70020E1E710B50446BA
:1015500000F042FB024B1860024B1C6010BD00BF44
:10156000100600200C06002008B500F035FB054BE6
:101570001B68C01A044B1B6898422CBF0020012036
:1015800008BD00BF100600200C06002070B50546FF
:101590000E46C820FFF7DAFFFF20FFF7E3FE044600
:1015A000FF2803D1FFF7E0FF0028F5D1FE2C01D082
:1015B000002070BD31462846FFF7FFFEFF20FFF7F1
:1015C000D1FEFF20FFF7CEFE0120F2E7002840F019
:1015D000AD80574B1B7813F0020F0BD170B582B062
:1015E000544B1A68136823F0380343F03003136038
:1015F0000A2408E04E4B1878C0B27047FF20FFF76E
:10160000B1FE013CE4B2002CF8D100210846FFF7FE
:1016100005FF0546012817D0474B1C70FFF7DAFE7F
:10162000002C7FD0434B1A68136823F0380343F033
:10163000100313603E4A137803F0FE0313703C4B13
:101640001878C0B202B070BD4FF47A70FFF77EFF19
:101650004FF4D5710820FFF7E1FE01283ED1254661
:1016600009E0FF20FFF77EFE05F108036B4403F855
:10167000040C0135EDB2032DF3D99DF80630012B92
:10168000CAD19DF80730AA2BC6D1FFF76DFF30B144
:101690004FF08041A920FFF7C1FE0028F5D1FFF7E8
:1016A00063FF08B90446B7E700213A20FFF7B6FE0A
:1016B000054650B1B0E7FF20FFF754FE05F10803DF
:1016C0006B4403F8040C0135EDB2032DF3D99DF8FA
:1016D000043013F0400F23D00C249DE70021A920F3
:1016E000FFF79CFE01280ED92E46FFF73DFF28B1DB
:1016F00000212846FFF792FE0028F6D1FFF734FFBD
:1017000020B9044688E70226A925EEE74FF40071C8
:101710001020FFF783FE00287FF47EAF34467BE77E
:10172000042479E7024B01221A7088E701207047F0
:1017300008000020E40400201406002018B9034B20
:101740001878C0B270470120704700BF0800002021
:10175000002839D138B50D461C46002B36D01D4B1C
:101760001B7813F0010F33D11B4B1B7813F0080FBC
:1017700000D15202012C18D011461220FFF74EFE64
:1017800068B94FF400712846FFF700FF18B105F55E
:101790000075013CF5D100210C20FFF73FFEFFF75B
:1017A00019FE201E18BF012038BD11461120FFF779
:1017B00035FE0028F3D14FF400712846FFF7E6FE0E
:1017C0000028ECD00024EAE7042070470420EBE76F
:1017D0000320E9E70800002014060020002848D173
:1017E00070B50D4616461C46002B44D0254B1B7881
:1017F00013F0010F41D1234B1B7813F0040F3ED19E
:10180000214B1B7813F0080F00D15602012C1BD07E
:1018100013F0060F26D131461920FFF7FFFD68B9F6
:10182000FC212846FFF76CFE18B105F50075013C58
:10183000F6D1FD210020FFF763FEC0B1FFF7CAFD1E
:10184000201E18BF012070BD31461820FFF7E6FDAD
:101850000028F3D1FE212846FFF752FE0028EDD0E4
:101860000024EBE721469720FFF7D8FDD3E70124BA
:10187000E4E7042070470420E5E70320E3E70220C3
:10188000E1E700BF080000201406002070B584B016
:10189000002840F004810D461646834B1B7813F058
:1018A000010F40F0FE80042900F2ED80DFE811F026
:1018B00005000C00EB005400AF00FFF797FD002877
:1018C00040F0E380012406E000210920FFF7A6FD97
:1018D000044628B12C46FFF77DFD204604B070BDBC
:1018E00010216846FFF752FE002800F0D0809DF8D6
:1018F00000309B09012B1FD09DF8052002F00F023C
:101900009DF80A3002EBD3129DF809305B0003F01A
:1019100006031A449DF808109DF807309B0003EB5E
:1019200091139DF80610890201F440610B440133C4
:10193000073A93403360CEE79DF809309DF80820C0
:1019400003EB02239DF80720120402F47C121344D7
:1019500001339B023360BEE7544B1B7813F0040F36
:1019600020D000218D20FFF759FD08B10124B2E7F6
:10197000FF20FFF7F7FC10216846FFF707FE78B954
:101980000124A8E7FF20FFF7EDFC013CE4B2002CA6
:10199000F8D19DF80A2012091023934033609AE78A
:1019A0003024F4E700210920FFF738FD054608B18F
:1019B000012490E710216846FFF7E8FD002868D071
:1019C0003A4B1C7814F0020411D09DF80A305B00E9
:1019D00003F07E039DF80B2003EBD21301339DF837
:1019E0000D209209013A934033602C4673E79DF82D
:1019F0000A20C2F384029DF80B10CB0003F01803F9
:101A000003EB5113013302FB0333336063E7274BCE
:101A10001B7813F0060F01D101245CE76A460B2105
:101A2000FFF734FFB8BB9DF800309B0904D19DF847
:101A30000A3013F0400F30D0316874681B4B1B78AC
:101A400013F0080F01D1490264022020FFF7E6FCE1
:101A500008B101243FE721462120FFF7DFFC08B150
:101A6000012438E700212620FFF7D8FC044608B1FE
:101A7000012430E747F23050FFF78AFC00287FF45A
:101A80002AAF012427E7042425E72C4623E72C4628
:101A900021E701241FE701241DE701241BE704249B
:101AA0001BE7032419E700BF0800002014060020EC
:101AB00000B58DB0002300936B462C2201A903F0E2
:101AC00007FC80BB0346009A2B2A2DD90199184A9E
:101AD000914226D0024603981649884200D01A4601
:101AE00004981549884200D01A460599102900D05B
:101AF0001A46BDF81810012900D01A46BDF81A1070
:101B0000022911D107984AF6444188420CD1BDF808
:101B10002610102908D10A980849884204D1134692
:101B200002E00122D7E7002318460DB05DF804FB60
:101B30005249464657415645666D7420646174614A
:101B400010B504460E4B1A784FF47A73B3FBF2F3D8
:101B50000C4A1068B0FBF3F000F0C0F868B90F2C25
:101B600001D901200AE0002221464FF0FF3000F0A9
:101B7000A1F8054B1C60002000E0012010BD00BF53
:101B800009000020040000200C00002008B50B4BC9
:101B90001A6842F400721A601A6842F480621A608D
:101BA0001A6842F480721A60032000F071F8002075
:101BB000FFF7C6FFFFF75EFA002008BD003C0240B9
:101BC000034A1168034B1B780B441360704700BF36
:101BD0001806002009000020014B1868704700BF5C
:101BE0001806002038B50446FFF7F6FF0546B4F1A5
:101BF000FF3F02D0044B1B781C44FFF7EDFF401B56
:101C0000A042FAD338BD00BF09000020002807DB3E
:101C100000F01F02400901239340024A42F820309D
:101C2000704700BF00E100E0002808DB0901C9B2ED
:101C300000F1604000F5614080F80013704700F04B
:101C40000F000901C9B2014B1954704714ED00E0AF
:101C500000B500F00700C0F1070CBCF1040F28BF6D
:101C60004FF0040C031D062B0FD9C31E4FF0FF3E8F
:101C70000EFA0CF021EA000199400EFA03FE22EA66
:101C80000E0241EA02005DF804FB0023EEE70000CB
:101C9000074AD36823F4E0631B041B0C000200F422
:101CA000E060034343F0BF6343F40033D360704705
:101CB00000ED00E010B50446054BD868C0F30220E3
:101CC000FFF7C6FF01462046FFF7AEFF10BD00BF7D
:101CD00000ED00E008B5FFF799FF08BD0138B0F14D
:101CE000807F0BD24FF0E0235861054AF02182F843
:101CF00023100020986107221A6170470120704765
:101D000000ED00E0704708B5FFF7FCFF08BD30B4F8
:101D100005682C6824F480242C6004686360836860
:101D2000402B05D0036899600368DA6030BC7047C7
:101D300003689A600368D960F8E7000010B403688C
:101D4000D9B210390A4AA2FB01421209094CA25C1D
:101D5000C2655F2907D96FF3090304338365806D7A
:101D60005DF8044B70476FF309038365F7E700BF25
:101D7000ABAAAAAAE0760008836A826992B9012B0D
:101D80000AD0022B02D00BB100207047C36A13F0B7
:101D9000807F28D100207047C36AB3F1C07F24D070
:101DA00000207047B2F5005F09D0022B25D9032B24
:101DB00025D1C36A13F0807F23D100207047032B05
:101DC00003D8DFE803F01404140A00207047C36A44
:101DD00013F0807F0DD100207047C36AB3F1C07F3C
:101DE00009D0002070470120704701207047012072
:101DF0007047012070470120704701207047002084
:101E0000704701207047000070B50446FFF7E4FEFC
:101E1000002C5BD00546022384F83530002384F87B
:101E200034302268136823F00103136023681A68B2
:101E300012F0010F0AD0FFF7CFFE431B052BF5D997
:101E400020236365032084F8350070BD1A6820499B
:101E500011406268A0680243E068024320690243BF
:101E600060690243A0690243E0690243206A0243B9
:101E70000A43616A04291ED01A602668756925F034
:101E80000705636A1D43042B07D1A36A1D43E36A58
:101E90001BB12046FFF770FF90B975612046FFF730
:101EA0004DFFE26D3F239340836000206065012376
:101EB00084F83530C9E7E16A206B01430A43DBE768
:101EC00040236365012084F83500BEE70120BCE7AC
:101ED0003F8010F038B50446856D90F83400012835
:101EE0002BD0012084F8340094F83500C0B20128CA
:101EF00004D0002384F83430022038BD022084F856
:101F00003500002060652046FFF701FFE26D3F23AA
:101F10009340AB602268136843F016031360236C90
:101F200023B12268136843F0080313602268136822
:101F300043F0010313600020DFE70220DDE770B506
:101F40000446866DFFF748FE94F83530DBB2022B6D
:101F500006D080236365002384F83430012070BDEF
:101F600005462268136823F016031360226853693C
:101F700023F080035361236CE3B12268136823F0DC
:101F8000080313602268136823F0010313602368B9
:101F90001B6813F0010F11D0FFF71EFE431B052B2A
:101FA000F5D920236365032084F83500002384F8E5
:101FB0003430D4E7A36C002BDFD1E3E7E26D3F239D
:101FC0009340B360012384F83530002084F8340056
:101FD000C5E790F83530DBB2022B03D08023436590
:101FE00001207047052380F835300268136823F01C
:101FF0000103136000207047F0B583B0044600234E
:102000000193724B1D68724BA3FB0535AD0A876DBA
:102010003E68C26D08239340334210D003681A68AB
:1020200012F0040F0BD01A6822F004021A60C26D7D
:1020300008239340BB60436D43F001034365E26DA9
:1020400001239340334209D02268526912F0800F75
:1020500004D0BB60636D43F002036365E26D04234B
:102060009340334209D02268126812F0020F04D064
:10207000BB60636D43F004036365E26D102393401E
:10208000334224D02268126812F0080F1FD0BB60C0
:1020900023681A6812F4802F0DD01B6813F4002FE8
:1020A00004D1236C9BB12046984710E0A36C73B118
:1020B000204698470BE01A6812F4807F03D11A6813
:1020C00022F008021A60236C0BB120469847E26D9B
:1020D00020239340334255D02268126812F0100F2B
:1020E00050D0BB6094F83530DBB2052B0ED023689E
:1020F0001A6812F4802F33D01B6813F4002F2AD1F2
:10210000636C002B3ED0204698473BE02268136862
:1021100023F0160313602268536923F08003536190
:10212000236CA3B12268136823F008031360E26DE7
:102130003F239340BB60012384F83530002384F8AB
:102140003430236D002B3FD0204698473CE0A36CF1
:10215000002BE7D1EBE7E36BA3B12046984711E0F2
:102160001A6812F4807F09D11A6822F010021A60EE
:10217000012384F83530002384F83430E36B0BB14D
:1021800020469847636DFBB1636D13F0010F17D0C4
:10219000052384F835302268136823F001031360A7
:1021A000019B01330193AB4204D823681B6813F0F1
:1021B000010FF5D1012384F83530002384F8343041
:1021C000E36C0BB12046984703B0F0BD040000203B
:1021D000B5814E1B00230F2B00F2D78070B582B063
:1021E00065E085684FEA430E032404FA0EF425EAFD
:1021F0000405CC6804FA0EF42C438460446824EA95
:1022000002044A68C2F300129A40224342605CE032
:10221000DC08083450F8242003F00705AD004FF027
:102220000F0E0EFA05FE22EA0E0E0A69AA4042EAD5
:102230000E0240F824205CE0042200E0002202FAB2
:102240000EF22A430234514D45F82420504A946836
:102250006FEA0C0224EA0C054E6816F4801F01D0C8
:102260004CEA04054A4CA560E46802EA04054E689D
:1022700016F4001F01D04CEA0405454CE560646883
:1022800002EA04054E6816F4003F01D04CEA04054A
:102290003F4C6560246822404D6815F4803F01D0B2
:1022A0004CEA04023A4C226001330F2B6BD8012216
:1022B0009A400C6804EA020C32EA0404F4D14C6837
:1022C00004F00304013C012C8BD94A6802F003029C
:1022D000032A09D0C4685D000322AA4024EA02044C
:1022E0008A68AA402243C2604A6802F00302022AB6
:1022F0008ED004684FEA430E032202FA0EF224EA5B
:1023000002044A6802F0030202FA0EF2224302605B
:102310004A6812F4403FC7D0002201921D4A546C13
:1023200044F480445464526C02F480420192019A55
:102330009C08A51C154A52F8255003F0030E4FEADD
:102340008E0E0F2202FA0EF225EA0205124A904280
:102350003FF474AF02F5806290420ED002F58062C5
:1023600090420CD002F5806290420AD002F5806261
:1023700090423FF461AF072261E701225FE702224A
:102380005DE703225BE702B070BD70470038014093
:10239000003C014000380240000002400AB1816167
:1023A000704709048161704770477047704708B5EE
:1023B0000346806BDB694BB90268536823F0020364
:1023C000536000234385012380F84130836C984794
:1023D00008BD08B5806B436D984708BD08B5806B94
:1023E0000268536823F00303536000234385438648
:1023F000012380F84130436C43F008034364036ECB
:10240000984708BD08B5426A03681288DA60436AD3
:1024100002334362438D9BB2013B9BB24385438DA4
:102420009BB24BB90268536823F0A00353600123A9
:1024300080F84130836C984708BD08B50368DA68B6
:10244000C36A1A80C36A0233C362438E9BB2013BE4
:102450009BB24386438E9BB24BB90268536823F00C
:1024600060035360012380F84130C36C984708BD76
:1024700010B584B0044602689368039390F8413025
:10248000DBB2042B06D094F84130DBB2032B2CD006
:1024900004B010BD039B13F0010F03D0536813F079
:1024A000400F1FD1039B13F0400FECD023685A68F4
:1024B00012F0200FE7D05A6822F060025A60002321
:1024C00001932368DA6801929B680193019B0123C1
:1024D00084F84130636C43F002036364236E20464A
:1024E0009847D0E7FFF7A9FFDCE7039B13F0020F43
:1024F00004D023685B6813F0800F1DD1039B13F099
:10250000080FC5D023685A6812F0200FC0D05A684F
:1025100022F0A0025A600023029323689B68029372
:10252000029B012384F84130636C43F0040363642D
:10253000236E20469847ABE72046FFF763FFDDE7B1
:10254000002800F0D28038B5044690F84130BBB97D
:1025500080F84030664B4363664B8364664BC364CC
:10256000664B0365664B4365664B8365664BC36587
:10257000664B0366436E002B54D0636E204698472B
:10258000022284F841202168CB6923F47B6323F085
:102590000F03CB6123681A62636993425FD0E368DB
:1025A000002B42D11025A368202B00D86D000120FC
:1025B00000F0A6FE2369B3F5007F38D0B0FBF5F03C
:1025C00000EB800043006269B3FBF2F30533504A2D
:1025D000A2FB0323C3F3C002C2EBD3035B081102C7
:1025E0009A1EFD2A3DD822690A4321681A430A62CD
:1025F0002168CB6923F47B6323F00F036268A06832
:102600000243E0680243A0690243134343F40063BA
:10261000CB61236A012B2AD000206064012384F857
:10262000413038BD3B4B4366A7E72025BBE7E36855
:1026300053B1AD00B0FBF5F000EB800043006269E0
:10264000B3FBF2F30533C2E7ED00B0FBF5F000EBAE
:10265000800043006269B3FBF2F30533B7E7002162
:10266000BEE7636C43F0100363640120D9E72A4B93
:1026700063632268294B9A421FD04FF04022D369EE
:1026800023F47B6323F00F03D3612268234B9A4228
:1026900015D04FF0402302221A6222681F4B9A4243
:1026A00010D04FF04025EB699BB26268B2F5007F15
:1026B0000AD0C2B94FF4807008E0194ADFE7A3F5E9
:1026C0008063E8E7164DEEE74FF48070B4F808C079
:1026D000A189228B40EA0C0001430A43134343F4CF
:1026E0000063EB6198E70020F0E70120704700BF2E
:1026F000712400087D0C0008AB230008132B000890
:10270000610C0008A9230008112B0008AD23000864
:10271000CDCCCCCCB51000083929000800380040D9
:102720000034004000295ED038B50446002A5CD051
:1027300094F84030DBB2012B59D0012384F84030AB
:1027400094F84150EDB29D4210D1032384F84130FA
:102750000023636461622368DB6903F00703032BD2
:1027600009D0052B07D02285628508E0002384F874
:10277000403002203AE0520092B222856285A36B7B
:102780001C4A1A64A36B1C4ADA63A36B1B4ADA6403
:102790002268238D9BB20C32616AA06BFFF79AFB13
:1027A000A8B92368DA6912F4806F03D1DA6942F4B8
:1027B0008062DA6123685A6812F0020F03D15A6806
:1027C00042F002025A60002384F840300EE0636C4D
:1027D00043F008036364012384F84130002384F844
:1027E0004030284602E001207047012038BD022019
:1027F000FCE700BFD3230008AF230008DD23000857
:1028000008B5436A9A1C426202681B88D360438DF4
:102810009BB2013B9BB24385438D9BB263B9026877
:10282000536823F0A0035360438E9BB223B9012366
:1028300080F84130036D984708BD000008B5436A31
:102840009A1C42621A880168124B99421DD04FF0BF
:102850004023DA60438D9BB2013B9BB24385438D9D
:102860009BB28BB902680B4B9A4211D04FF04022B9
:10287000536823F0A0035360438E9BB223B9012316
:1028800080F84130036D984708BDA3F58063E0E709
:10289000014AEDE7003800400034004008B5036805
:1028A000DA68C36A991CC1621A80438E9BB2013BED
:1028B0009BB24386438E9BB263B90268536823F090
:1028C00060035360438D9BB223B9012380F84130EC
:1028D000036D984708BD000008B50268144B9A4282
:1028E00021D04FF04023DA68C36A991CC1621A8074
:1028F000438E9BB2013B9BB24386438E9BB28BB906
:1029000002680B4B9A4211D04FF04022536823F0DB
:1029100060035360438D9BB223B9012380F841309B
:10292000036D984708BDA3F58063DCE7014AEDE736
:10293000003800400034004010B586B004460368FB
:102940009A680592704A93426FD04FF04022916886
:1029500004915B680393536802936368B3F5007F47
:1029600001D0002B70D1059B13F0020F03D0039B05
:1029700013F0800F5CD1049B13F0010F03D0029B76
:1029800013F0400F58D1049B13F0400F24D0029B4A
:1029900013F0200F20D022685B4B9A4250D04FF0AA
:1029A0004022536823F0600353602268536823F089
:1029B000A0035360002300932368DA6800929B68A9
:1029C0000093009B012384F84130636C43F00203C1
:1029D0006364236E20469847059B13F0080F22D0AE
:1029E000039B13F0200F1ED02268536823F0A0032E
:1029F00053602268444B9A4224D04FF040225368DF
:102A000023F0600353600023019323689B680193C4
:102A1000019B012384F84130636C43F00403636439
:102A2000236E2046984706B010BDA2F580628EE75F
:102A30002046FFF7E5FE9EE72046FFF74DFFA2E7A1
:102A4000324AAEE7314ADAE7049B13F0020F03D0B3
:102A5000029B13F0800F4AD1059B13F0010F03D0A6
:102A6000039B13F0400F46D1059B13F0400F1CD081
:102A7000039B13F0200F18D02268536823F06003E3
:102A800053602268204B9A4239D04FF0402253685D
:102A900023F0A0035360012384F84130636C43F0BA
:102AA00002036364236E20469847049B13F0080FCB
:102AB000B9D0029B13F0200FB5D02268124B9A4276
:102AC0001FD04FF04022536823F0A00353602268C8
:102AD000536823F060035360012384F84130636C32
:102AE00043F004036364236E204698479BE7204627
:102AF000FFF7A4FEB0E72046FFF7D0FEB4E7034A95
:102B0000C5E7024ADFE700BF00380040003400405C
:102B100070477047002800F0E08170B582B004462D
:102B2000036813F0010F3BD09F4B9B6803F00C032D
:102B3000042B2CD09C4B9B6803F00C03082B21D05A
:102B40006368B3F5803F4FD0B3F5A02F52D0964BBA
:102B50001A6822F480321A601A6822F480221A60FD
:102B60006368002B50D0FFF737F805468E4B1B6883
:102B700013F4003F14D1FFF72FF8401B6428F5D958
:102B80000320B1E1884B5B6813F4800FD8D0864BEB
:102B90001B6813F4003F03D06368002B00F09F8193
:102BA000236813F0020F54D07F4B9B6813F00C0F77
:102BB0003ED07D4B9B6803F00C03082B33D0E368B9
:102BC000002B68D0794B01221A60FFF705F8054603
:102BD000754B1B6813F0020F54D1FEF7FDFF401B2D
:102BE0000228F5D903207FE16F4A136843F480334C
:102BF0001360B5E76C4B1A6842F480221A601A68B9
:102C000042F480321A60ABE7FEF7E6FF0546664BFA
:102C10001B6813F4003FC3D0FEF7DEFF401B64289F
:102C2000F5D9032060E1604B5B6813F4800FC6D1D7
:102C30005D4B1B6813F0020F03D0E368012B40F0DB
:102C40005081594A136823F0F803216943EAC1030C
:102C50001360236813F0080F42D063696BB3534BC2
:102C60000122C3F8802EFEF7B7FF05464E4B5B6F7F
:102C700013F0020F34D1FEF7AFFF401B0228F5D945
:102C8000032031E1484A136823F0F803216943EA3D
:102C9000C1031360DDE7454B00221A60FEF79CFF7D
:102CA0000546414B1B6813F0020FD2D0FEF794FF8C
:102CB000401B0228F5D9032016E13C4B0022C3F843
:102CC000802EFEF789FF0546374B5B6F13F0020F2E
:102CD00006D0FEF781FF401B0228F5D9032003E14F
:102CE000236813F0040F77D02F4B1B6C13F0805F19
:102CF00033D1002301932C4B1A6C42F080521A649A
:102D00001B6C03F080530193019B0125284B1B682A
:102D100013F4807F23D0A368012B34D0052B38D047
:102D2000214B1A6F22F001021A671A6F22F0040277
:102D30001A67A368002B3DD0FEF74EFF06461A4BDC
:102D40001B6F13F0020F46D1FEF746FF801B41F2C6
:102D500088339842F3D90320C6E00025D6E7144A09
:102D6000136843F480731360FEF736FF0646104B7A
:102D70001B6813F4807FCED1FEF72EFF801B022844
:102D8000F5D90320B0E0084A136F43F0010313673D
:102D9000CFE7054B1A6F42F004021A671A6F42F030
:102DA00001021A67C5E700BF003802400000474231
:102DB00000700040FEF710FF0646524B1B6F13F0E9
:102DC000020F08D0FEF708FF801B41F288339842BB
:102DD000F3D9032088E0EDB9A369002B00F08380CC
:102DE000484A926802F00C02082A51D0022B17D0F0
:102DF000454B00221A66FEF7EFFE0446414B1B6866
:102E000013F0007F42D0FEF7E7FE001B0228F5D941
:102E1000032069E03B4A136C23F080531364DBE723
:102E2000394B00221A66FEF7D7FE0546354B1B6864
:102E300013F0007F06D0FEF7CFFE401B0228F5D925
:102E4000032051E0E369226A1343626A43EA821372
:102E5000A26A5208013A43EA0243E26A43EA026381
:102E6000284A5360284B01221A66FEF7B5FE044635
:102E7000244B1B6813F0007F06D1FEF7ADFE001B4C
:102E80000228F5D903202FE000202DE000202BE0C0
:102E9000012B2BD01B4B5B6803F48001E26991424C
:102EA00026D103F03F02216A8A4223D1616A47F6A4
:102EB000C0721A40B2EB811F1ED103F44031A26AE6
:102EC0005208013AB1EB024F18D103F07063E26A85
:102ED000B3EB026F14D1002006E0012070470120FF
:102EE00002E0012000E0002002B070BD0120FBE7FD
:102EF0000120F9E70120F7E70120F5E70120F3E7DA
:102F00000120F1E7003802400000474208B5334B8A
:102F10009B6803F00C03042B5BD0082B5BD12F4B79
:102F20005A6802F03F025B6813F4800F2CD02B4BE1
:102F30005868C0F388104FEA401CBCEB000C6EEBE5
:102F40000E0E4FEA8E1343EA9C634FEA8C11B1EBED
:102F50000C0163EB0E03DB0043EA5173C90011EB74
:102F6000000C43F10003590200234FEA4C2041EAD0
:102F7000DC51FDF70BFE194B5B68C3F301430133D2
:102F80005B00B0FBF3F008BD144B5868C0F3881029
:102F90004FEA401CBCEB000C6EEB0E0E4FEA8E139A
:102FA00043EA9C634FEA8C11B1EB0C0163EB0E0317
:102FB000DB0043EA5173C90011EB000C43F100033D
:102FC000990200234FEA8C2041EA9C51FDF7DEFD77
:102FD000D1E70348D7E70348D5E700BF00380240F0
:102FE00000127A000024F400002800F09B8070B5E5
:102FF0000D4604464F4B1B6803F007038B4208D273
:10300000CBB24C4A1370136803F007038B4240F0B5
:103010008B80236813F0020F17D013F0040F04D035
:10302000454A936843F4E0539360236813F0080F14
:1030300004D0414A936843F4604393603E4A9368E6
:1030400023F0F003A1680B439360236813F0010F92
:1030500032D06368012B21D09A1E012A25D9364A25
:10306000126812F0020F61D033498A6822F003021D
:1030700013438B60FEF7B0FD06462F4B9B6803F0B1
:103080000C036268B3EB820F16D0FEF7A5FD801B20
:1030900041F288339842F0D9032042E0264A126870
:1030A00012F4003FE0D101203BE0234A126812F005
:1030B000007FD9D1012034E01E4B1B6803F00703C9
:1030C000AB4207D9EAB21B4B1A701B6803F0070327
:1030D000AB422DD1236813F0040F06D0164A936833
:1030E00023F4E053E1680B439360236813F0080F67
:1030F00007D0114A936823F46043216943EAC1036E
:103100009360FFF703FF0C4B9B68C3F303130B4A59
:10311000D35CD8400A4B18600A4B1868FEF710FDC4
:10312000002070BD012070470120FAE70120F8E778
:103130000120F6E7003C024000380240D07600084B
:10314000040000200C000020014B1868704700BFED
:103150000400002008B5FFF7F7FF044B9B68C3F39A
:103160008223034AD35CD84008BD00BF0038024028
:10317000C876000808B5FFF7E7FF044B9B68C3F368
:103180004233034AD35CD84008BD00BF0038024038
:10319000C876000830B583B00446036813F0050F05
:1031A0000ED1236813F0020F36D1236813F0080FF5
:1031B00000F09B80227C4E4BC3F8E021002095E07C
:1031C0004C4B00229A66FEF707FD05464A4B1B68EA
:1031D00013F0006F06D0FEF7FFFC431B022BF5D95E
:1031E000032083E06268A3681B0743EA8213424A14
:1031F000C2F884303F4B01229A66FEF7EDFC05468B
:103200003D4B1B6813F0006FCBD1FEF7E5FC401B74
:103210000228F5D9032069E000230193364B1A6C8C
:1032200042F080521A641B6C03F080530193019B9F
:10323000324A136843F480731360FEF7CDFC0546F1
:103240002E4B1B6813F4807F06D1FEF7C5FC431B91
:10325000022BF5D9032049E0274B1B6F13F4407371
:1032600014D0E26802F440729A420FD0224B1A6FD7
:1032700022F440721F490120C1F8400E0020C1F81D
:10328000400E1A671B6F13F0010F12D1E36803F4AD
:103290004072B2F5407F1DD0174A936823F4F813AB
:1032A000936015490B6FE268C2F30B0213430B677F
:1032B0007BE7FEF791FC05460F4B1B6F13F0020FE7
:1032C000E4D1FEF789FC401B41F288339842F3D9E0
:1032D00003200BE008498A6822F4F81223F07043B7
:1032E00023F4407313438B60DBE7002003B030BD51
:1032F0000010474200004742003802400070004082
:10330000012801D000207047154B9B6813F400037F
:1033100002D01BB313487047114B5B6813F4800F46
:1033200014D00F4B5A6802F03F020F4BB3FBF2F37D
:103330000B4AD2F88400C0F3881003FB00F0D2F8E7
:103340008430C3F30273B0FBF3F07047044B5A6848
:1033500002F03F02054BB3FBF2F3E9E700207047B0
:10336000003802400080BB0000127A000024F40004
:103370002DE9F04782B00546884617461E46FEF7FF
:103380002BFC0A9B1B1A03EB0609FEF725FC824661
:10339000284B1B68C3F3CB3309FB03F301932B6862
:1033A0009C6838EA04040CBF01230023BB423DD0D3
:1033B000B6F1FF3FF3D0FEF70FFCA0EB0A00484543
:1033C00007D2019A02B14A46019B013B0193914603
:1033D000E5E72A68536823F0E00353606B68B3F5B0
:1033E000827F0BD0AB6AB3F5005F14D0012385F860
:1033F0005130002385F85030032018E0AB68B3F556
:10340000004F02D0B3F5806FECD12A68136823F027
:1034100040031360E6E72A68136823F4005313603F
:103420002A68136843F400531360DFE7002002B0FA
:10343000BDE8F0870400002070B584B004460D4656
:10344000164600920B4601220221FFF791FFD0B9E8
:10345000174B1B68174AA2FB03235B0D4FF47A72CC
:1034600002FB03F303936368B3F5827F11D0039BE0
:103470003BB1039B013B039323689B6813F0800FD0
:10348000F5D104B070BD636D43F020036365032084
:10349000F7E700962B46002280212046FFF768FFC1
:1034A0000028EED0636D43F0200363650320E8E756
:1034B00004000020819F5E1600285AD010B50446F3
:1034C000436A33B94368B3F5827F05D00023C361F3
:1034D00002E00023036143610023A36294F85130AA
:1034E000002B40D0022384F851302268136823F067
:1034F00040031360636803F48273A26802F4044219
:103500001343E26802F400621343226902F00202EC
:103510001343626902F001021343A26902F40072CC
:103520001343E26902F038021343226A02F0800278
:103530001343A26A02F40052216813430B60638BA9
:1035400003F00403626A02F01002216813434B6027
:103550002268D36923F40063D361002060650123EE
:1035600084F8513010BD84F850302046FDF72AFE13
:10357000B8E7012070472DE9F04383B01D4690F86D
:103580005030012B00F0D18004468846914601233B
:1035900080F85030FEF720FB074694F85160F6B2F1
:1035A000012E40F0BA80B8F1000F00F0B780B9F1F9
:1035B000000F00F0B380032384F8513000236365CB
:1035C000C4F83080A4F83490A4F83690A363A3879D
:1035D000E38763642364A368B3F5004F1ED02368B8
:1035E0001A6812F0400F03D11A6842F040021A60C4
:1035F000E368B3F5006F1CD0636813B1B9F1010F34
:1036000055D1226B236812781A73236B013323631D
:10361000E38E9BB2013B9BB2E38648E022681368CD
:1036200023F0400313602268136843F4804313605F
:10363000D5E7636813B1B9F1010F15D1226B236887
:103640001288DA60236B02332363E38E9BB2013B63
:103650009BB2E38608E0FEF7BFFAC01BA84202D384
:10366000B5F1FF3F15D1A5B1E38E9BB2002B3CD045
:1036700023689A6812F0020FEDD0226B1288DA608C
:10368000236B02332363E38E9BB2013B9BB2E38641
:10369000EAE7012384F8513003263FE0FEF79CFA65
:1036A000C01BA84202D3B5F1FF3F19D1C5B1E38ECB
:1036B0009BB2D3B123689A6812F0020FEED0226B4E
:1036C00012781A73236B01332363B4F836C01FFAE0
:1036D0008CFC0CF1FF3C1FFA8CFCA4F836C0E6E72A
:1036E000012384F85130032618E03A462946204643
:1036F000FFF7A2FE08B120236365A36833B90193E5
:103700002368DA6801929B680193019B636D2BB972
:10371000012384F85130002600E00226002384F8BB
:103720005030304603B0BDE8F0830226F9E72DE9BA
:10373000F04383B01F460A9D90F85030012B00F0F3
:103740001681044688469146012380F85030FEF7E2
:1037500043FA064694F85130DBB26268012B0AD076
:10376000B2F5827F40F0F080A268002A40F0F3803A
:10377000042B40F0F280B8F1000F00F0F080B9F1B6
:10378000000F00F0EE80002F00F0ED8094F8513033
:10379000DBB2042B02D0052384F85130002363658B
:1037A000C4F83890E787A787C4F83080E786A786F3
:1037B0002364636423681A6812F0400F03D11A6807
:1037C00042F040021A60E368B3F5006F11D06368FD
:1037D0000BB1012F0BD1226B236812781A73236B64
:1037E00001332363E38E9BB2013B9BB2E386012747
:1037F0006EE063680BB1012F0BD1226B2368128836
:10380000DA60236B02332363E38E9BB2013B9BB2EE
:10381000E38601271BE023689A6812F0010F0ED09F
:10382000E28F92B25AB1DA68A36B1A80A36B0233AB
:10383000A363E38F9BB2013B9BB2E3870127FEF7B3
:10384000CBF9801BA84202D3B5F1FF3F1ED1E38E16
:103850009BB21BB9E38F9BB2002B5CD023689A68A4
:1038600012F0020FD7D0E28E92B2002AD3D0002FEE
:10387000D1D0226B1288DA60236B02332363E38E8C
:103880009BB2013B9BB2E3860027C4E7012384F887
:103890005130032059E023689A6812F0010F0ED0CE
:1038A000E28F92B25AB1DA68A36B1A70A36B01333C
:1038B000A363E38F9BB2013B9BB2E3870127FEF733
:1038C0008BF9831BAB4202D3B5F1FF3F1ED1EDB1A3
:1038D000E38E9BB213B9E38F9BB2E3B123689A687E
:1038E00012F0020FD7D0E28E92B2002AD3D0002F6E
:1038F000D1D0226B12781A73236B01332363E38ECA
:103900009BB2013B9BB2E3860027C4E7012384F806
:103910005130032019E0324629462046FFF78CFD3E
:1039200070B9A36833B901932368DA6801929B6880
:103930000193019B636DC3B9012384F8513004E006
:1039400020236365012000E00220002384F850302A
:1039500003B0BDE8F0830220F7E70220F5E701207D
:10396000F3E70120F1E70120EFE70120EDE7022076
:10397000EEE7026802F10C0353E8003F23F4907372
:103980000C3242E800310029F3D1026802F114033D
:1039900053E8003F23F00103143242E800310029CC
:1039A000F3D1036B012B05D0202380F84230002394
:1039B00003637047026802F10C0353E8003F23F0F1
:1039C00010030C3242E800310029F3D1ECE790F803
:1039D0004130DBB2212B01D0022070478368B3F560
:1039E000805F17D0036A5A1C02621A7803685A6013
:1039F000C38C9BB2013B9BB2C3844BB90268D368B2
:103A000023F08003D3600268D36843F04003D3609F
:103A1000002070470369002BE4D1036A1B88026809
:103A2000C3F308035360036A02330362E0E7000054
:103A300010B504460268136923F44053C1680B4370
:103A40001361836802691A4343691A43C3691A43BD
:103A50000168CB6823F4164323F00C031343CB60B7
:103A60000268536923F4407381690B43536103680F
:103A7000314A934206D002F58062934202D0FFF7AA
:103A800069FB01E0FFF776FBE369B3F5004F29D04E
:103A90000021031849411B1841F10001C90041EA06
:103AA0005371DB00181863684FEA83024FEA93737F
:103AB00041F10001FDF76AF8204AA2FB00314909F3
:103AC000642303FB11031B013233A2FB03235B09B5
:103AD00003F0F00202EB011203F00F03216813441C
:103AE0008B6010BD0023021843EB0301121841F153
:103AF0000001C90041EA5271D200101841F10001E1
:103B0000626892185B41FDF741F80C4AA2FB003154
:103B10004909642303FB1103DB003233A2FB0323B7
:103B20005B095A0002F4F87202EB011203F007037A
:103B3000216813448B60D4E7001001401F85EB51CE
:103B40002DE9F04383B005460E4617469946DDF849
:103B500028802B681C6836EA04040CBF012400246A
:103B6000BC4228D1B8F1FF3FF3D0FEF735F8A0EB07
:103B70000900404523D8B8F1000F22D02B68DA683D
:103B800012F0040FE5D0802EE3D0402EE1D01A6869
:103B900012F0080FDDD0002401941A6801925B68CE
:103BA0000193019B2846FFF7E4FE08236B6485F828
:103BB0004040012000E0002003B0BDE8F083032076
:103BC000FAE70320F8E760B310B5044690F84130F7
:103BD00013B3242384F841302268D36823F40053BC
:103BE000D3602046FFF724FF2268136923F4904333
:103BF00013612268536923F02A0353612268D36852
:103C000043F40053D36000206064202384F84130E3
:103C100084F84230606310BD80F84030FDF70AFB45
:103C2000D7E7012070472DE9F04182B01E4690F899
:103C30004130DBB2202B56D104460D469046002978
:103C400055D00AB901204FE000234364212380F8B6
:103C50004130FDF7C1FF0746A4F82480A4F8268070
:103C6000A368B3F5805F02D04FF0000814E0236929
:103C70002BB34FF000080FE0202384F841300320DD
:103C800032E038F8023B2268C3F308035360E28C49
:103C900092B2013A92B2E284E38C9BB293B1009665
:103CA0003B46002280212046FFF74AFF0028E3D14F
:103CB000002DE6D015F8012B23685A60E7E7A846E7
:103CC0000025E9E700963B46002240212046FFF709
:103CD00037FF18B9202384F8413005E0202384F809
:103CE0004130032000E0022002B0BDE8F081012055
:103CF000FAE7704708B50168CA6822F04002CA6056
:103D0000202280F84120FFF7F4FF002008BD704713
:103D1000704708B5806B0023C385C384FFF7F8FFA5
:103D200008BD704790F84230DBB2222B69D183681E
:103D3000B3F5805F4FD0826AB3F5805F04D0002B6B
:103D400056D10369002B53D103685B681370836AF3
:103D500001338362C38D9BB2013B9BB2C385002BB1
:103D600051D100B583B00268D36823F02003D3603B
:103D70000268D36823F48073D3600268536923F028
:103D800001035361202380F8423000234363036B17
:103D9000012B33D100230363026802F10C0353E8C3
:103DA000003F23F010030C3242E800310029F3D128
:103DB00003681A6812F0100F06D0002201921A68E8
:103DC00001925B680193019B818DFFF7AAFF0020A0
:103DD00003B05DF804FB0269002AACD1826A036873
:103DE0005B68C3F308031380836A02338362B1E71D
:103DF00003685B6803F07F031370A8E7FFF787FF92
:103E0000E5E70220704700207047000010B582B03F
:103E1000044602681368D068516913F00F0F09D186
:103E200013F0200F0CD010F0200F09D02046FFF720
:103E300079FF16E011F0010115D110F4907F12D135
:103E4000216B012979D013F0800F03D010F0800F7F
:103E500040F0148113F0400F03D010F0400F40F0F9
:103E6000118102B010BD13F0010F06D010F4807F55
:103E700003D0626C42F00102626413F0040F04D0BC
:103E800019B1626C42F00202626413F0020F04D0B6
:103E900019B1626C42F00402626413F0080F07D09B
:103EA00010F0200F00D119B1626C42F00802626478
:103EB000626C002AD5D013F0200F02D010F0200F32
:103EC00029D123685B6903F04003626C12F0080F8C
:103ED00000D163B32046FFF74CFD23685B6913F004
:103EE000400F20D0226802F1140353E8003F23F072
:103EF0004003143242E800310029F3D1E36B73B17F
:103F0000624A1A65E06BFEF764F80028A9D0E06BFE
:103F1000036D9847A5E72046FFF704FFD1E7204649
:103F2000FFF7F6FE9DE72046FFF7F2FE99E72046F1
:103F3000FFF7EEFE0023636493E713F0100F82D0C7
:103F400010F0100F3FF47FAF00230193136801932B
:103F500053680193019B536913F0400F52D0E26BF9
:103F600013685B689BB2002B3FF47BAFA18D994235
:103F70007FF677AFE385D369B3F5807F37D02268CA
:103F800002F10C0353E8003F23F480730C3242E843
:103F900000310029F3D1226802F1140353E8003FF5
:103FA00023F00103143242E800310029F3D12268E2
:103FB00002F1140353E8003F23F04003143242E8B7
:103FC00000310029F3D1202384F8423000232363F9
:103FD000226802F10C0353E8003F23F010030C3277
:103FE00042E800310029F3D1E06BFDF7A8FF02237E
:103FF0006363A18DE38D9BB2C91A89B22046FFF796
:1040000090FE2EE7A18DE38D9BB2C91A89B2E38D94
:104010009BB2002B3FF425AF00293FF422AF22686A
:1040200002F10C0353E8003F23F490730C3242E892
:1040300000300028F3D1226802F1140353E8003F56
:1040400023F00103143242E800300028F3D120238A
:1040500084F8423000232363226802F10C0353E802
:10406000003F23F010030C3242E800300028F3D167
:10407000022363632046FFF754FEF2E62046FFF773
:10408000A6FCEEE62046FFF735FEEAE6133D000803
:1040900008B50349034801F0F7FA034B187008BD4F
:1040A0001C06002010000020200600200020704781
:1040B00008B5FDF78BFA08BD08B5FDF73FFB08BD55
:1040C00008B5FDF745FB08BD08B5FDF787FB08BD42
:1040D00008B5FDF7DBFB08BD08B5044B03EB800218
:1040E000526852680344187A904708BD4C06002075
:1040F000094B1B5C73B910B50446074B03EB8002F8
:10410000526812680344187A904710B9024B012292
:104110001A5510BD002070474C06002038B5044CDD
:1041200004EB80056D68AD680444207AA84738BD6B
:104130004C06002038B5044C04EB80056D68ED6832
:104140000444207AA84738BD4C06002010B5044B23
:1041500003EB8004646824690344187AA04710BD07
:104160004C0600204278007840EA02207047C3786D
:10417000827842EA0322437843EA0223007840EA45
:10418000032070470170090A417070470170C1F344
:1041900007234370C1F307438370090EC170704752
:1041A000944632B10A78013102700130BCF1010C41
:1041B000F8D1704701700130013AFBD17047844655
:1041C0009CF800000CF1010C0B780131C01A013A87
:1041D00001D00028F4D07047034600E0013318787E
:1041E00008B18842FAD1704730B400252B4601E06F
:1041F00001250133012B15D81A01174CA258002AAA
:10420000F6D00468A242F4D1134A02EB03125468B8
:1042100082689442EDD1104A02EB0312946842691D
:104220009442E6D1022B0AD0A1B90B4A02EB031348
:104230009B89B3F5807F0BD0002030BC70472DB92F
:10424000022901D01220F8E70020F6E70020F4E769
:104250001020F2E71020F0E724060020002000E004
:104260000130012804D80301034AD358002BF7D1A9
:10427000023818BF012070472406002070B40023C4
:1042800000E00133012B13D81A01234CA458026813
:104290009442F6D1204A02EB031254688268944299
:1042A000EFD11D4A02EB0312946842699442E8D1AF
:1042B000022B08D0F9B1184A02EB031292894ABBCB
:1042C0004FF480721DE00023012B05D81A01124C17
:1042D000A2580AB10133F7E7022B19D00E4D1C0189
:1042E00005EB031206682E518468546040699060A3
:1042F00000209081DEE7084A02EB03129289013226
:1043000092B2054901EB03118A81581C70BC7047B9
:104310000020FBE70020F9E72406002001380128EF
:1043200015D80D4B03EB00139B89B3F5807F03D0A9
:1043300043B1013B9BB200E00023074A02EB0012AD
:10434000938133B903010020034AD0507047022003
:1043500070470020704700BF24060020002303E0C0
:104360005DF8044B70470133012B11D81A0109493C
:104370008A588242F7D110B41A0100248C500133BC
:10438000012BEDD81A0103498A588242F7D1F3E78D
:10439000704700BF2406002002394369023B8B426C
:1043A00004D94389806A01FB0300704700207047ED
:1043B0000268C36A0433490A5289B1FBF2F101E091
:1043C000091A0833186818B18142F9D258680844AC
:1043D000704770B506460D4601F11A00FFF7C2FEA0
:1043E0003378032B00D070BD044605F11400FFF7AD
:1043F000B9FE44EA0040F6E770B506460C4615469D
:1044000091B204F11A00FFF7BDFE3378032B00D000
:1044100070BD290C04F11400FFF7B4FEF8E70000AA
:104420002DE9F84F81468A460F6800F1240B0B22D4
:1044300020215846FFF7BEFE002633464FF00808FD
:104440002CE001357B5D2F2BFBD05C2BF9D02F446A
:10445000CAF80070002E43D099F82430E52B35D0EF
:10446000202C37D8042389F82F30002028E0082694
:104470004FF00B0811E014F0800F23D121461948AA
:10448000FFF7AAFE50BBA4F16103DBB2192B01D8E0
:10449000203CE4B20BF8064001362B465D1CFC5C68
:1044A000202CD4D92F2CCDD05C2CCBD02E2C01D0CD
:1044B000B045E0D8B8F10B0F0ED02E2CD7D0062087
:1044C000BDE8F88F803C084B1C5DD7E7052389F8D1
:1044D0002430C5E70023C6E70620F1E70620EFE712
:1044E0000620EDE7B8760008E87600080146006887
:1044F00038B102461378202B06D93A2B04D001326A
:10450000F8E74FF0FF3070473A2B01D0002070479A
:1045100010B4034613F8010B3038092808D89A4222
:1045200002D04FF0FF3005E038B901320A6001E0F7
:104530004FF0FF305DF8044B70474FF0FF30F9E764
:1045400038B50D46044698B103689BB11A78A2B1FC
:104550008188DA88914203D0092000242C6038BD7C
:104560005878FFF7B9FD10F0010009D12468F5E78C
:104570000920F3E71C460920F0E709200024EDE7B5
:1045800009200024EAE72DE9F041C57815B928464D
:10459000BDE8F0810446C76A00F1300801233A46BD
:1045A00041464078FFF7C6FD0546A0B90023E370F9
:1045B000236AFB1AA2699342E9D2A67808E0A369AC
:1045C0001F4401233A4641466078FFF7B3FD013EA0
:1045D000012EF4D8DBE70125D9E770B5C36A8B4219
:1045E00002D10026304670BD04460D46FFF7CBFFD2
:1045F00006460028F6D101232A4604F130016078EE
:10460000FFF78CFD10B101264FF0FF35E562E9E7B9
:1046100038B504460023C3704FF0FF33C362FFF781
:10462000DCFF30BB054604F22E20FFF79BFD4AF667
:10463000552398421FD194F83030E92B07D0236BD3
:1046400003F0FF130D4A934201D0022514E004F158
:104650006600FFF78CFD20F07F40094B98420BD09D
:1046600004F18200FFF783FD064B984204D0022537
:1046700002E0042500E00325284638BDEB00900049
:1046800046415400464154332DE9F04F85B00D4664
:10469000164600230B60FFF729FF071EC0F2438177
:1046A000B44B53F82740002C00F042812C6006F0F8
:1046B000FE06237873B16078FFF70EFD10F0010558
:1046C00008D1002E00F0308110F0040F00F02C8192
:1046D0000A2529E100232370F8B26070FFF708FD76
:1046E00010F0010540F026811EB110F0040F40F0DB
:1046F000238100212046FFF78BFF02287ED0002770
:10470000042800F01B81012800F21A8104F13B000B
:10471000FFF728FDB0F5007F40F0148104F146005A
:10472000FFF720FD064620B904F15400FFF71FFDF6
:104730000646A66194F84020A270531EDBB2012BFE
:1047400000F2028106FB02F894F83D90A4F80A906A
:10475000B9F1000F00F0FA8009F1FF3319EA030FF5
:1047600040F0F68004F14100FFF7FCFC8246208116
:1047700010F00F0F40F0EE8004F14300FFF7F2FC61
:10478000834620B904F15000FFF7F1FC834604F1A1
:104790003E00FFF7E7FC0246002800F0DD8000EB5A
:1047A000080303EB1A139B45C0F0D880ABEB030B57
:1047B000BBFBF9F1CB45C0F0D3804FF6F5708142D9
:1047C00034D840F6F570814267D94FF0020B2FE0E4
:1047D000002004AB03EB860343F8100C0136032ED4
:1047E0000ED804F13000330103F5DF731844037968
:1047F000002BEDD00830FFF7BAFCEAE70026EEE721
:1048000000260AE039462046FFF702FF01287FF61E
:1048100077AF0136032E3FF673AF04AB03EB86038D
:1048200053F8107C002FEDD10320F2E74FF0030B7B
:1048300001F10209C4F81490E7613A4422623B4452
:10484000A362BBF1030F2BD0BAF1000F00F08E80F2
:1048500042446262BBF1020F33D009EB490309F015
:10486000010909EB530909F2FF19B6EB592F7FD360
:104870004FF0FF332361E36080232371BBF1030F0B
:1048800022D084F800B03C4A138801339BB21380D5
:10489000E3802046FFF762FD46E04FF0010BC7E7DB
:1048A00004F15A00FFF75EFC00285BD1BAF1000F5B
:1048B0005AD104F15C00FFF75AFC60624FEA8909A3
:1048C000D1E74FEA4909CEE704F16000FFF74AFC5F
:1048D0000128D6D1791C2046FFF77FFE0028D0D1D1
:1048E0000023237104F22E20FFF73CFC4AF65523E7
:1048F0009842C6D104F13000FFF739FC1F4B9842B3
:10490000BFD104F50570FFF732FC1D4B9842B8D1BA
:1049100004F50670FFF72BFC206104F50770FFF724
:1049200026FCE060ADE70B25284605B0BDE8F08F1A
:104930000C25F9E70325F7E70A25F5E70125F3E755
:104940000D25F1E70D25EFE70D25EDE70D25EBE74B
:104950000D25E9E70D25E7E70D25E5E70D25E3E75B
:104960000D25E1E70D25DFE70D25DDE70D25DBE76B
:104970000D25D9E748060020440600205252614127
:10498000727241612DE9F047012975D907460C463D
:10499000164643698B4273D90378022B3ED0032B12
:1049A0004FD0012B6ED101EB5108016A01EB582168
:1049B000FFF713FE054600285FD107F1300A08F122
:1049C0000109C8F3080814F001041DD01AF80830D2
:1049D00003F00F0343EA0613DBB20AF808300123A1
:1049E000FB70396A01EB59213846FFF7F6FD0546A1
:1049F000002842D1C9F3080944B1C6F307130AF8E5
:104A000009300123FB7038E0F3B2E6E71AF8093009
:104A1000C6F3032223F00F031343F0E7016A01EB0F
:104A20001421FFF7DAFD054638BB07F130006400BA
:104A300004F4FF74B1B22044FFF7A4FB0123FB7020
:104A40001BE0016A01EBD411FFF7C7FD0546A0B9D1
:104A500026F0704607F13003A40004F4FE741C44F1
:104A60002046FFF784FB00F0704131432046FFF7FA
:104A70008DFB0123FB7000E002252846BDE8F0878E
:104A80000225FAE70225F8E7F8B50568012954D9A7
:104A90000C466B698B4252D92B78022B2BD0032BFF
:104AA00039D0012B4DD101EB5106296A01EB56217A
:104AB0002846FFF792FD10B14FF0FF303EE0771C23
:104AC000C6F308062E4496F83060296A01EB572198
:104AD0002846FFF782FDB0BBC7F308072F4497F8BD
:104AE000303046EA032014F0010F01D0000925E020
:104AF000C0F30B0022E0296A01EB14212846FFF7DE
:104B00006CFD18BB05F13000640004F4FF74204410
:104B1000FFF728FB12E0296A01EBD4112846FFF7C2
:104B20005CFDB0B905F13000A40004F4FE7420442B
:104B3000FFF71DFB20F0704000E00120F8BD0120D0
:104B4000FCE70120FAE74FF0FF30F7E74FF0FF30C6
:104B5000F4E74FF0FF30F1E72DE9F041D0F80080A5
:104B6000B1F5001F3FD207460E4611F01F0F3DD191
:104B700041618468E4B998F80030022B01D9D8F873
:104B80002440ACB9B8F80830B3EB561F30D9D8F888
:104B90002430FB61BC61FB6993B303EB5623FB61DB
:104BA00008F13008C6F308014144396200201BE0D7
:104BB000B8F80A506D02AE420FD321463846FFF7CF
:104BC00063FF0446B0F1FF3F14D0012814D9D8F890
:104BD0001430834212D9761BEDE721464046FFF799
:104BE000DBFBF861D6E70220BDE8F0810220FBE79D
:104BF0000220F9E70120F7E70220F5E70220F3E7BA
:104C00000220F1E72DE9F041054606680F4651B94B
:104C1000D6F80C80B8F1000F12D07369434511D853
:104C20004FF001080EE0FFF72FFF0346012847D998
:104C3000B0F1FF3F49D07269824246D8B84601E0E0
:104C40004FF0010844460CE021462846FFF71CFFC0
:104C5000034678B1012838D0B0F1FF3F35D0444544
:104C600032D001347369A342EED8B8F1010F29D9CB
:104C70000224E9E74FF0FF3221463046FFF782FE7B
:104C80000346B0B977B9A3B9F46032697369023BDE
:104C90009A4201D8013A3261337943F0010333710A
:104CA000234612E0224639463046FFF76BFE0346A4
:104CB000E9E7012B01D0012307E04FF0FF3304E0C7
:104CC000012302E0002300E000231846BDE8F08144
:104CD000F8B50C46056801292ED9064611466B69C0
:104CE000A3422BD94AB14FF0FF322846FFF74AFEC4
:104CF000074610B123E0A24221D92746214630467B
:104D0000FFF7C2FE0446E0B101281CD0B0F1FF3F1E
:104D10001BD0002239462846FFF734FE074670B9FB
:104D20002B696A69911E8B42E5D201332B612B7985
:104D300043F001032B71DEE7022700E0022738462B
:104D4000F8BD0027FBE70227F9E70127F7E72DE980
:104D5000F04706684569C369002B6CD00446884655
:104D60002035B5F5001F68D2C5F308073FB90133F8
:104D7000C361816979B93389B3EB551F07D965617F
:104D800006F130033B4423620020BDE8F087002396
:104D9000C3610420F9E77389013B13EA5529EED179
:104DA000FFF772FE8246012849D9B0F1FF3F48D093
:104DB0007369834237D8B8F1000F11D0A16920463A
:104DC000FFF720FF824600283DD001283DD0B0F1FA
:104DD000FF3F3CD03046FFF7D6FB28B10120D4E797
:104DE0000023E3610420D0E74FF40072002106F1B4
:104DF0003000FFF7DFF951463046FFF7CDFAF06299
:104E0000738999450BD20123F3703046FFF7BBFB42
:104E1000F8B909F10109F36A0133F362F0E7F36AC3
:104E2000A3EB0903F362C4F818A051463046FFF71C
:104E3000B3FAE061A3E70420A7E70420A5E7022076
:104E4000A3E70120A1E707209FE702209DE70120BB
:104E50009BE7012099E770B5044606680021FFF73B
:104E60007BFE054640B1284670BD00212046FFF775
:104E70006EFF05460028F6D1E1693046FFF7ADFB2D
:104E800005460028EFD1206A03787BB1C37A03F08E
:104E90003F03A371C37A13F0080FE6D10B2204F18C
:104EA0002401FFF78CF90028DFD1DCE70425DAE7DD
:104EB00030B583B004460191056801E001330193E8
:104EC000019B1A782F2AF9D05C2AF7D00022A26021
:104ED0001B781F2B1ED901A92046FFF7A1FA034614
:104EE00000BB2046FFF7B7FF94F82F200346E0B938
:104EF00012F0040F16D1A37913F0100F1CD005F196
:104F000030016369C3F3080319442846FFF761FAC7
:104F1000A060E0E7802384F82F3011462046FFF799
:104F20001BFE0346184603B030BD0428FAD112F028
:104F3000040FF7D10523F5E70523F3E7F8B5044699
:104F40000E4607680021FFF707FE0246C0B900259C
:104F500008E00135B54213D001212046FFF7F7FEE6
:104F6000024668B9E1693846FFF737FB024638B9AF
:104F7000236A1B78E52BECD0002BEAD00025EBE769
:104F8000042A01D01046F8BD0722FBE770B504469D
:104F900006680121FFF7D2FF054608B1284670BD1B
:104FA000E1693046FFF719FB05460028F6D12022BB
:104FB0000021206AFFF7FEF80B2204F12401206A89
:104FC000FFF7EEF80123F370E8E7000070B5044640
:104FD000FFF7D9FA054648B92378032B08D00022F9
:104FE00011466078FFF7B2F800B10125284670BD80
:104FF0002379012BF3D104F130064FF40072002124
:105000003046FFF7D7F84AF6552104F22E20FFF775
:10501000B9F80F493046FFF7B9F80E4904F50570A5
:10502000FFF7B4F8216904F50670FFF7AFF8E168FF
:1050300004F50770FFF7AAF8E2690132E262012382
:1050400031466078FFF776F800232371C7E700BF89
:10505000525261417272416170B584B00190009109
:105060001646039103A8FFF741FA041E1CDB104B00
:1050700053F8245025B12846FFF770F900232B7010
:10508000019B0BB100221A70019B094A42F824309F
:1050900063B1012E02D0002004B070BD002201A92E
:1050A0006846FFF7F1FAF7E70B20F5E70020F3E792
:1050B000480600202DE9F04391B00191002800F04E
:1050C00005811446064602F03F073A4603A901A8A7
:1050D000FFF7DAFA054628B100233360284611B0FD
:1050E000BDE8F083039B0493019904A8FFF7E0FE59
:1050F000054660B99DF93F30002B52DB14F03E0F9E
:1051000014BF0121002104A8FFF76EF8054614F032
:105110001C0F5CD0002D50D0042D44D047F0080760
:10512000002DD9D117F0080F61D0FEF7BFFF04465C
:1051300001460C980E30FFF729F821460C981630DE
:10514000FFF724F80C9B2022DA72DDF80C80DDF8E2
:10515000309049464046FFF73CF904460022494654
:105160004046FFF749F900210C981C30FFF70EF874
:10517000039B0122DA70002C39D0039BD3F82C80DA
:105180000022214604A8FFF7A3FD05460028A3D16D
:1051900041460398FFF721FA0546013C039BDC607A
:1051A00025E00625B3E7FFF759F808B91225B5E75A
:1051B00004A8FFF7EBFE0546B0E79DF8163013F0A4
:1051C000110F13D114F0040FAAD0082584E7002D85
:1051D00082D19DF8163013F0100F73D114F0020F26
:1051E00005D013F0010F02D0072575E70725002D24
:1051F0007FF472AF17F0080F01D047F04007039B10
:10520000DB6A73620C9BB362012F94BF0021012102
:1052100004A8FFF733F8306108B902255CE7039C66
:10522000DDF8308041462046FFF7D3F8B06008F142
:105230001C00FEF79CFFF0600021F1623460E388FF
:10524000B380377571753162B16106F130084FF482
:1052500000724046FEF7AEFF17F0200F2ED0F46824
:1052600064B3B461039B5F897F02B16801E00225EA
:10527000E41B65B9BC420AD93046FFF705FC01467C
:105280000128F4D9B0F1FF3FF2D10125F0E7F16137
:10529000002D7FF421AFC4F308037BB1039F384690
:1052A000FFF77AF808B9022516E700EB54223262BC
:1052B000012341467878FEF731FF28B9002D3FF4ED
:1052C0000DAF09E7042507E7012505E7092505E7EF
:1052D0002DE9F04F85B004460E4617469846002348
:1052E000C8F8003003A9FFF72BF90190002840F01F
:1052F000AE80637D0193002B40F0A980237D13F0E5
:10530000010F00F0C380E568A369ED1ABD4262D3C6
:105310003D4660E0E36A1BB12046FFF749F86AE0CA
:10532000E1692046FFF7B0FB65E04FF0020A84F820
:1053300015A0CDF804A08AE04FF0010A84F815A06A
:10534000CDF804A083E04FF0020A84F815A0CDF850
:1053500004A07CE094F91430002B02DB4FEA4A27CA
:105360002FE0206AA0EB09005045F7D24FF40072FD
:1053700004F1300106EB4020FEF712FFEEE7226A4F
:105380004A450DD094F91430002B64DB01234A46C2
:1053900004F1300103984078FEF7C0FE00286ED17A
:1053A000C4F82090A369C3F30803C3F50077BD4296
:1053B00000D22F4604F130013A4619443046FEF738
:1053C000EFFE3E44A3693B44A361D8F800303B4460
:1053D000C8F80030ED1B002D39D0A169C1F30803D6
:1053E000002BDFD1039B5F89013F17EA512708D1CA
:1053F00000298FD1A068012897D9B0F1FF3F9BD039
:10540000E061DDF80CB0E1695846FEF7C5FF814662
:10541000002898D0B9444FEA552AB5F5007FAED39D
:1054200007EB0A03BBF80A20934201D9A2EB070A53
:1054300053464A4631469BF80100FEF76FFE0028AE
:1054400088D04FF0010A84F815A0CDF804A0019887
:1054500005B0BDE8F08F012304F130019BF8010095
:10546000FEF768FE20B9237D03F07F0323758DE7E7
:105470004FF0010A84F815A0CDF804A0E7E74FF03B
:10548000010A84F815A0CDF804A0E0E707230193F2
:10549000DDE770B582B0044601A9FFF751F870B995
:1054A000237D13F0400F0AD013F0800F09D1FEF7CF
:1054B000FDFD0546616A0198FFF78FF878B102B0EB
:1054C00070BD0123226A04F1300101984078FEF793
:1054D00031FE40BB237D03F07F032375E7E7A66A17
:1054E000F37A43F02003F372A26831462068FEF796
:1054F00083FFE16806F11C00FEF748FE294606F12D
:105500001600FEF743FE002106F11200FEF73AFEF8
:10551000019B0122DA700198FFF758FD237D23F0EB
:1055200040032375CBE70120C9E710B582B00446DC
:10553000FFF7AFFF08B102B010BD01A92046FEF78A
:10554000FFFF0028F7D12069FEF7E8FE0028F2D11E
:105550002060F0E72DE9F04788B0019088461446B6
:10556000002207A901A8FFF78FF88146002859D12A
:10557000079B23601A695D69A91E8A4202D8C8F890
:1055800000204FE01E78012E05D0D3F820A0002483
:10559000264627462FE002930224002704E0013428
:1055A000079B5B69A34235D9214602A8FFF76CFA35
:1055B000B0F1FF3F2DD0012838D00028EFD10137BE
:1055C000EDE70AF1010651460798FFF706F8814614
:1055D00000BB079C3034B2464FF400760DE0204605
:1055E000FEF7C0FD00B901370234023E01E0043489
:1055F000043E013D0ED0002EE3D0079B1B78022B0A
:10560000EDD02046FEF7B3FD30F07043EFD1013707
:10561000EDE7B146C8F80070079B1F611A7942F0A8
:1056200001021A71484608B0BDE8F0874FF0020940
:10563000F0E70000134B5B7A13BB10B5044603F090
:10564000FF00104B93F809C05FFA8CFC4FF0000E7E
:1056500003F80CE093F809C003EB8C0CCCF8044081
:105660005C7A1C4422725A7A541CE4B25C72303266
:105670000A703A234B702F238B7081F803E010BD22
:10568000012070474C06002008B50022FFF7D2FF2A
:1056900008BD0000DFF834D0FBF75AFE0C480D4976
:1056A0000D4A002302E0D458C4500433C4188C427D
:1056B000F9D30A4A0A4C002301E013600432A242E3
:1056C000FBD300F057F8FBF75FFC70470080012028
:1056D0000000002074000020887900087400002079
:1056E000A0070020FEE730B51446002C9BB005460D
:1056F0001A4605DA8B2303604FF0FF301BB030BD34
:105700004FF40273ADF80C3014BF04F1FF3323469D
:10571000029305934FF6FF7300910491ADF80E309C
:1057200069461E9B00F0A0F9431CBCBF8B232B6075
:10573000002CE3D0009B00221A70DFE707B500932E
:1057400013460A46014603480068FFF7CCFF03B042
:105750005DF804FB2400002002440346934200D17C
:10576000704703F8011BF9E7014B1868704700BF49
:105770002400002070B50D4D0D4C641BA4100026B4
:10578000A64209D10B4D0C4C01F048FF641BA4103C
:105790000026A64205D170BD55F8043B9847013656
:1057A000EEE755F8043B98470136F2E780790008A8
:1057B0008079000880790008847900087047704774
:1057C00038B50546002941D051F8043C0C1F002B88
:1057D000B8BFE41800F0E0F81D4A136833B96360FD
:1057E00014602846BDE8384000F0DCB8A34208D970
:1057F000206821188B4201BF19685B680918216075
:10580000EDE71A465B680BB1A342FAD9116850184C
:10581000A0420BD120680144501883421160E0D1AE
:1058200018685B68536008441060DAE702D90C23FB
:105830002B60D6E7206821188B4204BF19685B688B
:10584000636004BF091821605460CAE738BD00BF17
:105850009C07002070B50F4E0C463168054611B903
:1058600000F0A4FB30602146284600F09FFB431C5B
:1058700003D14FF0FF34204670BDC41C24F0030454
:10588000A042F8D0211A284600F090FB0130F2D156
:10589000EFE700BF980700202DE9F843CD1C25F065
:1058A000030508350C2D38BF0C25002D064601DBFD
:1058B000A94204D90C2333600020BDE8F883DFF847
:1058C000D48000F069F8D8F800301C4644BB294663
:1058D0003046FFF7BFFF431C044658D1D8F80040BC
:1058E0002746002F43D1002C4BD023683946304641
:1058F00004EB030900F05AFB814542D121686D1A7F
:1059000029463046FFF7A6FF01303AD023682B44E2
:105910002360D8F800305A6862BBC8F800700FE006
:105920002268521B20D40B2A17D96119A342256083
:1059300018BF5960636808BFC8F8001062514B6017
:10594000304600F02FF804F10B00231D20F0070073
:10595000C21A1CBF1B1AA350AFE76268A3420CBF58
:10596000C8F800205A60EBE723466468AEE73C467F
:105970007F68B6E71A465B68A342FBD100235360F9
:10598000DEE70C233360304600F00CF894E7056046
:10599000D6E700BF9C0700200148FFF70FBF00BFFC
:1059A000940700200148FFF70ABF00BF94070020BA
:1059B0002DE9F0478E681F46BE420B6882460C46B2
:1059C00090462DD8B1F90C2012F4906F26D065695D
:1059D000096905EB4505A3EB010905EBD5757B1CB2
:1059E0004B446D109D4238BF1D46530527D52946AF
:1059F000FFF752FF064660B321694A4600F0E6FA17
:105A0000A38923F4906343F08003A3812661656139
:105A10004E44A5EB09052660A5603E46BE4200D96E
:105A20003E4620683246414600F0A6FAA3689B1B1A
:105A3000A3602368334423600020BDE8F0872A4632
:105A400000F0D2FA06460028E0D121695046FFF75F
:105A5000B7FE0C23CAF80030A38943F04003A381AA
:105A60004FF0FF30E9E700002DE9F04F98468B89B1
:105A70001B069DB007460D46144610D50B6973B939
:105A80004021FFF709FF2860286130B90C233B60F3
:105A90004FF0FF301DB0BDE8F08F40236B61002355
:105AA000099320238DF82930CDF80C803023DFF8BE
:105AB0009C818DF82A304FF0010923469A4613F84D
:105AC000012B0AB1252AF9D1BAEB040B0BD05B46A6
:105AD000224629463846FFF76BFF013000F0A780C9
