:020000040800F2
:100000000080012049640008110F0008130F000848
:10001000150F0008170F0008190F00080000000056
:100020000000000000000000000000001B0F00089E
:100030001D0F0008000000001F0F0008210F00081E
:10004000996400089964000899640008996400089C
:10005000996400089964000899640008996400088C
:10006000996400089964000899640008996400087C
:10007000996400089964000899640008996400086C
:100080002D0F000899640008996400080000000022
:10009000000000000000000000000000996400085B
:1000A000996400089964000899640008996400083C
:1000B000996400089964000899640008996400082C
:1000C000996400089964000899640008996400081C
:1000D00099640008996400083D0F000800000000C2
:1000E0004D0F0008996400089964000800000000A2
:1000F00000000000000000000000000099640008FB
:1001000000000000590F0008996400089964000875
:1001100000000000000000000000000000000000DF
:10012000996400089964000899640008690F000840
:1001300099640008000000000000000000000000BA
:1001400000000000000000000000000099640008AA
:1001500099640008790F0008996400089964000800
:100160009964000899640008000000000000000085
:10017000000000000000000000000000000000007F
:10018000000000009964000800000000000000006A
:040190009964000866
:1001A000034613F8012B002AFBD1181A01387047B7
:1001B00001F0FF01102A2BDB10F0070F08D010F818
:1001C000013B013A8B422DD010F0070F42B3F6D11C
:1001D000F0B441EA012141EA014122F007047FF035
:1001E00000070023F0E80256083C85EA010586EA8C
:1001F000010685FA47F5A3FA87F586FA47F6A5FAC8
:1002000087F68EB9EED1F0BC01F0FF0102F00702D3
:1002100032B110F8013B013A83EA010313B1F8D17E
:100220000020704701387047002D06BF354603385F
:10023000073815F0010F07D1013015F4807F02BF98
:10024000013015F4C03F0130F0BC0138704700BFE9
:1002500081F0004102E000BF83F0004330B54FEA77
:1002600041044FEA430594EA050F08BF90EA020FE4
:100270001FBF54EA000C55EA020C7FEA645C7FEA77
:10028000655C00F0E2804FEA5454D4EB5555B8BF9A
:100290006D420CDD2C4480EA020281EA030382EA0B
:1002A000000083EA010180EA020281EA0303362D9D
:1002B00088BF30BD11F0004F4FEA01314FF4801C70
:1002C0004CEA113102D0404261EB410113F0004F82
:1002D0004FEA03334CEA133302D0524263EB430339
:1002E00094EA050F00F0A780A4F10104D5F1200ED7
:1002F0000DDB02FA0EFC22FA05F2801841F1000132
:1003000003FA0EF2801843FA05F359410EE0A5F105
:1003100020050EF1200E012A03FA0EFC28BF4CF036
:10032000020C43FA05F3C01851EBE37101F00045EC
:1003300007D54FF0000EDCF1000C7EEB00006EEBF9
:100340000101B1F5801F1BD3B1F5001F0CD3490883
:100350005FEA30004FEA3C0C04F101044FEA4452DA
:1003600012F5800F80F09A80BCF1004F08BF5FEA61
:10037000500C50F1000041EB045141EA050130BD41
:100380005FEA4C0C404141EB0101013C28BFB1F553
:10039000801FE9D291F0000F04BF01460020B1FA9E
:1003A00081F308BF2033A3F10B03B3F120020CDA71
:1003B0000C3208DD02F1140CC2F10C0201FA0CF04F
:1003C00021FA02F10CE002F11402D8BFC2F1200CB4
:1003D00001FA02F120FA0CFCDCBF41EA0C0190406A
:1003E000E41AA2BF01EB0451294330BD6FEA0404B3
:1003F0001F3C1CDA0C340EDC04F11404C4F120029E
:1004000020FA04F001FA02F340EA030021FA04F3AF
:1004100045EA030130BDC4F10C04C4F1200220FA06
:1004200002F001FA04F340EA0300294630BD21FA44
:1004300004F0294630BD94F0000F83F4801306BF0A
:1004400081F480110134013D4EE77FEA645C18BFFE
:100450007FEA655C29D094EA050F08BF90EA020F95
:1004600005D054EA000C04BF1946104630BD91EA8D
:10047000030F1EBF0021002030BD5FEA545C05D190
:100480004000494128BF41F0004130BD14F58004CF
:100490003CBF01F5801130BD01F0004545F0FE4143
:1004A00041F470014FF0000030BD7FEA645C1ABF78
:1004B000194610467FEA655C1CBF0B46024650EAAF
:1004C000013406BF52EA033591EA030F41F40021DB
:1004D00030BD00BF90F0000F04BF0021704730B561
:1004E0004FF4806404F132044FF000054FF0000136
:1004F00050E700BF90F0000F04BF0021704730B5F7
:100500004FF4806404F1320410F0004548BF4042CB
:100510004FF000013EE700BF42004FEAE2014FEA20
:1005200031014FEA02701FBF12F07F4393F07F4FFB
:1005300081F06051704732F07F4208BF704793F0FE
:100540007F4F04BF41F40021704730B54FF4607411
:1005500001F0004521F000411CE700BF50EA010214
:1005600008BF704730B54FF000050AE050EA0102BD
:1005700008BF704730B511F0004502D5404261EB2D
:1005800041014FF4806404F132045FEA915C3FF46E
:10059000D8AE4FF003025FEADC0C18BF03325FEA0B
:1005A000DC0C18BF033202EBDC02C2F1200300FABC
:1005B00003FC20FA02F001FA03FE40EA0E0021FAE1
:1005C00002F11444BDE600BF4FF0FF3C06E000BF5F
:1005D0004FF0010C02E000BF4FF0010C4DF804CDCC
:1005E0004FEA410C7FEA6C5C4FEA430C18BF7FEA8C
:1005F0006C5C1BD001B050EA410C0CBF52EA430CBA
:1006000091EA030F02BF90EA020F0020704710F139
:10061000000F91EA030F58BF994208BF90422CBFC8
:10062000D8176FEAE37040F0010070474FEA410CC1
:100630007FEA6C5C02D150EA013C07D14FEA430CDF
:100640007FEA6C5CD6D152EA033CD3D05DF8040B50
:10065000704700BF8446104662468C461946634682
:1006600000E000BF01B5FFF7B7FF002848BF10F159
:10067000000F01BD4DF808EDFFF7F4FF0CBF01209E
:1006800000205DF808FB00BF4DF808EDFFF7EAFF1A
:1006900034BF012000205DF808FB00BF4DF808EDD5
:1006A000FFF7E0FF94BF012000205DF808FB00BFCA
:1006B0004DF808EDFFF7CEFF94BF012000205DF854
:1006C00008FB00BF4DF808EDFFF7C4FF34BF012061
:1006D00000205DF808FB00BF4A0011D212F500129D
:1006E00011D20DD56FF47873B3EB62520ED44FEA8A
:1006F000C12343F0004343EA505323FA02F070470A
:100700004FF00000704750EA013002D14FF0FF3047
:1007100070474FF00000704753B94AB9002908BF2D
:1007200000281CBF4FF0FF314FF0FF3000F00CB835
:10073000ADF1080C6DE904CE06F0E6FBDDF804E04F
:10074000DDE9022304B07047704700BF10B5054CC7
:10075000237833B9044B13B10448AFF3008001236D
:10076000237010BD7800002000000000C471000854
:1007700008B5034B1BB103490348AFF3008008BD24
:10078000000000007C000020C4710008034B044AF4
:100790001A60044B01221A70704700BF0400002049
:1007A0009402002094040020034B044A1A60044B76
:1007B00001221A70704700BF04000020940300203B
:1007C0009404002010B582B0044600230193E9B1DF
:1007D000114B93ED007ADFED117A67EE277A17EE71
:1007E000900AFFF799FE41EC100B06F00DFB51EC5F
:1007F000100BFFF771FF421C22F0010201AB520007
:100800000749204605F045FB10B1FEE78022F5E7D9
:10081000BDF8040002B010BD00000020000000433D
:10082000940000200A4B1A68136843F08073136029
:10083000084B1B68084A1A60084B1B6800221A60A4
:10084000074B1A68136843F001031360704700BF39
:10085000080000200C00002055CEACC5140000207C
:1008600010000020054B064A1A6000225A609A6068
:10087000DA601A615A619A61704700BFB0050020C2
:10088000002C0140F0B58BB0002405940694079429
:10089000089409940094394B1A6B42F004021A63CD
:1008A0001A6B02F004020092009A01941A6B42F053
:1008B00080021A631A6B02F080020192019A02947C
:1008C0001A6B42F001021A631A6B02F001020292E3
:1008D000029A03941A6B42F002021A631A6B02F036
:1008E00002020392039A04941A6B42F008021A63FC
:1008F0001B6B03F008030493049B214E2246202126
:10090000304601F06DF81F4D22460221284601F0C5
:1009100067F84FF4005305934FF4041306930794BC
:1009200005A9194800F078FF2023059301270697B1
:100930000794089405A9304600F06EFF022605963C
:1009400006970794089405A9284600F065FF4FF420
:1009500060430593069607940323089305230993A0
:1009600005A9284600F058FF22462146282000F01D
:10097000C1FC282000F0CEFC0BB0F0BD00380240D6
:1009800000000240000402400008024010B582B09E
:1009900000240094164B1A6B42F400121A631A6B6F
:1009A00002F400120092009A01941A6B42F4800241
:1009B0001A631B6B03F480030193019B22462146BB
:1009C000102000F097FC102000F0A4FC22462146E5
:1009D0003B2000F08FFC3B2000F09CFC224621468F
:1009E000452000F087FC452000F094FC02B010BDCB
:1009F0000038024008B50848084B03604FF4E13363
:100A0000436000238360C36003610C224261836101
:100A1000C36102F0C4FF08BDA804002000440040E8
:100A200008B50948094B03604FF400724260002387
:100A30008360C36002614AF6444242618361C361DC
:100A4000036201F0D5F808BD94060020003C004088
:100A500030B595B03022002108A805F057FD0024DC
:100A60000394049405940694079401941B4B1A6C08
:100A700042F080521A641B6C03F080530193019B77
:100A80000294174A136823F4404343F4004313606D
:100A9000136803F440430293029B02250895012347
:100AA0000B9310230C930E950F9410934FF4A8738F
:100AB0001193042312930723139308A801F0A4FCB5
:100AC0000F230393049505944FF4805306930794E2
:100AD000294603A801F002FF15B030BD00380240DE
:100AE0000070004010B5ADF5025D86B000F06EFB01
:100AF000FFF798FEFFF7ACFFFFF7C4FEFFF746FFD6
:100B0000FFF778FF03F0FEFCFFF78AFFFFF7AAFE6E
:100B10004FF47A7000F086FB01220F490DF58350E7
:100B200005F074F820B101460C4800F05BFAFEE7CE
:100B30000B4C01AA0CA9204600F074FA0949204682
:100B400000F0CAFA00B1FEE7054B5B78002BFBD042
:100B5000034800F0CFFAF7E708080020DC7100082E
:100B600098040020F4710008B0F5005F00D07047D1
:100B700008B5024800F0A6FA08BD00BF980400209E
:100B80007047000000B583B0002100910C4B5A6CF7
:100B900042F480425A645A6C02F480420092009AF5
:100BA00001911A6C42F080521A641B6C03F080535E
:100BB0000193019B072000F08BFB03B05DF804FB61
:100BC00000380240F0B58FB0002309930A930B93CD
:100BD0000C930D930493059306930793089302686F
:100BE000404B9A4201D00FB0F0BD0446012304935C
:100BF0004FF49E7305930723069304A801F044FF66
:100C0000002868D100250095374B1A6C42F4004249
:100C10001A641A6C02F400420092009A01951A6B51
:100C200042F001021A631A6B02F001020192019A6A
:100C300002951A6B42F004021A631A6B02F0040266
:100C40000292029A03951A6B42F002021A631B6B1E
:100C500003F002030393039B1023099302270A97CF
:100C60000B950C9506260D9609A9204800F0D4FD99
:100C70004FF4906309930A970B950C950D9609A96B
:100C80001B4800F0C9FD202309930A970B950C958A
:100C90000D9609A9174800F0BFFD1748174B0360D0
:100CA000456040238360C5604FF4806303614FF467
:100CB000006343614FF4005383614FF48073C36159
:100CC0004FF440330362456200F0BEFB30B90A4B7B
:100CD000A3639C6387E7FFF753FF93E7FFF750FF9A
:100CE000F5E700BF003C0040003802400000024031
:100CF00000080240000402403406002088600240E0
:100D00002DE9F04F89B000230393049305930693D4
:100D100007930268594B9A4202D009B0BDE8F08FA0
:100D200004460025009503F586335A6C42F40062B0
:100D30005A645A6C02F400620092009A01951A6B90
:100D400042F004021A631A6B02F004020192019A43
:100D500002951A6B42F008021A631B6B03F008033A
:100D60000293029B4FF4807303934FF00208CDF877
:100D700010804FF0010BCDF814B0032606960C2717
:100D80000797DFF810910DEB0701484600F044FD8E
:100D90004FF4805ACDF80CA0CDF81080059506963A
:100DA00007970DEB0701484600F036FD4FF00409A8
:100DB000CDF80C90CDF81080CDF814B006960797BA
:100DC0000DEB07012E4800F027FD2E482E4B036047
:100DD0004FF0006343608560C5604FF4806303613A
:100DE000C0F814A04FF4804383612023C3610562DF
:100DF000C0F8249086624FF40003C3624FF40013DE
:100E0000036300F021FB002831D11E4B23649C6357
:100E10001E481F4B03604FF0006343604023836014
:100E20000023C3604FF4806202614FF4805242613C
:100E30004FF4804282612022C26103620423436234
:100E4000032383624FF40003C3624FF40013036370
:100E500000F0FAFA70B90D4BE3639C63002211466F
:100E6000312000F047FA312000F054FA55E7FFF73F
:100E700087FECAE7FFF784FEEDE700BF002C0140C4
:100E8000000C02405005002058640240F00400208D
:100E9000A06402400008024010B588B0002303930C
:100EA00004930593069307930268174B9A4201D067
:100EB00008B010BD0024019403F5FA331A6C42F413
:100EC00000321A641A6C02F400320192019A029400
:100ED0001A6B42F001021A631B6B03F001030293C9
:100EE000029B0C230393022304930723079303A974
:100EF000064800F091FC22462146262000F0FAF92F
:100F0000262000F007FAD3E700440040000002402A
:100F1000FEE7FEE7FEE7FEE7FEE770477047704733
:100F200008B500F06DF900F00EFA08BD08B50248EA
:100F300000F082FB08BD00BF3406002008B502485F
:100F400002F050FE08BD00BFA804002008B54FF411
:100F5000005000F04BFD08BD08B5024802F006FB4A
:100F600008BD00BFB005002008B5024800F064FBD2
:100F700008BD00BF5005002008B5024800F05CFB2A
:100F800008BD00BFF004002010B503460C4A0D490F
:100F90000D48006840B10C4800680344521A93425F
:100FA00006D8094A136010BD0748084C0460F2E7F0
:100FB00005F0B4FA0C2303604FF0FF30F3E700BFF5
:100FC000008001200004000000070020980B002092
:100FD000034AD2F8883043F47003C2F8883070476F
:100FE00000ED00E00FB410B582B004AB53F8042B51
:100FF00001930A4C4FF48071204605F079FA20469F
:10100000FFF7CEF84FF0FF3382B22146044802F0DA
:10101000F6FC02B0BDE8104004B0704704070020A1
:10102000A804002041608260002303704370C36005
:101030007047000030B583B004460023019301AB34
:1010400014228168406804F024FF002830D105464E
:10105000A3681968184A91422BD19A68174B9A4293
:1010600027D1A368D968164A914216D06068816971
:101070001B69194404F0F9FFE368A1680A69134485
:10108000E36001AB20220C31606804F002FF80B9FC
:10109000E268019B1344E360E3E71A69102A08D170
:1010A0009B8A012B05D163689B69E360012500E001
:1010B0000025284603B030BD5249464657415645A3
:1010C000666D7420437813B90123437070474378E9
:1010D0000BB101230370704738B504460122406804
:1010E00004F0C2FD054608B1284638BD2046FFF78A
:1010F000A1FFF9E7F8B50546C168406804F0B5FFFF
:10110000AB689F6A4FF480721849194800F062FE7C
:101110003C4604B3174B1B78002BFAD000216868BB
:10112000FFF750FB06464FF480721349134B1868C3
:1011300005F020FA2B7833B9A6420CD8A41B0D4B2E
:1011400000221A70E5E7E968686804F08EFF002362
:101150002B703C46F0E7064800F0AAFE00216868C4
:1011600004F083FF00206870F8BD00BF94020020E7
:101170009406002094040020940000200400002025
:1011800010B504460E4B1A784FF47A73B3FBF2F3A2
:101190000C4A1068B0FBF3F000F0C0F868B90F2CEF
:1011A00001D901200AE0002221464FF0FF3000F073
:1011B000A1F8054B1C60002000E0012010BD00BF1D
:1011C0001C000020180000202000002008B50B4B58
:1011D0001A6842F400721A601A6842F480621A6057
:1011E0001A6842F480721A60032000F071F800203F
:1011F000FFF7C6FFFFF7C6FC002008BD003C024019
:10120000034A1168034B1B780B441360704700BFFF
:10121000040800201C000020014B1868704700BF24
:101220000408002038B50446FFF7F6FF0546B4F180
:10123000FF3F02D0044B1B781C44FFF7EDFF401B1F
:10124000A042FAD338BD00BF1C000020002807DBF5
:1012500000F01F02400901239340024A42F8203067
:10126000704700BF00E100E0002808DB0901C9B2B7
:1012700000F1604000F5614080F80013704700F015
:101280000F000901C9B2014B1954704714ED00E079
:1012900000B500F00700C0F1070CBCF1040F28BF37
:1012A0004FF0040C031D062B0FD9C31E4FF0FF3E59
:1012B0000EFA0CF021EA000199400EFA03FE22EA30
:1012C0000E0241EA02005DF804FB0023EEE7000095
:1012D000074AD36823F4E0631B041B0C000200F4EC
:1012E000E060034343F0BF6343F40033D3607047CF
:1012F00000ED00E010B50446054BD868C0F30220AD
:10130000FFF7C6FF01462046FFF7AEFF10BD00BF46
:1013100000ED00E008B5FFF799FF08BD0138B0F116
:10132000807F0BD24FF0E0235861054AF02182F80C
:1013300023100020986107221A617047012070472E
:1013400000ED00E0704708B5FFF7FCFF08BD30B4C2
:1013500005682C6824F480242C600468636083682A
:10136000402B05D0036899600368DA6030BC704791
:1013700003689A600368D960F8E7000010B4036856
:10138000D9B210390A4AA2FB01421209094CA25CE7
:10139000C2655F2907D96FF3090304338365806D44
:1013A0005DF8044B70476FF309038365F7E700BFEF
:1013B000ABAAAAAA30720008836A826992B9012B8B
:1013C0000AD0022B02D00BB100207047C36A13F081
:1013D000807F28D100207047C36AB3F1C07F24D03A
:1013E00000207047B2F5005F09D0022B25D9032BEE
:1013F00025D1C36A13F0807F23D100207047032BCF
:1014000003D8DFE803F01404140A00207047C36A0D
:1014100013F0807F0DD100207047C36AB3F1C07F05
:1014200009D000207047012070470120704701203B
:10143000704701207047012070470120704700204D
:10144000704701207047000070B50446FFF7E4FEC6
:10145000002C5BD00546022384F83530002384F845
:1014600034302268136823F00103136023681A687C
:1014700012F0010F0AD0FFF7CFFE431B052BF5D961
:1014800020236365032084F8350070BD1A68204965
:1014900011406268A0680243E06802432069024389
:1014A00060690243A0690243E0690243206A024383
:1014B0000A43616A04291ED01A602668756925F0FE
:1014C0000705636A1D43042B07D1A36A1D43E36A22
:1014D0001BB12046FFF770FF90B975612046FFF7FA
:1014E0004DFFE26D3F239340836000206065012340
:1014F00084F83530C9E7E16A206B01430A43DBE732
:1015000040236365012084F83500BEE70120BCE775
:101510003F8010F038B50446856D90F834000128FE
:101520002BD0012084F8340094F83500C0B2012893
:1015300004D0002384F83430022038BD022084F81F
:101540003500002060652046FFF701FFE26D3F2374
:101550009340AB602268136843F016031360236C5A
:1015600023B12268136843F00803136022681368EC
:1015700043F0010313600020DFE70220DDE770B5D0
:101580000446866DFFF748FE94F83530DBB2022B37
:1015900006D080236365002384F83430012070BDB9
:1015A00005462268136823F0160313602268536906
:1015B00023F080035361236CE3B12268136823F0A6
:1015C000080313602268136823F001031360236883
:1015D0001B6813F0010F11D0FFF71EFE431B052BF4
:1015E000F5D920236365032084F83500002384F8AF
:1015F0003430D4E7A36C002BDFD1E3E7E26D3F2367
:101600009340B360012384F83530002084F834001F
:10161000C5E790F83530DBB2022B03D08023436559
:1016200001207047052380F835300268136823F0E5
:101630000103136000207047F0B583B00446002317
:101640000193724B1D68724BA3FB0535AD0A876D84
:101650003E68C26D08239340334210D003681A6875
:1016600012F0040F0BD01A6822F004021A60C26D47
:1016700008239340BB60436D43F001034365E26D73
:1016800001239340334209D02268526912F0800F3F
:1016900004D0BB60636D43F002036365E26D042315
:1016A0009340334209D02268126812F0020F04D02E
:1016B000BB60636D43F004036365E26D10239340E8
:1016C000334224D02268126812F0080F1FD0BB608A
:1016D00023681A6812F4802F0DD01B6813F4002FB2
:1016E00004D1236C9BB12046984710E0A36C73B1E2
:1016F000204698470BE01A6812F4807F03D11A68DD
:1017000022F008021A60236C0BB120469847E26D64
:1017100020239340334255D02268126812F0100FF4
:1017200050D0BB6094F83530DBB2052B0ED0236867
:101730001A6812F4802F33D01B6813F4002F2AD1BB
:10174000636C002B3ED0204698473BE0226813682C
:1017500023F0160313602268536923F0800353615A
:10176000236CA3B12268136823F008031360E26DB1
:101770003F239340BB60012384F83530002384F875
:101780003430236D002B3FD0204698473CE0A36CBB
:10179000002BE7D1EBE7E36BA3B12046984711E0BC
:1017A0001A6812F4807F09D11A6822F010021A60B8
:1017B000012384F83530002384F83430E36B0BB117
:1017C00020469847636DFBB1636D13F0010F17D08E
:1017D000052384F835302268136823F00103136071
:1017E000019B01330193AB4204D823681B6813F0BB
:1017F000010FF5D1012384F83530002384F834300B
:10180000E36C0BB12046984703B0F0BD18000020F0
:10181000B5814E1B406D704700230F2B00F2D7801F
:1018200070B582B065E085684FEA430E032404FA80
:101830000EF425EA0405CC6804FA0EF42C43846007
:10184000446824EA02044A68C2F300129A40224320
:1018500042605CE0DC08083450F8242003F00705FF
:10186000AD004FF00F0E0EFA05FE22EA0E0E0A69C9
:10187000AA4042EA0E0240F824205CE0042200E084
:10188000002202FA0EF22A430234514D45F8242078
:10189000504A94686FEA0C0224EA0C054E6816F46C
:1018A000801F01D04CEA04054A4CA560E46802EAB6
:1018B00004054E6816F4001F01D04CEA0405454C9F
:1018C000E560646802EA04054E6816F4003F01D042
:1018D0004CEA04053F4C6560246822404D6815F4CD
:1018E000803F01D04CEA04023A4C226001330F2BB6
:1018F0006BD801229A400C6804EA020C32EA040414
:10190000F4D14C6804F00304013C012C8BD94A68E3
:1019100002F00302032A09D0C4685D000322AA4032
:1019200024EA02048A68AA402243C2604A6802F09C
:101930000302022A8ED004684FEA430E032202FA01
:101940000EF224EA02044A6802F0030202FA0EF2DE
:10195000224302604A6812F4403FC7D0002201923D
:101960001D4A546C44F480445464526C02F4804226
:101970000192019A9C08A51C154A52F8255003F0C3
:10198000030E4FEA8E0E0F2202FA0EF225EA02052E
:10199000124A90423FF474AF02F5806290420ED03A
:1019A00002F5806290420CD002F5806290420AD02B
:1019B00002F5806290423FF461AF072261E70122A5
:1019C0005FE702225DE703225BE702B070BD70476C
:1019D00000380140003C0140003802400000024055
:1019E0000AB18161704709048161704708B5054BF0
:1019F0005B69034200D108BD024B5861FFF7B4F8A0
:101A0000F9E700BF003C014070477047704708B5D8
:101A10000346806BDB694BB90268536823F002030D
:101A2000536000234385012380F84130836C98473D
:101A300008BD08B5806B436D984708BD08B5806B3D
:101A40000268536823F003035360002343854386F1
:101A5000012380F84130436C43F008034364036E74
:101A6000984708BD08B5426A03681288DA60436A7D
:101A700002334362438D9BB2013B9BB24385438D4E
:101A80009BB24BB90268536823F0A0035360012353
:101A900080F84130836C984708BD08B50368DA6860
:101AA000C36A1A80C36A0233C362438E9BB2013B8E
:101AB0009BB24386438E9BB24BB90268536823F0B6
:101AC00060035360012380F84130C36C984708BD20
:101AD00010B584B0044602689368039390F84130CF
:101AE000DBB2042B06D094F84130DBB2032B2CD0B0
:101AF00004B010BD039B13F0010F03D0536813F023
:101B0000400F1FD1039B13F0400FECD023685A689D
:101B100012F0200FE7D05A6822F060025A600023CA
:101B200001932368DA6801929B680193019B01236A
:101B300084F84130636C43F002036364236E2046F3
:101B40009847D0E7FFF7A9FFDCE7039B13F0020FEC
:101B500004D023685B6813F0800F1DD1039B13F042
:101B6000080FC5D023685A6812F0200FC0D05A68F9
:101B700022F0A0025A600023029323689B6802931C
:101B8000029B012384F84130636C43F004036364D7
:101B9000236E20469847ABE72046FFF763FFDDE75B
:101BA0002DE9F8430646884617461D46FFF734FBE5
:101BB000814633689C6838EA04040CBF0124002481
:101BC000BC4212D0B5F1FF3FF3D0FFF725FBA0EBED
:101BD0000900A84201D2002DEBD1012386F8413043
:101BE000002386F84030032000E00020BDE8F883A1
:101BF000002800F0D28038B5044690F84130BBB9D7
:101C000080F84030664B4363664B8364664BC36425
:101C1000664B0365664B4365664B8365664BC365E0
:101C2000664B0366436E002B54D0636E2046984784
:101C3000022284F841202168CB6923F47B6323F0DE
:101C40000F03CB6123681A62636993425FD0E36834
:101C5000002B42D11025A368202B00D86D00012055
:101C600000F0C8FF2369B3F5007F38D0B0FBF5F072
:101C700000EB800043006269B3FBF2F30533504A86
:101C8000A2FB0323C3F3C002C2EBD3035B08110220
:101C90009A1EFD2A3DD822690A4321681A430A6226
:101CA0002168CB6923F47B6323F00F036268A0688B
:101CB0000243E0680243A0690243134343F4006314
:101CC000CB61236A012B2AD000206064012384F8B1
:101CD000413038BD3B4B4366A7E72025BBE7E368AF
:101CE00053B1AD00B0FBF5F000EB8000430062693A
:101CF000B3FBF2F30533C2E7ED00B0FBF5F000EB08
:101D0000800043006269B3FBF2F30533B7E70021BB
:101D1000BEE7636C43F0100363640120D9E72A4BEC
:101D200063632268294B9A421FD04FF04022D36947
:101D300023F47B6323F00F03D3612268234B9A4281
:101D400015D04FF0402302221A6222681F4B9A429C
:101D500010D04FF04025EB699BB26268B2F5007F6E
:101D60000AD0C2B94FF4807008E0194ADFE7A3F542
:101D70008063E8E7164DEEE74FF48070B4F808C0D2
:101D8000A189228B40EA0C0001430A43134343F428
:101D90000063EB6198E70020F0E70120704700BF87
:101DA000D11A0008A90700080B1A00080724000828
:101DB0008D070008091A0008052400080D1A0008FC
:101DC000CDCCCCCCC50B00082D220008003800403B
:101DD0000034004000295ED038B50446002A5CD0AB
:101DE00094F84030DBB2012B59D0012384F8403005
:101DF00094F84150EDB29D4210D1032384F8413054
:101E00000023636461622368DB6903F00703032B2B
:101E100009D0052B07D02285628508E0002384F8CD
:101E2000403002203AE0520092B222856285A36BD4
:101E30001C4A1A64A36B1C4ADA63A36B1B4ADA645C
:101E40002268238D9BB20C32616AA06BFFF762FBA4
:101E5000A8B92368DA6912F4806F03D1DA6942F411
:101E60008062DA6123685A6812F0020F03D15A685F
:101E700042F002025A60002384F840300EE0636CA6
:101E800043F008036364012384F84130002384F89D
:101E90004030284602E001207047012038BD022072
:101EA000FCE700BF331A00080F1A00083D1A0008AB
:101EB00070B584B004464368B3F5007F02D0002BB0
:101EC00040F08280A06B48B1FFF759FB054630B166
:101ED000636C43F008036364012500E0002564237C
:101EE000012202212046FFF75BFE30B1636C43F014
:101EF00001036364012584F841506423002280219A
:101F00002046FFF74DFE30B1636C43F0010363647C
:101F1000012584F841502268D36923F48063D3619A
:101F20000023009323689A680092009A5A6822F06E
:101F300002025A6094F84130DBB2052B05D0012330
:101F400084F84130284604B070BDE06B38B1FFF72B
:101F500016FB20B1636C43F008036364012522681B
:101F6000624B9A4220D04FF04022D36923F4806321
:101F7000D3610023019322685C4B9A4216D04FF044
:101F80004023DA6801929A680192019A5A6822F015
:101F900001025A60636863B9636C43F04003636491
:101FA000012584F84150CAE7514ADEE7A3F5806372
:101FB000E7E722684D4B9A4203D04FF04023DB689D
:101FC000BDE7A3F58063FAE7B3F5407F04D0B3F52E
:101FD000807F01D00025B2E7E06B48B1FFF7CFFA70
:101FE000054630B1636C43F008036364012500E0EB
:101FF000002594F84130DBB2052B17D02268D36955
:1020000023F48063D361002303932368DA68039287
:102010009A680392039A5A6822F001025A60636830
:10202000B3F5807F5AD02368DB6888E7A06B38B1AE
:10203000FFF7A5FA20B1636C43F008036364012540
:10204000FFF7EAF8064612E0636C43F001036364AD
:10205000012584F841500AE0A3F580639B6813F0E2
:10206000020F1ED1FFF7D8F8801B6428ECD8226835
:102070001E4B9A42F0D04FF04023EFE7636C43F0E1
:1020800001036364012584F841500AE0A3F58063ED
:102090009A6812F0800F0BD0FFF7BEF8801B6428FF
:1020A000ECD82268114B9A42F0D04FF04023EFE772
:1020B000DA6922F48062DA610023029322680B4B12
:1020C0009A4209D04FF0402293680293029B5368D2
:1020D00023F00203536091E7054AF5E7636C43F090
:1020E00040036364012584F8415028E7003800402C
:1020F0000034004008B5436A9A1C426202681B889B
:10210000D360438D9BB2013B9BB24385438D9BB211
:1021100063B90268536823F0A0035360438E9BB2F7
:1021200023B9012380F84130036D984708BD0000B2
:1021300008B5436A9A1C42621A880168124B994298
:102140001DD04FF04023DA60438D9BB2013B9BB220
:102150004385438D9BB28BB902680B4B9A4211D0D9
:102160004FF04022536823F0A0035360438E9BB28C
:1021700023B9012380F84130036D984708BDA3F5CA
:102180008063E0E7014AEDE700380040003400409A
:1021900008B50368DA68C36A991CC1621A80438E65
:1021A0009BB2013B9BB24386438E9BB263B90268EC
:1021B000536823F060035360438D9BB223B901231E
:1021C00080F84130036D984708BD000008B50268EB
:1021D000144B9A4221D04FF04023DA68C36A991C0D
:1021E000C1621A80438E9BB2013B9BB24386438EF1
:1021F0009BB28BB902680B4B9A4211D04FF0402230
:10220000536823F060035360438D9BB223B90123CD
:1022100080F84130036D984708BDA3F58063DCE783
:10222000014AEDE7003800400034004010B586B0A8
:10223000044603689A680592704A93426FD04FF043
:102240004022916804915B6803935368029363682A
:10225000B3F5007F01D0002B70D1059B13F0020F66
:1022600003D0039B13F0800F5CD1049B13F0010F8C
:1022700003D0029B13F0400F58D1049B13F0400F82
:1022800024D0029B13F0200F20D022685B4B9A428F
:1022900050D04FF04022536823F06003536022680F
:1022A000536823F0A0035360002300932368DA6887
:1022B00000929B680093009B012384F84130636C7B
:1022C00043F002036364236E20469847059B13F096
:1022D000080F22D0039B13F0200F1ED022685368F2
:1022E00023F0A00353602268444B9A4224D04FF05D
:1022F0004022536823F06003536000230193236856
:102300009B680193019B012384F84130636C43F087
:1023100004036364236E2046984706B010BDA2F5FF
:1023200080628EE72046FFF7E5FE9EE72046FFF736
:102330004DFFA2E7324AAEE7314ADAE7049B13F0D9
:10234000020F03D0029B13F0800F4AD1059B13F0BC
:10235000010F03D0039B13F0400F46D1059B13F0F0
:10236000400F1CD0039B13F0200F18D02268536835
:1023700023F0600353602268204B9A4239D04FF01B
:102380004022536823F0A0035360012384F84130B6
:10239000636C43F002036364236E20469847049BFA
:1023A00013F0080FB9D0029B13F0200FB5D02268AC
:1023B000124B9A421FD04FF04022536823F0A003E3
:1023C00053602268536823F060035360012384F84C
:1023D0004130636C43F004036364236E20469847E6
:1023E0009BE72046FFF7A4FEB0E72046FFF7D0FEAC
:1023F000B4E7034AC5E7024ADFE700BF0038004000
:102400000034004070477047002800F0E08170B54C
:1024100082B00446036813F0010F3BD09F4B9B68CA
:1024200003F00C03042B2CD09C4B9B6803F00C0393
:10243000082B21D06368B3F5803F4FD0B3F5A02FB0
:1024400052D0964B1A6822F480321A601A6822F42D
:1024500080221A606368002B50D0FEF7DDFE05462F
:102460008E4B1B6813F4003F14D1FEF7D5FE401BC2
:102470006428F5D90320B1E1884B5B6813F4800F21
:10248000D8D0864B1B6813F4003F03D06368002B41
:1024900000F09F81236813F0020F54D07F4B9B689C
:1024A00013F00C0F3ED07D4B9B6803F00C03082B00
:1024B00033D0E368002B68D0794B01221A60FEF715
:1024C000ABFE0546754B1B6813F0020F54D1FEF7A7
:1024D000A3FE401B0228F5D903207FE16F4A136851
:1024E00043F480331360B5E76C4B1A6842F48022E2
:1024F0001A601A6842F480321A60ABE7FEF78CFE6D
:102500000546664B1B6813F4003FC3D0FEF784FEFC
:10251000401B6428F5D9032060E1604B5B6813F42D
:10252000800FC6D15D4B1B6813F0020F03D0E36828
:10253000012B40F05081594A136823F0F8032169B8
:1025400043EAC1031360236813F0080F42D06369A4
:102550006BB3534B0122C3F8802EFEF75DFE054698
:102560004E4B5B6F13F0020F34D1FEF755FE401B4C
:102570000228F5D9032031E1484A136823F0F80313
:10258000216943EAC1031360DDE7454B00221A606D
:10259000FEF742FE0546414B1B6813F0020FD2D0F6
:1025A000FEF73AFE401B0228F5D9032016E13C4B0A
:1025B0000022C3F8802EFEF72FFE0546374B5B6FD7
:1025C00013F0020F06D0FEF727FE401B0228F5D9B4
:1025D000032003E1236813F0040F77D02F4B1B6C0B
:1025E00013F0805F33D1002301932C4B1A6C42F01F
:1025F00080521A641B6C03F080530193019B0125E8
:10260000284B1B6813F4807F23D0A368012B34D0A0
:10261000052B38D0214B1A6F22F001021A671A6F6E
:1026200022F004021A67A368002B3DD0FEF7F4FDE8
:1026300006461A4B1B6F13F0020F46D1FEF7ECFD56
:10264000801B41F288339842F3D90320C6E000256D
:10265000D6E7144A136843F480731360FEF7DCFD79
:102660000646104B1B6813F4807FCED1FEF7D4FDD5
:10267000801B0228F5D90320B0E0084A136F43F00D
:1026800001031367CFE7054B1A6F42F004021A6784
:102690001A6F42F001021A67C5E700BF0038024016
:1026A0000000474200700040FEF7B6FD0646524B60
:1026B0001B6F13F0020F08D0FEF7AEFD801B41F236
:1026C00088339842F3D9032088E0EDB9A369002B41
:1026D00000F08380484A926802F00C02082A51D028
:1026E000022B17D0454B00221A66FEF795FD0446D3
:1026F000414B1B6813F0007F42D0FEF78DFD001B9D
:102700000228F5D9032069E03B4A136C23F080537B
:102710001364DBE7394B00221A66FEF77DFD0546A0
:10272000354B1B6813F0007F06D0FEF775FD401B8C
:102730000228F5D9032051E0E369226A1343626A53
:1027400043EA8213A26A5208013A43EA0243E26A68
:1027500043EA0263284A5360284B01221A66FEF7B7
:102760005BFD0446244B1B6813F0007F06D1FEF787
:1027700053FD001B0228F5D903202FE000202DE097
:1027800000202BE0012B2BD01B4B5B6803F4800156
:10279000E269914226D103F03F02216A8A4223D1A5
:1027A000616A47F6C0721A40B2EB811F1ED103F472
:1027B0004031A26A5208013AB1EB024F18D103F03E
:1027C0007063E26AB3EB026F14D1002006E00120CF
:1027D0007047012002E0012000E0002002B070BD3F
:1027E0000120FBE70120F9E70120F7E70120F5E7E9
:1027F0000120F3E70120F1E70038024000004742E2
:1028000008B5334B9B6803F00C03042B5BD0082BFB
:102810005BD12F4B5A6802F03F025B6813F4800FC4
:102820002CD02B4B5868C0F388104FEA401CBCEBEF
:10283000000C6EEB0E0E4FEA8E1343EA9C634FEAD8
:102840008C11B1EB0C0163EB0E03DB0043EA517317
:10285000C90011EB000C43F10003590200234FEAB9
:102860004C2041EADC51FDF757FF194B5B68C3F37D
:10287000014301335B00B0FBF3F008BD144B586813
:10288000C0F388104FEA401CBCEB000C6EEB0E0E40
:102890004FEA8E1343EA9C634FEA8C11B1EB0C01B3
:1028A00063EB0E03DB0043EA5173C90011EB000C2C
:1028B00043F10003990200234FEA8C2041EA9C5126
:1028C000FDF72AFFD1E70348D7E70348D5E700BF64
:1028D0000038024000127A000024F400002800F0C2
:1028E0009B8070B50D4604464F4B1B6803F00703F1
:1028F0008B4208D2CBB24C4A1370136803F0070323
:102900008B4240F08B80236813F0020F17D013F036
:10291000040F04D0454A936843F4E053936023685E
:1029200013F0080F04D0414A936843F46043936066
:102930003E4A936823F0F003A1680B439360236839
:1029400013F0010F32D06368012B21D09A1E012AA7
:1029500025D9364A126812F0020F61D033498A68CD
:1029600022F0030213438B60FEF756FC06462F4B02
:102970009B6803F00C036268B3EB820F16D0FEF77E
:102980004BFC801B41F288339842F0D9032042E08F
:10299000264A126812F4003FE0D101203BE0234AAE
:1029A000126812F0007FD9D1012034E01E4B1B6861
:1029B00003F00703AB4207D9EAB21B4B1A701B683E
:1029C00003F00703AB422DD1236813F0040F06D0A8
:1029D000164A936823F4E053E1680B43936023683D
:1029E00013F0080F07D0114A936823F4604321695C
:1029F00043EAC1039360FFF703FF0C4B9B68C3F3EB
:102A000003130B4AD35CD8400A4B18600A4B186872
:102A1000FEF7B6FB002070BD012070470120FAE7E9
:102A20000120F8E70120F6E7003C024000380240B0
:102A3000207200081800002020000020014B1868B8
:102A4000704700BF1800002008B5FFF7F7FF044BE0
:102A50009B68C3F38223034AD35CD84008BD00BF00
:102A6000003802401872000808B5FFF7E7FF044B72
:102A70009B68C3F34233034AD35CD84008BD00BF10
:102A8000003802401872000830B583B0044603686D
:102A900013F0050F0ED1236813F0020F36D123680F
:102AA00013F0080F00F09B80227C4E4BC3F8E0210E
:102AB000002095E04C4B00229A66FEF7ADFB0546E0
:102AC0004A4B1B6813F0006F06D0FEF7A5FB431BB3
:102AD000022BF5D9032083E06268A3681B0743EA51
:102AE0008213424AC2F884303F4B01229A66FEF7B5
:102AF00093FB05463D4B1B6813F0006FCBD1FEF7EF
:102B00008BFB401B0228F5D9032069E000230193C9
:102B1000364B1A6C42F080521A641B6C03F08053DF
:102B20000193019B324A136843F480731360FEF7EC
:102B300073FB05462E4B1B6813F4807F06D1FEF70E
:102B40006BFB431B022BF5D9032049E0274B1B6F7E
:102B500013F4407314D0E26802F440729A420FD02A
:102B6000224B1A6F22F440721F490120C1F8400E17
:102B70000020C1F8400E1A671B6F13F0010F12D12D
:102B8000E36803F44072B2F5407F1DD0174A9368A2
:102B900023F4F813936015490B6FE268C2F30B023C
:102BA00013430B677BE7FEF737FB05460F4B1B6FA5
:102BB00013F0020FE4D1FEF72FFB401B41F28833E4
:102BC0009842F3D903200BE008498A6822F4F812EE
:102BD00023F0704323F4407313438B60DBE7002042
:102BE00003B030BD001047420000474200380240A9
:102BF00000700040012801D000207047154B9B68F1
:102C000013F4000302D01BB313487047114B5B68E9
:102C100013F4800F14D00F4B5A6802F03F020F4B91
:102C2000B3FBF2F30B4AD2F88400C0F3881003FB25
:102C300000F0D2F88430C3F30273B0FBF3F07047B6
:102C4000044B5A6802F03F02054BB3FBF2F3E9E78D
:102C500000207047003802400080BB0000127A005C
:102C60000024F400836B1A68D36B43F48073D3633E
:102C70007047000070B582B00446002301930068DD
:102C800001F05FF9054610B1284602B070BD20681A
:102C900001F020FC38B90123A364A36C012B0BD0F5
:102CA0002E46284614E00023A364206801F049F969
:102CB0000028F2D00546E7E70021206801F0A8FAD5
:102CC0000028EDD04FF08055DEE7019B01330193E2
:102CD000019A4FF6FE739A4213D896B900212068E4
:102CE00001F096FAE0B91249206801F03FFB064670
:102CF000C0B90021206801F00FF9C30FE5D01E46CE
:102D0000E3E7019A4FF6FE739A420ED810F0804323
:102D100002D001236364B7E7002262641D46B3E773
:102D20000546B1E74FF08055AEE74FF08075ABE751
:102D3000000010C1F8B5846AC66AA6B9F8BD386843
:102D400001F0C7F82070C0F307236370C0F3074396
:102D5000A370000EE0700434043E0135072DEED957
:102D6000BC62FE62EAE707460025F7E7F0B583B0EC
:102D7000046A466ADEB903B0F0BD23780193627835
:102D800043EA02230193A27843EA02430193E278E3
:102D900043EA026301930434043E01A9386801F058
:102DA0009BF80135072DE8D93C627E62E3E70746D0
:102DB0000025F7E770B581B104460E46016D0904A0
:102DC000006801F03DFA054608B1284670BD0021B3
:102DD000206801F0A1F83060F7E74FF00065F4E7F4
:102DE0002DE9F04387B0044691B116461F460A46C6
:102DF00090F83450EDB2012D7FD100238363F01998
:102E0000E36D98420AD9A36B43F00073A36375E0A6
:102E1000836B43F00063836301256FE0032384F831
:102E2000343023680021D9622068C36B43F44A73AD
:102E300043F00203C363236C3348D863236C3348E5
:102E4000D864236C1965236C9960206C01680B6849
:102E500023F0C003806803430B6021684FEA4729D1
:102E60004FEA99038031206CFEF754FB804668BB23
:102E7000274B0122C3F88C25636C934200D0760265
:102E80004FF0FF330093CDF8049090230293022378
:102E9000039300230493012305936946206801F0FE
:102EA0003EF8012F22D9822323633146206801F0A6
:102EB00035F938B32368174A9A63A36B0343A363B6
:102EC000012384F834300023236317E02268D36B96
:102ED00023F49573D36323680E4A9A63A36B43F07C
:102EE0008043A363012384F8343007E08123236304
:102EF0003146206801F0FAF8DBE70225284607B0E2
:102F0000BDE8F0834546F9E7573000087D340008F6
:102F100000802542FF054000F0B587B00446002937
:102F20003BD01E460F4690F83450EDB2012D40F0D4
:102F30008480002383639319C16D8B4233D80323AC
:102F400080F8343003680021D9620068C36B43F411
:102F5000067343F00203C363E36B3A48D863E36B41
:102F60003948D864E36B1965636C012B00D05202B9
:102F7000012E1DD9A02323631146206801F0FEF81D
:102F8000E8B12368314A9A63A36B0343A363012327
:102F900084F834300023236350E0836B43F00063F4
:102FA000836301254AE0836B43F00073836345E04C
:102FB000902323631146206801F0C8F8E0E7244B12
:102FC0000122C3F88C25E36B40229A60E16B0A680A
:102FD000136823F0C00389680B43136022687602EC
:102FE000B30880323946E06BFEF794FA074698B191
:102FF0002268D36B23F4067323F00203D3632368A0
:10300000124A9A63A36B43F08043A363012384F8BD
:1030100034300023236311E04FF0FF330093019617
:10302000902302930023039304930123059369469D
:10303000206800F074FF3D4600E00225284607B0F6
:10304000F0BD00BF652C00087D340008FF0540007E
:1030500000802542704710B5846B236B822B11D002
:103060002268D36A23F00803D362236840F23A52FD
:103070009A63012384F8343000232363204601F04F
:1030800084FA10BD206801F091F803460028E7D0CB
:10309000A26B1343A3632046FFF7DCFFE0E70000C9
:1030A0000346426E920F0A70426EC2F383624A7008
:1030B00090F8672002F003028A7090F86620CA70C8
:1030C00090F865200A7190F864204A71826E120DA2
:1030D000CA80B0F86A2002F00F020A72826EC2F350
:1030E000C0324A72826EC2F380328A72826EC2F33A
:1030F0004032CA72826EC2F300320A7300224A73EF
:10310000426C002A40F08680806E40F6FC7202EA33
:103110008002D86E42EA90720A61DA6EC2F3C2622D
:103120000A7593F86F2002F007024A75DA6EC2F34F
:1031300042528A75DA6EC2F38242CA75DA6EC2F3FF
:10314000C2320A760A6901325A65087E00F0070029
:10315000023082405A6591F808C00CF00F0C012033
:1031600000FA0CF09865400A00FB02F2DA654FF4B1
:1031700000721A66DA6EC2F380324A76DA6EC2F3F1
:10318000C6128A76DA6E02F07F02CA761A6FD20F02
:103190000A771A6FC2F341724A771A6FC2F38262DA
:1031A0008A771A6FC2F38352CA771A6FC2F34052FA
:1031B00081F82020002081F82100B3F8722002F06D
:1031C000010281F822201A6FC2F3C03281F8232055
:1031D0001A6FC2F3803281F824201A6FC2F3403292
:1031E00081F825201A6FC2F3003281F826201A6F69
:1031F000C2F3812281F827201A6FC2F3012281F8DD
:1032000028201B6FC3F3460381F82930012381F87E
:103210002A307047012A11D1826E120402F47C1206
:10322000B0F86E0002430A610A69013292025A65DF
:10323000DA654FF400729A651A669BE702680549E1
:103240009163826B42F080528263012083F83400E4
:10325000704700BFFF05400070B590B004460123E1
:10326000ADF81230006800F040FE00286CD0636CAE
:10327000032B45D1636C032B5DD1636C032B1DD0F5
:10328000BDF8121021650904206801F034F80546E4
:1032900000285BD10021206800F03EFE606604211A
:1032A000206800F039FEA0660821206800F034FE96
:1032B000E0660C21206800F02FFE206704212068C2
:1032C00000F02AFE000DE06405A92046FFF7E8FEA5
:1032D00000283ED1226D12040023206800F080FFF8
:1032E000054698BB234653F8106B93E807008DE81A
:1032F0000700043494E80E00304600F0D1FD25E0CC
:10330000206800F0E3FF054600BB0021206800F0C4
:1033100003FE60670421206800F0FEFDA06708211D
:10332000206800F0F9FDE0670C21206800F0F4FD52
:10333000C4F880009EE70DF11201206801F080F8CA
:103340000546002899D001E04FF08065284610B06E
:1033500070BD4FF08055F9E770B58AB00446002380
:1033600004930593069307930893762309930AAB76
:1033700013E907008DE8070004AB0ECB206800F0CE
:103380008FFD18B1012528460AB070BD05461A4EBA
:103390000023C6F8A030206800F0A3FD0123C6F882
:1033A000A0300220FDF73EFF2046FFF763FC30B15E
:1033B000012584F83450A36B0343A363E3E720465D
:1033C000FFF74AFF30B1012584F83450A36B034363
:1033D000A363D8E74FF40071206800F06FFE002867
:1033E000D1D0236805499963A36B0343A3630125E7
:1033F00084F83450C7E700BF00802542FF05400035
:10340000A8B110B5044690F8343063B1032384F8B2
:1034100034302046FFF7A0FF58B9A0632063012392
:1034200084F8343010BD0377FDF76AFCEEE7012025
:1034300070470120F6E7436C0B60836C4B60C36CF4
:103440008B60036DCB60436D0B61836D4B61C36D0E
:103450008B61036ECB610020704710B582B00446CB
:103460000023019301A9FFF7A5FC10B1A36B03434F
:10347000A3630198C0F3432002B010BD10B5846B64
:10348000FEF7C8F902280AD0236C5B6DE26B526D1F
:10349000012B05D0012A03D02046FFF7DBFD10BD2C
:1034A00023680F4A9A632268D36B23F49D73D36316
:1034B000A36B43F08043A3632046FFF7CEFF05389C
:1034C000012805D9012384F8343000232363E3E77E
:1034D000206800F06BFEA36B0343A363F2E700BF19
:1034E000FF05400010B5846B236840F23A529A639E
:1034F0002046FFF7B2FF012384F834300023236312
:103500000538012805D9A36B53B9204601F035F8D9
:1035100010BD206800F04AFEA36B0343A363F2E7EB
:103520002046FFF797FDF3E710B5846B236840F260
:103530003A529A632046FFF790FF012384F8343013
:10354000002323630538012805D9A36B53B920460E
:1035500001F013F810BD206800F028FEA36B0343B0
:10356000A363F2E72046FFF775FDF3E738B504469D
:10357000056B03685A6B12F4004F02D015F0080F68
:1035800028D15A6B12F4807F5AD04FF480729A631C
:103590002268D36B23F4434323F03A03D3632268B6
:1035A000D36A23F00103D36215F0080F26D015F07B
:1035B000220F12D1236840F23A529A63012384F811
:1035C00034300023236315F0030F13D0204600F09E
:1035D000DCFF01E0FFF7AEFB38BD206800F0E6FD40
:1035E00003460028E6D0A26B1343A3632046FFF7EF
:1035F00031FDDFE7204600F0C4FFEDE715F0800F56
:10360000EAD015F0200F0ED115F0030FE4D1226897
:10361000D36A23F00803D362012384F834302046B0
:1036200000F0AFFFD8E7206800F0C0FD0346002897
:10363000EAD0A26B1343A3632046FFF70BFDE3E739
:103640005A6B12F4804F02D015F0080F55D1596B08
:1036500040F23A221142BFD05A6B12F0020F03D04F
:10366000A26B42F00202A2635A6B12F0080F03D061
:10367000A26B42F00802A2635A6B12F0200F03D033
:10368000A26B42F02002A2635A6B12F0100F03D01B
:10369000A26B42F01002A2635A6B12F4007F03D0B7
:1036A000A26B42F00802A26340F23A729A63226867
:1036B000D36B23F44E7323F00203D363206800F02E
:1036C00075FDA36B0343A36315F0080F19D115F023
:1036D000800F81D015F0300F1CD115F0030F26D0CC
:1036E000236C184A1A65206CFDF793FF00283FF4FD
:1036F00073AF206CFFF718FF6EE72046FFF736FB2D
:103700006AE7012384F83430002323632046FFF75F
:10371000A1FC61E7E36B0C4A1A65E06BFDF779FFEA
:1037200000283FF459AFE06BFFF7DCFE54E70023BD
:10373000A363012284F834202363204600F01DFF98
:103740004AE700BF29350008E5340008026802F1A5
:103750000C0353E8003F23F490730C3242E800312D
:103760000029F3D1026802F1140353E8003F23F06B
:103770000103143242E800310029F3D1036B012B1D
:1037800005D0202380F8423000230363704702688D
:1037900002F10C0353E8003F23F010030C3242E81F
:1037A00000310029F3D1ECE790F84130DBB2212B56
:1037B00001D0022070478368B3F5805F17D0036A99
:1037C0005A1C02621A7803685A60C38C9BB2013B90
:1037D0009BB2C3844BB90268D36823F08003D360E3
:1037E0000268D36843F04003D36000207047036948
:1037F000002BE4D1036A1B880268C3F308035360FB
:10380000036A02330362E0E710B5044602681369F5
:1038100023F44053C1680B431361836802691A4360
:1038200043691A43C3691A430168CB6823F41643FA
:1038300023F00C031343CB600268536923F44073F5
:1038400081690B4353610368314A934206D002F504
:103850008062934202D0FFF7F7F801E0FFF704F926
:10386000E369B3F5004F29D00021031849411B1823
:1038700041F10001C90041EA5371DB001818636887
:103880004FEA83024FEA937341F10001FCF744FFD2
:10389000204AA2FB00314909642303FB11031B01E9
:1038A0003233A2FB03235B0903F0F00202EB0112A7
:1038B00003F00F03216813448B6010BD002302182E
:1038C00043EB0301121841F10001C90041EA5271B2
:1038D000D200101841F10001626892185B41FCF7B8
:1038E0001BFF0C4AA2FB00314909642303FB1103AF
:1038F000DB003233A2FB03235B095A0002F4F872A7
:1039000002EB011203F00703216813448B60D4E734
:10391000001001401F85EB512DE9F04383B00546AF
:103920000E4617469946DDF828802B681C6836EA53
:1039300004040CBF01240024BC4228D1B8F1FF3F8D
:10394000F3D0FDF769FCA0EB0900404523D8B8F19E
:10395000000F22D02B68DA6812F0040FE5D0802E19
:10396000E3D0402EE1D01A6812F0080FDDD0002419
:1039700001941A6801925B680193019B2846FFF746
:10398000E5FE08236B6485F84040012000E000203C
:1039900003B0BDE8F0830320FAE70320F8E760B343
:1039A00010B5044690F8413013B3242384F8413015
:1039B0002268D36823F40053D3602046FFF724FF26
:1039C0002268136923F4904313612268536923F03A
:1039D0002A0353612268D36843F40053D360002064
:1039E0006064202384F8413084F84230606310BD65
:1039F00080F84030FDF750FAD7E7012070472DE9F5
:103A0000F04182B01E4690F84130DBB2202B56D1F7
:103A100004460D469046002955D00AB901204FE0D2
:103A200000234364212380F84130FDF7F5FB07466E
:103A3000A4F82480A4F82680A368B3F5805F02D0A0
:103A40004FF0000814E023692BB34FF000080FE09B
:103A5000202384F84130032032E038F8023B22680A
:103A6000C3F308035360E28C92B2013A92B2E2844B
:103A7000E38C9BB293B100963B4600228021204606
:103A8000FFF74AFF0028E3D1002DE6D015F8012BFF
:103A900023685A60E7E7A8460025E9E700963B4619
:103AA000002240212046FFF737FF18B9202384F871
:103AB000413005E0202384F84130032000E002205B
:103AC00002B0BDE8F0810120FAE7704708B501684F
:103AD000CA6822F04002CA60202280F84120FFF725
:103AE000F4FF002008BD7047704708B5806B0023C5
:103AF000C385C384FFF7F8FF08BD704790F84230D4
:103B0000DBB2222B69D18368B3F5805F4FD0826A24
:103B1000B3F5805F04D0002B56D10369002B53D13D
:103B200003685B681370836A01338362C38D9BB241
:103B3000013B9BB2C385002B51D100B583B0026815
:103B4000D36823F02003D3600268D36823F4807322
:103B5000D3600268536923F001035361202380F886
:103B6000423000234363036B012B33D100230363F3
:103B7000026802F10C0353E8003F23F010030C32FB
:103B800042E800310029F3D103681A6812F0100FDF
:103B900006D0002201921A6801925B680193019B92
:103BA000818DFFF7AAFF002003B05DF804FB0269D6
:103BB000002AACD1826A03685B68C3F308031380F0
:103BC000836A02338362B1E703685B6803F07F03B3
:103BD0001370A8E7FFF787FFE5E702207047002092
:103BE0007047000010B582B0044602681368D068C0
:103BF000516913F00F0F09D113F0200F0CD010F002
:103C0000200F09D02046FFF779FF16E011F00101DF
:103C100015D110F4907F12D1216B012979D013F0C6
:103C2000800F03D010F0800F40F0148113F0400F8C
:103C300003D010F0400F40F0118102B010BD13F01E
:103C4000010F06D010F4807F03D0626C42F00102B5
:103C5000626413F0040F04D019B1626C42F00202E6
:103C6000626413F0020F04D019B1626C42F00402D6
:103C7000626413F0080F07D010F0200F00D119B1C3
:103C8000626C42F008026264626C002AD5D013F0C4
:103C9000200F02D010F0200F29D123685B6903F0B8
:103CA0004003626C12F0080F00D163B32046FFF7A7
:103CB0004DFD23685B6913F0400F20D0226802F1AC
:103CC000140353E8003F23F04003143242E800316C
:103CD0000029F3D1E36B73B1624A1A65E06BFDF71B
:103CE00098FC0028A9D0E06B036D9847A5E7204613
:103CF000FFF704FFD1E72046FFF7F6FE9DE72046D9
:103D0000FFF7F2FE99E72046FFF7EEFE002363641B
:103D100093E713F0100F82D010F0100F3FF47FAF35
:103D2000002301931368019353680193019B536926
:103D300013F0400F52D0E26B13685B689BB2002B0C
:103D40003FF47BAFA18D99427FF677AFE385D369CE
:103D5000B3F5807F37D0226802F10C0353E8003FAF
:103D600023F480730C3242E800310029F3D1226839
:103D700002F1140353E8003F23F00103143242E838
:103D800000310029F3D1226802F1140353E8003F07
:103D900023F04003143242E800310029F3D12023FC
:103DA00084F8423000232363226802F10C0353E8B5
:103DB000003F23F010030C3242E800310029F3D118
:103DC000E06BFDF7DCFB02236363A18DE38D9BB207
:103DD000C91A89B22046FFF790FE2EE7A18DE38D28
:103DE0009BB2C91A89B2E38D9BB2002B3FF425AF79
:103DF00000293FF422AF226802F10C0353E8003F90
:103E000023F490730C3242E800300028F3D122688A
:103E100002F1140353E8003F23F00103143242E897
:103E200000300028F3D1202384F84230002323639C
:103E3000226802F10C0353E8003F23F010030C3218
:103E400042E800300028F3D1022363632046FFF7E5
:103E500054FEF2E62046FFF7A7FCEEE62046FFF709
:103E600035FEEAE6EB3A00080B4B1B680B4AA2FB57
:103E700003235B0A41F2883202FB03F31A46013B3B
:103E80003AB1426B12F0800FF8D0C5238363002053
:103E900070474FF00040704718000020D34D62106B
:103EA00084B00DF1040C8CE80E000B461343039A0A
:103EB0001343049A1343059A1343069A1343426823
:103EC00022F4FD4222F07F0213434360002004B03D
:103ED0007047D0F8800070470B68C0F88030002031
:103EE00070470323036000207047006800F0030060
:103EF00070470B6883604B688A681343CA68134332
:103F00000A691343C2686FF30B021343C3600020B6
:103F100070470069C0B270471430405870470B6852
:103F200043624B6883628B68CA6813430A69134310
:103F30004A691343C26A22F0F7021343C3620020A6
:103F4000704710B586B00446002301930293039393
:103F500004934FF48063059301A9FFF7CAFF20463D
:103F6000FFF782FF06B010BD38B504460D46504B32
:103F70001B685049A1FB03135B0A03FB02F21346C3
:103F8000013A002B5DD0636B13F0450FF7D013F4AB
:103F9000006FF4D1636B13F0040F06D1636B13F061
:103FA000010F05D00120A0634DE00420A0634AE08A
:103FB000C523A3632046FFF7ACFFA84201D0012030
:103FC00041E000212046FFF7A7FF03463A4818408A
:103FD000C8B3002B38DB13F0804F38D113F0005FEB
:103FE00037D113F0805F36D113F0006F36D113F064
:103FF000806F36D113F0807F36D113F4000F36D1A5
:1040000013F4800F36D113F4001F36D113F4801F40
:1040100036D113F4802F36D113F4003F36D113F488
:10402000803F36D113F4004F36D113F4804F36D190
:1040300013F4005F36D113F0080F36D04FF40000B0
:1040400001E04FF0004038BD4FF00070FBE740202A
:10405000F9E78020F7E74FF48070F4E74FF4007041
:10406000F1E74FF48060EEE74FF40060EBE74FF4C8
:104070008050E8E74FF40050E5E74FF48040E2E776
:104080004FF40040DFE74FF40030DCE74FF48020CE
:10409000D9E74FF40020D6E74FF48010D3E74FF470
:1040A0000010D0E74FF48000CDE74FF48030CAE72E
:1040B00018000020D34D621008E0FFFD30B587B036
:1040C0000446019110250295402303930023049395
:1040D0004FF48063059301A9FFF70BFF41F288328B
:1040E00029462046FFF740FF07B030BD30B587B006
:1040F0000446019111250295402303930023049364
:104100004FF48063059301A9FFF7F3FE41F2883273
:1041100029462046FFF728FF07B030BD30B587B0ED
:104120000446019112250295402303930023049332
:104130004FF48063059301A9FFF7DBFE41F288325B
:1041400029462046FFF710FF07B030BD30B587B0D5
:1041500004460191182502954023039300230493FC
:104160004FF48063059301A9FFF7C3FE41F2883243
:1041700029462046FFF7F8FE07B030BD30B587B0BE
:1041800004460191192502954023039300230493CB
:104190004FF48063059301A9FFF7ABFE41F288322B
:1041A00029462046FFF7E0FE07B030BD30B587B0A6
:1041B0000446002301930C250295402203920493A8
:1041C0004FF48063059301A9FFF793FE034A294644
:1041D0002046FFF7C9FE07B030BD00BF00E1F5057E
:1041E00030B587B00446019207250295402303931A
:1041F000002304934FF48063059301A9FFF779FE30
:1042000041F2883229462046FFF7AEFE07B030BDA6
:1042100030B587B0044601913725029540230393BA
:10422000002304934FF48063059301A9FFF761FE17
:1042300041F2883229462046FFF796FE07B030BD8E
:1042400030B587B0044601910D25029540230393B4
:10425000002304934FF48063059301A9FFF749FEFF
:1042600041F2883229462046FFF77EFE07B030BD76
:104270000146144B1B68144AA2FB03235B0A41F25C
:10428000883202FB03F31A46013BBAB14A6B12F0C3
:10429000450FF8D012F4006FF5D14B6B13F0040FFB
:1042A00006D1486B10F0010005D1C5238B63704720
:1042B0000420886370470120886370474FF00040F6
:1042C000704700BF18000020D34D621010B586B0B3
:1042D00004460023019302220292C0220392049317
:1042E0004FF48063059301A9FFF703FE2046FFF713
:1042F000BFFF06B010BD10B586B00446019109237A
:104300000293C0230393002304934FF48063059327
:1043100001A9FFF7EEFD2046FFF7AAFF06B010BD8A
:104320000146104B1B68104AA2FB03235B0A41F2B3
:10433000883202FB03F31A46013B82B14A6B12F04A
:10434000450FF8D012F4006FF5D1486B10F004005F
:1043500002D1C5238B6370470420886370474FF0F8
:104360000040704718000020D34D621010B586B091
:10437000044641F0004141F4801101912923029348
:1043800040230393002304934FF48063059301A912
:10439000FFF7AFFD2046FFF7C3FF06B010BD0000DA
:1043A000F8B505460E461746234B1B68234AA2FB69
:1043B00003235B0A41F2883202FB03F31A46013BF6
:1043C0008AB36C6B14F0450FF8D014F4006FF5D17C
:1043D0006B6B13F0040F06D16B6B13F0010F05D05C
:1043E0000120A86321E00420A8631EE02846FFF70F
:1043F00090FDB04201D0012017E0C523AB6300213E
:104400002846FFF789FD034610F4604008D013F4F6
:10441000804F0BD113F4004F0BD04FF4805004E0C9
:104420001B0C3B8001E04FF00040F8BD4FF4005002
:10443000FBE74FF48030F8E718000020D34D6210FE
:1044400070B586B004460D460023019303260296FC
:104450004022039204934FF48063059301A9FFF770
:1044600048FD2A4631462046FFF79AFF06B070BD48
:104470000146164B1B68164AA2FB03235B0A41F256
:10448000883202FB03F31A46013BE2B14A6B12F099
:10449000450FF8D012F4006FF5D14B6B13F0040FF9
:1044A0000BD14B6B13F001030AD1486B10F04000A5
:1044B0000BD040228A6318467047042088637047F7
:1044C0000120886370474FF00040704718000020BB
:1044D000D34D621010B586B004464FF4D5730193E6
:1044E0000823029340230393002304934FF4806333
:1044F000059301A9FFF7FDFC2046FFF7B9FF06B0C1
:1045000010BD000008B50349034801F02BFF034B21
:10451000187008BD08080020387200080C08002038
:104520000020704708B513460A4601460248FEF7C8
:1045300057FC00B1012008BDB005002008B51346A6
:104540000A4601460248FEF7E7FC00B1012008BD1B
:10455000B005002008B50348FEF77FFF043818BFF8
:10456000012008BDB005002008B501460148FEF74E
:1045700062FF08BDB0050020704708B5FFF7FCFFDB
:1045800008BD08B500F002F908BD08B500F004F94F
:1045900008BD82B001238DF807309DF8070002B0F6
:1045A0007047000008B5FFF7F4FF012801D0012093
:1045B00008BD0248FEF724FFFAE700BFB00500205F
:1045C00008B5074B01221A70FFF7C4FF20B9044A4F
:1045D000137803F0FE031370014B187808BD00BF79
:1045E0002400002010B50446FFF7DCFF10B1044B97
:1045F000187810BD2046FFF7E3FF014B1870F6E76F
:104600002400002008B5FFF7DBFF08BD38B50546DC
:10461000FCF702FE0446FCF7FFFD001BA84205D292
:10462000FFF798FF0028F6D1002001E04FF0FF309F
:1046300038BD000070B50C4615461E4647F2305096
:10464000FFF7E4FF002830DB324629462046FFF71B
:1046500069FF08B1012029E0154B00221A60FCF720
:10466000DBFD0446124B1B6833B9FCF7D5FD001B7C
:1046700047F22F539842F5D90D4B1B680BB9012017
:1046800014E00B4B00221A60FCF7C6FD0446FCF751
:10469000C3FD001B47F22F53984204D8FFF75AFF7F
:1046A0000028F4D102E0012000E0012070BD00BF2D
:1046B0001008002070B50C4615461E461C4B002203
:1046C0001A6047F23050FFF7A1FF00282DDB324679
:1046D00029462046FFF732FF08B1012026E0FCF70B
:1046E0009BFD0446124B1B6833B9FCF795FD001B7C
:1046F00047F22F539842F5D90D4B1B680BB9012097
:1047000014E00B4B00221A60FCF786FD0446FCF710
:1047100083FD001B47F22F53984204D8FFF71AFF7E
:104720000028F4D102E0012000E0012070BD00BFAC
:104730001408002030B589B0134B187810F001042C
:104740001BD1154603291CD8DFE801F002040A102A
:104750000C4613E06846FFF707FF069B2B600DE051
:104760006846FFF701FF079B2B8007E06846FFF7CD
:10477000FBFE079B5B0A2B6000E00324204609B088
:1047800030BD0424FAE700BF24000020014B0122C1
:104790001A60704714080020014B01221A6070470C
:1047A0001008002008B5044B03EB800252685268E1
:1047B0000344187A904708BD400A0020094B1B5C4F
:1047C00073B910B50446074B03EB800252681268B8
:1047D0000344187A904710B9024B01221A5510BDB4
:1047E00000207047400A002038B5044C04EB8005D7
:1047F0006D68AD680444207AA84738BD400A00209F
:1048000038B5044C04EB80056D68ED680444207AEB
:10481000A84738BD400A002010B5044B03EB8004C4
:10482000646824690344187AA04710BD400A002038
:104830004278007840EA02207047C378827842EAE2
:104840000322437843EA0223007840EA03207047BA
:104850000170090A417070470170C1F3072343706A
:10486000C1F307438370090EC1707047944632B19B
:104870000A78013102700130BCF1010CF8D17047A7
:1048800001700130013AFBD1704784469CF800006A
:104890000CF1010C0B780131C01A013A01D000284B
:1048A000F4D07047034600E00133187808B188421D
:1048B000FAD1704730B400252B4601E001250133C1
:1048C000012B15D81A01174CA258002AF6D00468FB
:1048D000A242F4D1134A02EB031254688268944254
:1048E000EDD1104A02EB0312946842699442E6D17A
:1048F000022B0AD0A1B90B4A02EB03139B89B3F533
:10490000807F0BD0002030BC70472DB9022901D028
:104910001220F8E70020F6E70020F4E71020F2E785
:104920001020F0E7180A0020002000E001300128E4
:1049300004D80301034AD358002BF7D1023818BF1B
:1049400001207047180A002070B4002300E00133F2
:10495000012B13D81A01234CA45802689442F6D1B3
:10496000204A02EB0312546882689442EFD11D4A38
:1049700002EB0312946842699442E8D1022B08D0FA
:10498000F9B1184A02EB031292894ABB4FF48072C4
:104990001DE00023012B05D81A01124CA2580AB1C0
:1049A0000133F7E7022B19D00E4D1C0105EB031262
:1049B00006682E51846854604069906000209081A0
:1049C000DEE7084A02EB03129289013292B20549EE
:1049D00001EB03118A81581C70BC70470020FBE773
:1049E0000020F9E7180A0020002303E05DF8044BDB
:1049F00070470133012B11D81A0109498A588242A4
:104A0000F7D110B41A0100248C500133012BEDD8DA
:104A10001A0103498A588242F7D1F3E7704700BF71
:104A2000180A00200239C369023B8B4204D943892A
:104A3000006B01FB03007047002070470268C36AE7
:104A400004339089B1FBF0F15289B1FBF2F101E03E
:104A5000091A0833186818B18142F9D25868084415
:104A6000704770B506460D4601F11A00FFF7E0FEEB
:104A70003378032B00D070BD044605F11400FFF716
:104A8000D7FE44EA0040F6E770B506460C461546E8
:104A900091B204F11A00FFF7DBFE3378032B00D04C
:104AA00070BD290C04F11400FFF7D2FEF8E70000F6
:104AB0002DE9F84380460F4691464B730F23CB7286
:104AC00000240C73214607F11A00FFF7C1FE09F11B
:104AD000FF3606EB460306EB8306254602E001346B
:104AE0000C2C11D84FF6FF739D4202D038F81650A7
:104AF00001360C4B185D29463844FFF7A9FE002DFE
:104B0000EDD14FF6FF75EAE74FF6FF739D4202D0F5
:104B100038F816300BB949F0400987F80090BDE825
:104B2000F88300BF4C72000870B582B00546164687
:104B30001C460B22FFF79AFE052C11D807231FE015
:104B400001310F290CD803F0010C0CEB44045B0875
:104B500014F4803FF4D084F4883484F02104EFE727
:104B60003388002BEAD002360021EAE75A1E0833C8
:104B70006B4403F8081C21090F2C0AD913460C4674
:104B800004F00F0202F130013929EFD902F13701A7
:104B9000ECE77E2102F108036B4403F8081C0023B4
:104BA00000E00133934209D2E95C2029F9D105E004
:104BB0002020591CE854072909D80B46072AF7D8A2
:104BC00002F10801694411F8080C0132F1E702B062
:104BD00070BD01464FF00B0C0020C30143EA5003A7
:104BE0000A78013152FA83F3D8B2BCF1010CF4D146
:104BF00070470146006838B1024613781F2B06D96A
:104C00003A2B04D00132F8E74FF0FF3070473A2BCF
:104C100001D00020704710B4034613F8010B303860
:104C2000092808D89A4202D04FF0FF3005E038B981
:104C300001320A6001E04FF0FF305DF8044B70472D
:104C40004FF0FF30F9E738B50D46044698B10368D8
:104C50009BB11A78A2B18188DA88914203D00920E9
:104C600000242C6038BD5878FFF79CFD10F001003F
:104C700009D12468F5E70920F3E71C460920F0E78D
:104C800009200024EDE709200024EAE72DE9F0419E
:104C9000C57815B92846BDE8F0810446476B00F198
:104CA000380801233A4641464078FFF7A9FD0546FA
:104CB000A0B90023E370A36AFB1A226A9342E9D2E7
:104CC000A67808E0236A1F4401233A4641466078EB
:104CD000FFF796FD013E012EF4D8DBE70125D9E769
:104CE00070B5436B8B4202D10026304670BD04463E
:104CF0000D46FFF7CBFF06460028F6D101232A46D2
:104D000004F138016078FFF76FFD10B101264FF014
:104D1000FF356563E9E7000038B504460023C3703A
:104D20004FF0FF334363FFF7DBFF30BB054604F270
:104D30003620FFF77DFD4AF6552398421FD194F89F
:104D40003830E92B07D0A36B03F0FF130D4A9342D1
:104D500001D0022514E004F16E00FFF76EFD20F093
:104D60007F40094B98420BD004F18A00FFF765FDA4
:104D7000064B984204D0022502E0042500E00325FA
:104D8000284638BDEB00900046415400464154335C
:104D90002DE9F04F87B00D46164600230B60FFF754
:104DA00028FF071EC0F26981BE4B53F82740002C34
:104DB00000F068812C6006F0FE06237873B16078FD
:104DC000FFF7F0FC10F0010508D1002E00F056812D
:104DD00010F0040F00F052810A254FE100232370E8
:104DE000F8B26070FFF7EAFC10F0010F40F04C8160
:104DF0001EB110F0040F40F0498104F10C020221B1
:104E00006078FFF709FD0546002840F04181A2893E
:104E1000A2F500739BB2B3F5606F00F23B81531EA5
:104E20001A4201D0012529E100212046FFF774FF35
:104E3000022800F088800026042800F02D81012837
:104E400000F22C8104F14300FFF7F2FCB4F80C806F
:104E5000404540F0258104F14E00FFF7E9FC07468C
:104E600020B904F15C00FFF7E8FC0746276294F8DC
:104E70004820A270531EDBB2012B00F21D8107FBFC
:104E800002F3009394F84590A4F80A90B9F1000F4A
:104E900000F0148109F1FF3319EA030F40F010818B
:104EA00004F14900FFF7C4FC824620814FEA581BF9
:104EB000B0FBFBF30BFB13039BB2002B40F0028112
:104EC00004F14B00FFF7B4FC019020B904F1580045
:104ED000FFF7B3FC019004F14600FFF7A9FC01467F
:104EE000002800F0F180009BC318BAFBFBFB5B4479
:104EF000019A9A42C0F0EA80D21AB2FBF9F04A4510
:104F0000C0F0E6804FF6F572904234D840F6F57264
:104F100090426CD94FF0020B2FE0002006AB03EB60
:104F2000860343F8100C0136032E0ED804F1380026
:104F3000330103F5DF7318440379002BEDD00830FB
:104F4000FFF77BFCEAE70026EEE700270AE03146A0
:104F50002046FFF7E1FE01287FF66EAF0137032FF1
:104F60003FF66AAF06AB03EB870353F8106C002ED5
:104F7000EDD10320F2E74FF0030B00F10209C4F872
:104F80001C9066628A19A26233442363BBF1030F4B
:104F900030D0BAF1000F00F0A180009B1A44E26209
:104FA000BBF1020F37D009EB490209F0010303EB13
:104FB00052034344013BB3FBF8F3BB4200F2908041
:104FC0004FF0FF33A361636180232371BBF1030FB3
:104FD00024D084F800B0344A138801339BB2138084
:104FE000E380324B23612046FFF7FEFC46E04FF0A2
:104FF000010BC2E704F16200FFF71AFC002869D137
:10500000BAF1000F68D104F16400FFF716FCE0620A
:105010004FEA8903CDE74FEA4903CAE704F1680084
:10502000FFF706FC0128D4D1711C2046FFF758FE7B
:105030000028CED10023237104F23620FFF7F8FBBD
:105040004AF655239842C4D104F13800FFF7F5FB26
:10505000174B9842BDD104F50770FFF7EEFB154BD7
:105060009842B6D104F50870FFF7E7FBA06104F59C
:105070000970FFF7E2FB6061ABE70B25284607B03C
:10508000BDE8F08F0C25F9E70325F7E70A25F5E7DA
:105090000125F3E70125F1E70125EFE70D25EDE710
:1050A0000D25EBE73C0A0020380A002018080020F4
:1050B00052526141727241610D25DFE70D25DDE736
:1050C0000D25DBE70D25D9E70D25D7E70D25D5E71C
:1050D0000D25D3E70D25D1E70D25CFE70D25CDE72C
:1050E0000D25CBE72DE9F047012940F28E800446DB
:1050F0000D461746C3698B4240F28B800378022B22
:1051000049D0032B60D0012B40F0858001EB510882
:10511000816A8389B8FBF3F31944FFF7E1FD064682
:10512000002873D104F1380A08F10109A389B8FBFA
:10513000F3F203FB128815F0010522D01AF80830AB
:1051400003F00F0343EA0713DBB20AF80830012328
:10515000E370A16AA389B9FBF3F319442046FFF772
:10516000BFFD0646002851D1A389B9FBF3F203FB2A
:10517000129945B1C7F307130AF809300123E37008
:1051800044E0FBB2E1E71AF80930C7F3032223F049
:105190000F031343F0E7816A83895B08B5FBF3F3E0
:1051A0001944FFF79DFD064680BB04F138006D00F1
:1051B000A389B5FBF3F203FB1255B9B22844FFF7FC
:1051C00047FB0123E37021E0816A83899B08B5FBDB
:1051D000F3F31944FFF784FD0646B8B927F070478A
:1051E00004F13803AD00A289B5FBF2F102FB1155C1
:1051F0001D442846FFF721FB00F070413943284643
:10520000FFF72AFB0123E37000E002263046BDE8E9
:10521000F0870226FAE70226F8E7F8B505680129C3
:105220006AD90C46EB698B4268D92B78022B35D0B2
:10523000032B49D0012B63D101EB5106A96AAB893D
:10524000B6FBF3F319442846FFF74AFD10B14FF0BF
:10525000FF3052E0771CAB89B6FBF3F203FB12661A
:105260002E4496F83860A96AB7FBF3F31944284630
:10527000FFF736FD002845D1AB89B7FBF3F203FBFE
:1052800012772F4497F8383046EA032014F0010FC4
:1052900001D0000931E0C0F30B002EE0A96AAB8910
:1052A0005B08B4FBF3F319442846FFF719FD60BB14
:1052B00005F138006400AB89B4FBF3F203FB124440
:1052C0002044FFF7B5FA18E0A96AAB899B08B4FB44
:1052D000F3F319442846FFF703FDC8B905F1380078
:1052E000A400AB89B4FBF3F203FB12442044FFF7A4
:1052F000A4FA20F0704000E00120F8BD0120FCE796
:105300000120FAE74FF0FF30F7E74FF0FF30F4E706
:105310004FF0FF30F1E72DE9F041D0F80080B1F512
:10532000001F49D207460E4611F01F0F47D14161B9
:1053300084681CBB98F80030022B01D9D8F82C40A7
:10534000E4B9B8F80830B3EB561F3AD9D8F82C3086
:10535000FB61BC61FB69E3B3B8F80C20B6FBF2F269
:105360001344FB6108F13803B8F80C20B6FBF2F1E6
:1053700002FB11610B443B6200201EE0B8F80A50AA
:10538000B8F80C3003FB05F5AE420FD32146384682
:10539000FFF743FF0446B0F1FF3F14D0012814D9B2
:1053A000D8F81C30834212D9761BEDE721464046DF
:1053B000FFF738FBF861CCE70220BDE8F08102205E
:1053C000FBE70220F9E70120F7E70220F5E70220DA
:1053D000F3E70220F1E72DE9F041054606680F46A4
:1053E00051B9D6F81480B8F1000F12D0F3694345D3
:1053F00011D84FF001080EE0FFF70FFF0346012818
:1054000047D9B0F1FF3F49D0F269824246D8B84649
:1054100001E04FF0010844460CE021462846FFF722
:10542000FCFE034678B1012838D0B0F1FF3F35D0FB
:10543000444532D00134F369A342EED8B8F1010FEC
:1054400029D90224E9E74FF0FF3221463046FFF721
:1054500049FE0346B0B977B9A3B97461B269F3697B
:10546000023B9A4201D8013AB261337943F0010319
:105470003371234612E0224639463046FFF732FEAA
:105480000346E9E7012B01D0012307E04FF0FF338A
:1054900004E0012302E0002300E000231846BDE8F9
:1054A000F081F8B50C46056801292ED9064611464B
:1054B000EB69A3422BD94AB14FF0FF322846FFF7E0
:1054C00011FE074610B123E0A24221D9274621460A
:1054D0003046FFF7A2FE0446E0B101281CD0B0F12F
:1054E000FF3F1BD0002239462846FFF7FBFD074649
:1054F00070B9AB69EA69911E8B42E5D20133AB61A9
:105500002B7943F001032B71DEE7022700E002272D
:105510003846F8BD0027FBE70227F9E70127F7E740
:105520002DE9F84306684469C369002B74D0054629
:105530000F462034B4F5001F70D2B189B4FBF1F2EC
:1055400001FB12423AB90133C3618169A1B93389C0
:10555000B3EB541F0CD96C6106F13803B289B4FB6C
:10556000F2F102FB114423442B620020BDE8F883D2
:105570000023C3610420F9E7B289B4FBF2F2738916
:10558000013B12EA0308E6D1FFF747FE81460128F6
:1055900046D9B0F1FF3F45D0F369834234D88FB18B
:1055A000A9692846FFF717FF814600283CD001284B
:1055B0003CD0B0F1FF3F3BD03046FFF767FB28B14E
:1055C0000120D3E70023EB610420CFE7B28900215B
:1055D00006F13800FFF754F949463046FFF722FA42
:1055E0007063738998450BD20123F3703046FFF73F
:1055F0004DFBF8B908F10108736B01337363F0E7F1
:10560000736BA3EB08037363C5F8189049463046E3
:10561000FFF708FAE8619EE70420A7E70420A5E762
:105620000220A3E70120A1E707209FE702209DE7D2
:1056300001209BE7012099E7F8B504460E4607686C
:105640000021FFF768FE0246C0B9002508E00135D9
:10565000B54213D001212046FFF762FF024668B928
:10566000E1693846FFF73CFB024638B9236A1B78EC
:10567000E52BECD0002BEAD00025EBE7042A01D083
:105680001046F8BD0722FBE72DE9F04F83B007462F
:105690008A46D1F8009003681D690024234612E071
:1056A000013619F806302F2BFAD05C2BF8D04E4477
:1056B000CAF800601F2823D84FF0040824E025F81A
:1056C0001480013433465E1C19F803001F28EED9FC
:1056D0002F28E6D05C28E4D0FE2C00F2DF800121E8
:1056E00000F046FE8046002800F0DA807F28E6D8E9
:1056F00001466D48FFF7D6F80028E0D0062085E087
:105700004FF0000800E0013C44B104F10043013BCC
:1057100035F81330202BF6D02E2BF4D0002325F8AB
:105720001430002C00F0BE800B22202107F1240051
:10573000FFF7A6F8002300E0013335F81320202AF4
:10574000FAD02E2AF8D01BB148F0030800E0013C43
:105750006CB104F10042013A35F812202E2AF6D13C
:105760004FF0080B4FF0000ACDF804A00AE0A24663
:105770004FF0080B0022019204E04C450BD048F09A
:1057800003084B4603F1010935F81360FEB1202EE2
:10579000F5D02E2EF1D0DA4510D24C450ED07F2E0A
:1057A00044D8002E4FD148F003085F2607EB0A03C8
:1057B00083F824604B460AF1010AE3E7BBF10B0FC3
:1057C00027D04C4501D048F003084C4524D297F827
:1057D0002430E52B53D0BBF1080F54D0019B03F0CC
:1057E0000C020C2A03D003F00303032B01D148F071
:1057F000020818F0020F06D1019B03F00303012BEE
:1058000046D0042A47D087F82F80002003B0BDE897
:10581000F08F48F00308DAE7019B9B00DBB20193AD
:1058200023464FF00B0B4FF0080AABE70021304640
:1058300000F09EFD064618B1A0F180061B4B9E5D50
:1058400048F00208ADE731461948FFF72BF8002869
:10585000A9D1A6F141039BB2192B04D8019B43F0B7
:1058600002030193A2E7A6F161039BB2192B9DD815
:10587000019B43F001030193203EB6B296E7052356
:1058800087F82430A7E7019B9B00DBB20193A5E7D3
:1058900048F01008B5E748F00808B4E70620B5E777
:1058A0000620B3E70620B1E7047200085C72000826
:1058B000107200082DE9F04781460F4601F11A00E9
:1058C000FEF7B6FFC8BB3E7806F03F06013E06EB8A
:1058D000460306EB83064FF00108002506E0002092
:1058E0002CE04FF6FF7398422AD101350C2D18D8C1
:1058F000174B585D3844FEF79BFF0446B8F1000F84
:10590000EFD0FE2EEBD800F051FD804606F1010AE3
:1059100039F8160000F04AFD8045E0D1A046564611
:10592000E3E73B7813F0400F0CD0B8F1000F0BD039
:1059300039F8163053B9012000E00020BDE8F087A7
:105940000020FBE70120F9E70120F7E70020F5E759
:105950004C7200082DE9F8430446D0F8008000217D
:10596000FFF7D9FC0646002864D14FF0FF332363CC
:105970004FF0FF094F460AE04FF0FF332363FF2744
:1059800000212046FFF7CCFD0646002852D1E169F0
:105990004046FFF7A5F9064600284BD1256A2B782B
:1059A000002B46D0EA7A02F03F01A171E52BE3D04B
:1059B00012F0080F14D00F29DED194F82F2012F026
:1059C000400FDDD113F0400F06D095F80D9003F095
:1059D000BF03626922631F46BB421AD0FF27CFE78D
:1059E0000F29EAD027B92846FFF7F3F8484521D018
:1059F00094F82F3013F0010F06D10B2204F124018B
:105A00002846FEF742FFA8B14FF0FF332363FF277C
:105A1000B6E76B7B4B4501D0FF27B1E72946D8F8A5
:105A20001000FFF747FF10B1013FFFB2A8E7FF27C3
:105A3000A6E704263046BDE8F88330B583B00446B7
:105A40000191056801E001330193019B1A782F2A27
:105A5000F9D05C2AF7D00022A2601B781F2B21D935
:105A600001A92046FFF710FE034618BB2046FFF7AA
:105A700071FF94F82F200346F8B912F0040F19D1E2
:105A8000A37913F0100F1FD005F138016369AA89BB
:105A9000B3FBF2F002FB103319442846FEF7E1FF96
:105AA000A060DDE7802384F82F3011462046FFF701
:105AB00032FC0346184603B030BD0428FAD112F078
:105AC000040FF7D10523F5E70523F3E72DE9F043AC
:105AD00085B0066890F82F3013F0A00F40F08A8050
