:020000040800F2
:1000000000800120BD220008C5100008C7100008AC
:10001000C9100008CB100008CD1000080000000037
:10002000000000000000000000000000CF100008E9
:10003000D110000800000000D3100008D5100008FF
:100040000D2300080D2300080D2300080D230008D0
:100050000D2300080D2300080D2300080D230008C0
:100060000D2300080D2300080D2300080D230008B0
:100070000D2300080D2300080D2300080D230008A0
:100080000D2300080D2300080D23000800000000C8
:100090000000000000000000000000000D23000828
:1000A0000D2300080D2300080D2300080D23000870
:1000B0000D2300080D2300080D2300080D23000860
:1000C0000D2300080D2300080D2300080D23000850
:1000D0000D2300080D2300080D2300080000000078
:1000E0000D2300080D2300080D2300080000000068
:1000F0000000000000000000000000000D230008C8
:10010000000000000D2300080D2300080D23000847
:1001100000000000000000000000000000000000DF
:100120000D2300080D2300080D2300080D230008EF
:100130000D23000800000000000000000000000087
:100140000000000000000000000000000D23000877
:100150000D2300080D2300080D2300080D230008BF
:100160000D2300080D23000800000000000000001F
:10017000000000000000000000000000000000007F
:10018000000000000D230008000000000000000037
:040190000D23000833
:1001980070B54FF0FF0C4CF4E06C1CEA11541DBF15
:1001A8001CEA135594EA0C0F95EA0C0F00F0DEF8E0
:1001B8002C4481EA030621EA4C5123EA4C5350EAC5
:1001C800013518BF52EA033541F4801143F4801316
:1001D80038D0A0FB02CE4FF00005E1FB02E506F0A7
:1001E8000042E0FB03E54FF00006E1FB03569CF0FC
:1001F800000F18BF4EF0010EA4F1FF04B6F5007F02
:1002080064F5407404D25FEA4E0E6D4146EB060673
:1002180042EAC62141EA55514FEAC52040EA5E50FC
:100228004FEACE2EB4F1FD0C88BFBCF5E06F1ED8A6
:10023800BEF1004F08BF5FEA500E50F1000041EBDD
:10024800045170BD06F0004646EA010140EA02008A
:1002580081EA0301B4EB5C04C2BFD4EB0C0541EAAC
:10026800045170BD41F480114FF0000E013C00F3C1
:10027800AB8014F1360FDEBF002001F0004170BDE5
:10028800C4F10004203C35DA0C341BDC04F11404FE
:10029800C4F1200500FA05F320FA04F001FA05F28A
:1002A80040EA020001F0004221F0004110EBD37057
:1002B80021FA04F642EB06015EEA430E08BF20EA83
:1002C800D37070BDC4F10C04C4F1200500FA04F326
:1002D80020FA05F001FA04F240EA020001F00041B8
:1002E80010EBD37041F100015EEA430E08BF20EA2B
:1002F800D37070BDC4F1200500FA05F24EEA020E73
:1003080020FA04F301FA05F243EA020321FA04F0A1
:1003180001F0004121FA04F220EA020000EBD37058
:100328005EEA430E08BF20EAD37070BD94F0000F58
:100338000FD101F00046400041EB010111F4801F8C
:1003480008BF013CF7D041EA060195F0000F18BF3D
:10035800704703F00046520043EB030313F4801F79
:1003680008BF013DF7D043EA0603704794EA0C0F33
:100378000CEA135518BF95EA0C0F0CD050EA410649
:1003880018BF52EA4306D1D181EA030101F00041C6
:100398004FF0000070BD50EA410606BF10461946EE
:1003A80052EA430619D094EA0C0F02D150EA0136FA
:1003B80013D195EA0C0F05D152EA03361CBF10463B
:1003C80019460AD181EA030101F0004141F0FE41DA
:1003D80041F470014FF0000070BD41F0FE4141F45E
:1003E800780170BD81F0004102E000BF83F0004356
:1003F80030B54FEA41044FEA430594EA050F08BFB8
:1004080090EA020F1FBF54EA000C55EA020C7FEA7B
:10041800645C7FEA655C00F0E2804FEA5454D4EBF8
:100428005555B8BF6D420CDD2C4480EA020281EAC2
:10043800030382EA000083EA010180EA020281EAFA
:100448000303362D88BF30BD11F0004F4FEA01314C
:100458004FF4801C4CEA113102D0404261EB41015B
:1004680013F0004F4FEA03334CEA133302D05242E1
:1004780063EB430394EA050F00F0A780A4F101049D
:10048800D5F1200E0DDB02FA0EFC22FA05F28018D7
:1004980041F1000103FA0EF2801843FA05F35941BD
:1004A8000EE0A5F120050EF1200E012A03FA0EFC3C
:1004B80028BF4CF0020C43FA05F3C01851EBE37166
:1004C80001F0004507D54FF0000EDCF1000C7EEB83
:1004D80000006EEB0101B1F5801F1BD3B1F5001FC1
:1004E8000CD349085FEA30004FEA3C0C04F10104E0
:1004F8004FEA445212F5800F80F09A80BCF1004F09
:1005080008BF5FEA500C50F1000041EB045141EA8A
:10051800050130BD5FEA4C0C404141EB0101013C53
:1005280028BFB1F5801FE9D291F0000F04BF014642
:100538000020B1FA81F308BF2033A3F10B03B3F114
:1005480020020CDA0C3208DD02F1140CC2F10C02A4
:1005580001FA0CF021FA02F10CE002F11402D8BF02
:10056800C2F1200C01FA02F120FA0CFCDCBF41EACE
:100578000C019040E41AA2BF01EB0451294330BD9D
:100588006FEA04041F3C1CDA0C340EDC04F114047A
:10059800C4F1200220FA04F001FA02F340EA030051
:1005A80021FA04F345EA030130BDC4F10C04C4F197
:1005B800200220FA02F001FA04F340EA0300294677
:1005C80030BD21FA04F0294630BD94F0000F83F4C1
:1005D800801306BF81F480110134013D4EE77FEAA4
:1005E800645C18BF7FEA655C29D094EA050F08BFF0
:1005F80090EA020F05D054EA000C04BF19461046D1
:1006080030BD91EA030F1EBF0021002030BD5FEA14
:10061800545C05D14000494128BF41F0004130BD3C
:1006280014F580043CBF01F5801130BD01F0004590
:1006380045F0FE4141F470014FF0000030BD7FEA03
:10064800645C1ABF194610467FEA655C1CBF0B46FE
:10065800024650EA013406BF52EA033591EA030F15
:1006680041F4002130BD00BF90F0000F04BF00210D
:10067800704730B54FF4806404F132044FF0000540
:100688004FF0000150E700BF90F0000F04BF0021B9
:10069800704730B54FF4806404F1320410F000451F
:1006A80048BF40424FF000013EE700BF42004FEA1A
:1006B800E2014FEA31014FEA02701FBF12F07F4397
:1006C80093F07F4F81F06051704732F07F4208BF4E
:1006D800704793F07F4F04BF41F40021704730B555
:1006E8004FF4607401F0004521F000411CE700BFA1
:1006F80050EA010208BF704730B54FF000050AE024
:1007080050EA010208BF704730B511F0004502D524
:10071800404261EB41014FF4806404F132045FEA26
:10072800915C3FF4D8AE4FF003025FEADC0C18BFCF
:1007380003325FEADC0C18BF033202EBDC02C2F1C1
:10074800200300FA03FC20FA02F001FA03FE40EA53
:100758000E0021FA02F11444BDE600BF4FF0FF3C41
:1007680006E000BF4FF0010C02E000BF4FF0010CA3
:100778004DF804CD4FEA410C7FEA6C5C4FEA430C1C
:1007880018BF7FEA6C5C1BD001B050EA410C0CBF6B
:1007980052EA430C91EA030F02BF90EA020F0020CD
:1007A800704710F1000F91EA030F58BF994208BF34
:1007B80090422CBFD8176FEAE37040F001007047F1
:1007C8004FEA410C7FEA6C5C02D150EA013C07D148
:1007D8004FEA430C7FEA6C5CD6D152EA033CD3D093
:1007E8005DF8040B704700BF8446104662468C468D
:1007F8001946634600E000BF01B5FFF7B7FF0028C0
:1008080048BF10F1000F01BD4DF808EDFFF7F4FFE8
:100818000CBF012000205DF808FB00BF4DF808ED73
:10082800FFF7EAFF34BF012000205DF808FB00BF96
:100838004DF808EDFFF7E0FF94BF012000205DF8B8
:1008480008FB00BF4DF808EDFFF7CEFF94BF01206D
:1008580000205DF808FB00BF4DF808EDFFF7C4FF66
:1008680034BF012000205DF808FB00BF4FEA4102B9
:1008780012F5001215D211D56FF47873B3EB6252EA
:1008880012D94FEAC12343F0004343EA505311F011
:10089800004F23FA02F018BF404270474FF00000A3
:1008A800704750EA013005D111F0004008BF6FF0E1
:1008B800004070474FF00000704700BF53B94AB975
:1008C800002908BF00281CBF4FF0FF314FF0FF3050
:1008D80000F00CB8ADF1080C6DE904CE02F0CCFEC6
:1008E800DDF804E0DDE9022304B07047704700BF7B
:1008F80010B5054C237833B9044B13B10448AFF352
:1009080000800123237010BD0C00002000000000AF
:100918003C39000808B5034B1BB103490348AFF342
:10092800008008BD00000000100000203C390008CD
:100938002DE9F04180460F4600260024002500E0FE
:100948000136BE4228D245EC104B01F011FD51ECA6
:10095800100B13A3D3E90023FFF71AFCFFF786FF58
:1009680028F8160010A3D3E9002320462946FFF7EC
:100978003FFD04460D460EA3D3E90023FFF762FFAF
:100988000028DDD00AA3D3E9002320462946FFF733
:100998002DFD04460D46D3E7BDE8F081AFF3008096
:1009A80000000000C0FFDF40295EF138690CB03F4D
:1009B800182D4454FB2119402DE9F04107460E46F5
:1009C800904600250AE000222146284600F0B8FAA1
:1009D8000134E4B2312CF6D90135EDB215F0800FAF
:1009E80001D10024F6E74FEAD815002408E01B14CB
:1009F80003F119010122C9B2E0B200F0A1FA0134F1
:100A08007F2C0DD8EBB204FB03F336F913303222F6
:100A180002FB03F3002BEADA03F57F43FF33E6E733
:100A2800002513E001222146284600F089FA013406
:100A3800E4B2312C08D8002CF4D0312CF2D0002D9F
:100A4800F0D07F2DF3D1EDE70135EDB215F0800F31
:100A580001D10024EDE7384600F0A4F9BDE8F081A3
:100A68000023C0F8E8334FF0FF33C0F8F033C0F884
:100A7800EC33704710B50446D0F8E803312800DDA0
:100A880010BD00EB800004EB800001F069FCD4F895
:100A9800E8330133C4F8E833012BF1D10023C4F85B
:100AA800EC33EDE730B58BB0002405940694079439
:100AB800089409940194224B1A6B42F004021A63B9
:100AC8001A6B02F004020192019A02941A6B42F026
:100AD80080021A631A6B02F080020292029A03944F
:100AE8001A6B42F001021A631A6B02F001020392B8
:100AF800039A04941A6B42F002021A631B6B03F008
:100B080002030493049B0F4D22462021284600F03F
:100B18009FFC4FF4005305934FF404130693079476
:100B280005A9094800F0B0FB20230593012306938B
:100B38000794089405A9284600F0A6FB0BB030BD21
:100B480000380240000002400008024072B6FEE78A
:100B580008B50A480A4B03604FF4E13343600023A9
:100B68008360C36003610C2242618361C36101F049
:100B780071FB00B908BDFFF7E9FF00BF280000209E
:100B88000044004008B50A480A4B03600A4B43601A
:100B980000238360C3604FF4804202614361836134
:100BA800C361036200F0FEFD00B908BDFFF7CEFF88
:100BB8007000002000540040A086010000B595B0E8
:100BC8003022002108A801F09EFB00230393049320
:100BD80005930693079301931F4A116C41F08051C6
:100BE8001164126C02F080520192019A02931B491F
:100BF8000A6822F4404242F400420A600A6802F499
:100C080040420292029A0221089101220B9210227C
:100C18000C920E910F9310924FF4A8731193042322
:100C280012930723139308A800F04CFF80B90F23F1
:100C3800039302210491002305934FF480520692F6
:100C4800079303A801F0A8F920B915B05DF804FBD3
:100C5800FFF77CFFFFF77AFF003802400070004082
:100C6800B0B5ADF57E7D00AF00F064FAFFF7A6FFE2
:100C7800FFF718FFFFF76CFFFFF784FF2B4800F022
:100C8800BBF808B1FFF762FF4FF47A7000F07EFA04
:100C9800002000F077F8254C204600F083F84FF448
:100CA8007A7000F073FA381DFFF7DAFE2049381D14
:100CB800FFF7E0FE1F49381DFFF7DCFE1E49381D0F
:100CC800FFF7D8FE1D49381DFFF7D4FE1C49381D13
:100CD800FFF7D0FE1B49381DFFF7CCFE1A49381D17
:100CE800FFF7C8FE1949381DFFF7C4FE1849381D1B
:100CF800FFF7C0FE1749381DFFF7BCFE1649381D1F
:100D0800FFF7B8FE1549381DFFF7B4FEADF57A6D4B
:100D18006D464FF4FA612846FFF70AFE4FF4FA626F
:100D280029462046FFF748FEFEE700BF7000002076
:100D38005839000864390008703900087C390008FF
:100D48008839000894390008A0390008AC3900082F
:100D5800B8390008C4390008D0390008DC3900085F
:100D680000B587B08DF817100A2302930123019369
:100D78000DF1170200920022782100F0F1FD07B072
:100D88005DF804FB002303E0FF21054AD154013339
:100D9800B3F5806F03D20028F6D10146F5E7704716
:100DA800CC00002030B585B0054600241DE0A4F134
:100DB8005001C9B22846FFF7D3FF00212846FFF7A4
:100DC800CFFF10212846FFF7CBFF6423029380232F
:100DD8000193084B03EBC4130093012340227821AD
:100DE800284600F0BDFD0134E4B2072CDFD905B078
:100DF80030BD00BFCC00002038B50446642000F0A8
:100E0800C5F9AE212046FFF7ABFF05462021204655
:100E1800FFF7A6FF054410212046FFF7A1FF054470
:100E2800B0212046FFF79CFF0544C8212046FFF764
:100E380097FF054400212046FFF792FF0544102143
:100E48002046FFF78DFF054440212046FFF788FF25
:100E5800054481212046FFF783FF0544FF212046F2
:100E6800FFF77EFF0544A1212046FFF779FF0544DF
:100E7800A6212046FFF774FF0544A8212046FFF766
:100E88006FFF05443F212046FFF76AFF0544A42170
:100E98002046FFF765FF0544D3212046FFF760FF92
:100EA800054400212046FFF75BFF0544D521204675
:100EB800FFF756FF0544F0212046FFF751FF054490
:100EC800D9212046FFF74CFF054422212046FFF791
:100ED80047FF0544DA212046FFF742FF0544122167
:100EE8002046FFF73DFF0544DB212046FFF738FF8A
:100EF800054420212046FFF733FF05448D21204675
:100F0800FFF72EFF054414212046FFF729FF05446B
:100F1800AF212046FFF724FFE84201D0012038BD69
:100F28000020FFF72FFF2046FFF73CFF034B002070
:100F38001880588001225A71F1E700BFC4000020D0
:100F480010F0800F25D13F2923D810B4114B1B79FD
:100F580013B1B2FA82F25209012A0FD0CB0800EB82
:100F6800C3100D4C225C01F0070101238B40DB43C9
:100F78005BB2134023545DF8044B7047CB0800EB79
:100F8800C310054C235C01F007018A401343235426
:100F9800F1E77047C4000020CC00002000B583B002
:100FA800002100910C4B5A6C42F480425A645A6CEE
:100FB80002F480420092009A01911A6C42F0805229
:100FC8001A641B6C03F080530193019B072000F007
:100FD80025F903B05DF804FB0038024030B589B04C
:100FE8000023039304930593069307930268154B14
:100FF8009A4201D009B030BD00250195124C236BEF
:1010080043F002032363236B03F002030193019B64
:10101800C023039312230493012305930323069308
:101028000423079303A9094800F02EF90295236CBD
:1010380043F400132364236C03F400130293029B0C
:10104800D8E700BF005400400038024000040240C6
:1010580000B589B00023039304930593069307937F
:101068000268144B9A4202D009B05DF804FB0021D3
:10107800019103F5FA331A6C42F400321A641A6CBF
:1010880002F400320192019A02911A6B42F00102B5
:101098001A631B6B03F001030293029B0C23039357
:1010A800022304930723079303A9034800F0ECF8ED
:1010B800DAE700BF0044004000000240FEE7FEE718
:1010C800FEE7FEE7FEE770477047704708B500F097
:1010D8004BF808BD034AD2F8883043F47003C2F8CD
:1010E8008830704700ED00E010B504460E4B1A78C2
:1010F8004FF47A73B3FBF2F30C4A1068B0FBF3F0C9
:1011080000F0AEF868B90F2C01D901200AE00022DE
:1011180021464FF0FF3000F093F8054B1C6000208B
:1011280000E0012010BD00BF0400002000000020E6
:101138000800002008B50B4B1A6842F400721A60C8
:101148001A6842F480621A601A6842F480721A605F
:10115800032000F063F80020FFF7C6FFFFF71EFF2B
:10116800002008BD003C0240034A1168034B1B786D
:101178000B441360704700BFCC040020040000201B
:10118800014B1868704700BFCC04002038B50446EE
:10119800FFF7F6FF0546B4F1FF3F02D0044B1B787A
:1011A8001C44FFF7EDFF401BA042FAD338BD00BF37
:1011B80004000020002808DB0901C9B200F16040E2
:1011C80000F5614080F80013704700F00F00090136
:1011D800C9B2014B1954704714ED00E000B500F096
:1011E8000700C0F1070CBCF1040F28BF4FF0040C36
:1011F800031D062B0FD9C31E4FF0FF3E0EFA0CF04D
:1012080021EA000199400EFA03FE22EA0E0241EAA1
:1012180002005DF804FB0023EEE70000074AD368EC
:1012280023F4E0631B041B0C000200F4E06003439A
:1012380043F0BF6343F40033D360704700ED00E030
:1012480010B50446054BD868C0F30220FFF7C6FF67
:1012580001462046FFF7AEFF10BD00BF00ED00E0DD
:101268000138B0F1807F0BD24FF0E0235861054A76
:10127800F02182F823100020986107221A61704734
:101288000120704700ED00E000230F2B00F2D7800B
:1012980070B582B065E085684FEA430E032404FA0E
:1012A8000EF425EA0405CC6804FA0EF42C43846095
:1012B800446824EA02044A68C2F300129A402243AE
:1012C80042605CE0DC08083450F8242003F007058D
:1012D800AD004FF00F0E0EFA05FE22EA0E0E0A6957
:1012E800AA4042EA0E0240F824205CE0042200E012
:1012F800002202FA0EF22A430234514D45F8242006
:10130800504A94686FEA0C0224EA0C054E6816F4F9
:10131800801F01D04CEA04054A4CA560E46802EA43
:1013280004054E6816F4001F01D04CEA0405454C2C
:10133800E560646802EA04054E6816F4003F01D0CF
:101348004CEA04053F4C6560246822404D6815F45A
:10135800803F01D04CEA04023A4C226001330F2B43
:101368006BD801229A400C6804EA020C32EA0404A1
:10137800F4D14C6804F00304013C012C8BD94A6871
:1013880002F00302032A09D0C4685D000322AA40C0
:1013980024EA02048A68AA402243C2604A6802F02A
:1013A8000302022A8ED004684FEA430E032202FA8F
:1013B8000EF224EA02044A6802F0030202FA0EF26C
:1013C800224302604A6812F4403FC7D000220192CB
:1013D8001D4A546C44F480445464526C02F48042B4
:1013E8000192019A9C08A51C154A52F8255003F051
:1013F800030E4FEA8E0E0F2202FA0EF225EA0205BC
:10140800124A90423FF474AF02F5806290420ED0C7
:1014180002F5806290420CD002F5806290420AD0B8
:1014280002F5806290423FF461AF072261E7012232
:101438005FE702225DE703225BE702B070BD7047F9
:1014480000380140003C01400038024000000240E2
:101458000AB18161704709048161704703685A695C
:1014680012F4806F01D1002070476FF480625A61D6
:1014780000230363202280F83D2080F83E30026C70
:1014880042F00402026480F83C30012070472DE9E4
:10149800F04106460C46174698463BE0FFF770FEBB
:1014A800069BC01A404502D8B8F1000F32D1012D71
:1014B80018D033689B6924EA03039BB2B3FA83F319
:1014C8005B099F4226D100233363202286F83D2002
:1014D80086F83E30326C42F02002326486F83C30A6
:1014E800012027E033685B6924EA03039BB2B3FA5F
:1014F80083F35B09E5E733685B6924EA030C1FFAA9
:101508008CFCBCFA8CFC4FEA5C1C674511D1B8F125
:10151800FF3FC3D1C4F30745012DECD033689B6965
:1015280024EA030C1FFA8CFCBCFA8CFC4FEA5C1C06
:10153800EBE70020BDE8F0812DE9F84305460E46AB
:101548009046994653E01A6842F400721A602B6874
:101558006FF480625A6100232B63202285F83D20B6
:1015680085F83E302A6C42F004022A6485F83C3043
:1015780001204AE0FFF704FEA0EB0900404502D82D
:10158800B8F1000F33D1012F17D02B689B6926EAD9
:1015980003039BB2003B18BF012343B300232B6313
:1015A800202285F83D2085F83E302A6C42F0200242
:1015B8002A6485F83C30012027E02B685B6926EA1D
:1015C80003039BB2003B18BF0123E6E72B689C6925
:1015D80026EA0404A4B2003C18BF0124A4B12B6875
:1015E8005A6912F4806FAED1B8F1FF3FC2D1C6F389
:1015F8000747012FEAD12B685C6926EA0404A4B2E4
:10160800003C18BF0124E9E70020BDE8F88370B565
:1016180004460D46164623685B6913F0800F21D1F6
:101628002046FFF71BFFF8B9B5F1FF3FF3D0FFF7EE
:10163800A7FD801BA84201D8002DECD123685B6967
:1016480013F0800FE7D100232363202284F83D2084
:1016580084F83E30226C42F02002226484F83C3048
:10166800012000E0002070BD0120FCE72DE9F043D7
:1016780085B004460D4691461F46DDF830800D9E24
:101688000368196841F48071196000964346002286
:101698004FF00111FFF7FBFE60B9236805F0FE0566
:1016A8001D613346424626492046FFF745FF68B18B
:1016B800012008E023681B6813F4807F02D04FF4F0
:1016C80000732364032005B0BDE8F083002303936F
:1016D80023685A6903929B690393039B32464146E8
:1016E8002046FFF794FF30B9012F0FD123685FFA26
:1016F80089F61E61E7E7236C042B01D00120E2E79D
:101708002268136843F400731360F7E723684FEA0D
:1017180019221A61324641462046FFF778FF20B960
:1017280023685FFA89F61E61CDE7236C042B01D08C
:101738000120C8E72268136843F400731360F7E7D1
:101748000200010070B504460D46164623685B6921
:1017580013F0040F21D12046FFF780FEF8B9B5F148
:10176800FF3FF3D0FFF70CFD801BA84201D8002DE6
:10177800ECD123685B6913F0040FE7D100232363DE
:10178800202284F83D2084F83E30226C42F020026A
:10179800226484F83C30012000E0002070BD012064
:1017A800FCE70000002800F0CC8070B5044690F8F3
:1017B8003D30002B77D0242384F83D30226813680D
:1017C80023F0010313602268136843F40043136095
:1017D8002268136823F40043136000F093FC6268E6
:1017E8005A4B9A4264D85A4B98428CBF0023012323
:1017F800002B40F0A8805749A1FB00318B0C2568CD
:101808006A6822F03F0242EA91426A6021680A6AE5
:1018180022F03F0266684D4DAE424FD80133134364
:101828000B622168CA6922F44F4222F0FF02656800
:10183800464B9D424CD8431E6D00B3FBF5F3013374
:1018480040F6FC70034278D0C3F30B031A43CA6115
:1018580021680B6823F0C003E269206A024313433E
:101868000B6021688B6823F4034323F0FF0322698C
:10187800E068024313438B602168CB6823F0FF03C1
:101888006269A06902431343CB602268136843F07E
:101898000103136000202064202384F83D30206376
:1018A80084F83E0070BD80F83C30FFF797FB82E774
:1018B800294B98428CBF0023012399E74FF4967572
:1018C80005FB03F3254DA5FB03539B090133A6E74D
:1018D800A668BEB9431E05EB450CB3FBFCF3013308
:1018E800C3F30B03B3FA83F35B0943BBC6B9431EC7
:1018F80005EB4505B3FBF5F30133C3F30B0343F4E1
:101908000043A3E7431E05EB850C0CEB8C0CB3FBE3
:10191800FCF30133C3F30B03B3FA83F35B09E4E786
:10192800431E05EB850505EB8505B3FBF5F3013390
:10193800C3F30B0343F4404388E7042386E70123FA
:1019480084E7012070470120ACE700BFA0860100B2
:101958007F841E0083DE1B43FF083D00D34D6210C9
:101968002DE9F04383B004460F46904699460C9EF5
:10197800FFF706FC054694F83D00C0B2202803D0C6
:10198800022003B0BDE8F0830095192301224B49DA
:101998002046FFF77CFD002840F0898094F83C3011
:1019A800012B00F08680012384F83C3023681A68F4
:1019B80012F0010F03D11A6842F001021A6022687E
:1019C800136823F400631360212384F83D30402317
:1019D80084F83E30002323640A9B6362BDF82C30F0
:1019E8006385638D2385364BE362019500964B46EC
:1019F800424639462046FFF739FE00285BD1238D41
:101A0800002B35D02A4631462046FFF700FE20BB82
:101A1800626A236812781A61626A531C6362218DB4
:101A2800013989B22185638D9BB2013B9BB26385E5
:101A38002368586910F0040FE1D00029DFD05278EC
:101A48001A61636A01336362238D013B2385638DC9
:101A58009BB2013B9BB26385D1E7236C042B01D079
:101A680001208EE72268136843F400731360F7E7D8
:101A78002A4631462046FFF765FE50B1236C042BF9
:101A880001D001207DE72268136843F400731360D6
:101A9800F7E72268136843F400731360202384F87F
:101AA8003D30002384F83E3084F83C3069E702205A
:101AB80067E7022065E7012063E700BF0200100026
:101AC8000000FFFF002800F0E08170B582B00446F6
:101AD800036813F0010F3BD09F4B9B6803F00C0386
:101AE800042B2CD09C4B9B6803F00C03082B21D0B3
:101AF8006368B3F5803F4FD0B3F5A02F52D0964B13
:101B08001A6822F480321A601A6822F480221A6055
:101B18006368002B50D0FFF733FB05468E4B1B68DC
:101B280013F4003F14D1FFF72BFB401B6428F5D9B1
:101B38000320B1E1884B5B6813F4800FD8D0864B43
:101B48001B6813F4003F03D06368002B00F09F81EB
:101B5800236813F0020F54D07F4B9B6813F00C0FCF
:101B68003ED07D4B9B6803F00C03082B33D0E36811
:101B7800002B68D0794B01221A60FFF701FB05465C
:101B8800754B1B6813F0020F54D1FFF7F9FA401B8D
:101B98000228F5D903207FE16F4A136843F48033A4
:101BA8001360B5E76C4B1A6842F480221A601A6811
:101BB80042F480321A60ABE7FFF7E2FA0546664B5B
:101BC8001B6813F4003FC3D0FFF7DAFA401B642800
:101BD800F5D9032060E1604B5B6813F4800FC6D130
:101BE8005D4B1B6813F0020F03D0E368012B40F034
:101BF8005081594A136823F0F803216943EAC10365
:101C08001360236813F0080F42D063696BB3534B1A
:101C18000122C3F8802EFFF7B3FA05464E4B5B6FDF
:101C280013F0020F34D1FFF7ABFA401B0228F5D9A5
:101C3800032031E1484A136823F0F803216943EA95
:101C4800C1031360DDE7454B00221A60FFF798FADD
:101C58000546414B1B6813F0020FD2D0FFF790FAEC
:101C6800401B0228F5D9032016E13C4B0022C3F89B
:101C7800802EFFF785FA0546374B5B6F13F0020F8E
:101C880006D0FFF77DFA401B0228F5D9032003E1AF
:101C9800236813F0040F77D02F4B1B6C13F0805F71
:101CA80033D1002301932C4B1A6C42F080521A64F2
:101CB8001B6C03F080530193019B0125284B1B6883
:101CC80013F4807F23D0A368012B34D0052B38D0A0
:101CD800214B1A6F22F001021A671A6F22F00402D0
:101CE8001A67A368002B3DD0FFF74AFA06461A4B3D
:101CF8001B6F13F0020F46D1FFF742FA801B41F227
:101D080088339842F3D90320C6E00025D6E7144A61
:101D1800136843F480731360FFF732FA0646104BDA
:101D28001B6813F4807FCED1FFF72AFA801B0228A4
:101D3800F5D90320B0E0084A136F43F00103136795
:101D4800CFE7054B1A6F42F004021A671A6F42F088
:101D580001021A67C5E700BF003802400000474289
:101D680000700040FFF70CFA0646524B1B6F13F049
:101D7800020F08D0FFF704FA801B41F2883398421B
:101D8800F3D9032088E0EDB9A369002B00F0838024
:101D9800484A926802F00C02082A51D0022B17D048
:101DA800454B00221A66FFF7EBF90446414B1B68C6
:101DB80013F0007F42D0FFF7E3F9001B0228F5D9A2
:101DC800032069E03B4A136C23F080531364DBE77C
:101DD800394B00221A66FFF7D3F90546354B1B68C5
:101DE80013F0007F06D0FFF7CBF9401B0228F5D986
:101DF800032051E0E369226A1343626A43EA8213CB
:101E0800A26A5208013A43EA0243E26A43EA0263D9
:101E1800284A5360284B01221A66FFF7B1F9044695
:101E2800244B1B6813F0007F06D1FFF7A9F9001BAC
:101E38000228F5D903202FE000202DE000202BE018
:101E4800012B2BD01B4B5B6803F48001E2699142A4
:101E580026D103F03F02216A8A4223D1616A47F6FC
:101E6800C0721A40B2EB811F1ED103F44031A26A3E
:101E78005208013AB1EB024F18D103F07063E26ADD
:101E8800B3EB026F14D1002006E001207047012057
:101E980002E0012000E0002002B070BD0120FBE755
:101EA8000120F9E70120F7E70120F5E70120F3E732
:101EB8000120F1E7003802400000474208B5334BE3
:101EC8009B6803F00C03042B5BD0082B5BD12F4BD2
:101ED8005A6802F03F025B6813F4800F2CD02B4B3A
:101EE8005868C0F388104FEA401CBCEB000C6EEB3E
:101EF8000E0E4FEA8E1343EA9C634FEA8C11B1EB46
:101F08000C0163EB0E03DB0043EA5173C90011EBCC
:101F1800000C43F10003590200234FEA4C2041EA28
:101F2800DC51FEF7CBFC194B5B68C3F3014301336B
:101F38005B00B0FBF3F008BD144B5868C0F3881081
:101F48004FEA401CBCEB000C6EEB0E0E4FEA8E13F2
:101F580043EA9C634FEA8C11B1EB0C0163EB0E036F
:101F6800DB0043EA5173C90011EB000C43F1000395
:101F7800990200234FEA8C2041EA9C51FEF79EFC0F
:101F8800D1E70348D7E70348D5E700BF0038024048
:101F980000127A000024F400002800F09B8070B53D
:101FA8000D4604464F4B1B6803F007038B4208D2CB
:101FB800CBB24C4A1370136803F007038B4240F00E
:101FC8008B80236813F0020F17D013F0040F04D08E
:101FD800454A936843F4E0539360236813F0080F6D
:101FE80004D0414A936843F4604393603E4A93683F
:101FF80023F0F003A1680B439360236813F0010FEB
:1020080032D06368012B21D09A1E012A25D9364A7D
:10201800126812F0020F61D033498A6822F0030275
:1020280013438B60FFF7ACF806462F4B9B6803F011
:102038000C036268B3EB820F16D0FFF7A1F8801B80
:1020480041F288339842F0D9032042E0264A1268C8
:1020580012F4003FE0D101203BE0234A126812F05D
:10206800007FD9D1012034E01E4B1B6803F0070321
:10207800AB4207D9EAB21B4B1A701B6803F007037F
:10208800AB422DD1236813F0040F06D0164A93688B
:1020980023F4E053E1680B439360236813F0080FBF
:1020A80007D0114A936823F46043216943EAC103C6
:1020B8009360FFF703FF0C4B9B68C3F303130B4AB2
:1020C800D35CD8400A4B18600A4B1868FFF70CF825
:1020D800002070BD012070470120FAE70120F8E7D1
:1020E8000120F6E7003C024000380240F0390008C1
:1020F8000000002008000020014B1868704700BF4E
:102108000000002008B5FFF7F7FF044B9B68C3F3F6
:102118008223034AD35CD84008BD00BF0038024080
:10212800E839000808B5FFF7E7FF044B9B68C3F3DD
:102138004233034AD35CD84008BD00BF0038024090
:10214800E839000810B504460268136923F44053BF
:10215800C1680B431361836802691A4343691A43D0
:10216800C3691A430168CB6823F4164323F00C03B0
:102178001343CB600268536923F4407381690B43AE
:1021880053610368314A934206D002F58062934254
:1021980002D0FFF7B7FF01E0FFF7C4FFE369B3F52B
:1021A800004F29D00021031849411B1841F10001B3
:1021B800C90041EA5371DB00181863684FEA8302CB
:1021C8004FEA937341F10001FEF778FB204AA2FB26
:1021D80000314909642303FB11031B013233A2FBBD
:1021E80003235B0903F0F00202EB011203F00F0373
:1021F800216813448B6010BD0023021843EB0301D0
:10220800121841F10001C90041EA5271D2001018B8
:1022180041F10001626892185B41FEF74FFB0C4ADE
:10222800A2FB00314909642303FB1103DB003233AD
:10223800A2FB03235B095A0002F4F87202EB0112B5
:1022480003F00703216813448B60D4E700100140B2
:102258001F85EB5160B310B5044690F8413013B3B5
:10226800242384F841302268D36823F40053D360D0
:102278002046FFF767FF2268136923F49043136130
:102288002268536923F02A0353612268D36843F410
:102298000053D36000206064202384F8413084F820
:1022A8004230606310BD80F84030FEF7D1FED7E7BA
:1022B80001207047DFF834D0FEF70CFF0C480D49B9
:1022C8000D4A002302E0D458C4500433C4188C4289
:1022D800F9D30A4A0A4C002301E013600432A242EF
:1022E800FBD300F019F8FEF7BBFC70470080012013
:1022F800000000200C000020E83B00080C00002033
:10230800D0040020FEE702440346934200D1704700
:1023180003F8011BF9E7000070B50D4D0D4C641B67
:10232800A4100026A64209D10B4D0C4C01F002FB6B
:10233800641BA4100026A64205D170BD55F8043BC5
:1023480098470136EEE755F8043B98470136F2E71F
:10235800E03B0008E03B0008E03B0008E43B0008E5
:10236800034611F8012B03F8012B002AF9D1704715
:1023780051EC100B204A21F0004393421FD900B5BD
:102388001E4A934285B008D902460B46FEF72EF83E
:1023980041EC100B05B05DF804FB684600F028FA24
:1023A80000F0030001289DED021B9DED000B17D0E6
:1023B800022809D0B8B9012000F05AF9EAE79FEDE0
:1023C8000C1B002000F054B9012000F051F953EC27
:1023D800102B03F1004300EE903A05B05DF804FBC2
:1023E80000F00EF8D6E700F00BF8F0E7AFF3008046
:1023F8000000000000000000FB21E93FFFFFEF7F25
:102408002DE9F04F57EC106B27F00048B8F1795FD1
:102418005BEC11AB85B071D230463946FEF726FA2F
:10242800002800F0F48032463B4630463946FDF736
:10243800AFFE79A3D3E9002304460D46FDF7A8FEB5
:1024480077A3D3E90023FDF7D3FF22462B46FDF7F8
:102458009FFE75A3D3E90023FDF7C8FF22462B464C
:10246800FDF796FE72A3D3E90023FDF7C1FF2246CC
:102478002B46FDF78DFE70A3D3E90023FDF7B6FFC9
:1024880022462B46FDF784FE6DA3D3E90023FDF712
:10249800AFFF22462B46FDF77BFECDE900016E4BD0
:1024A800002220462946FDF773FEDDE90023804619
:1024B800894620462946FDF76BFE44464D46804630
:1024C800894652465B4630463946FDF761FE02466C
:1024D8000B4640464946FDF789FF02460B46204613
:1024E8002946FDF783FF02460B4600205B49FDF7AE
:1024F8007DFF41EC100B05B0BDE8F08F32463B463E
:1025080030463946FDF744FE43A3D3E90023044689
:102518000D46FDF73DFE42A3D3E90023FDF768FF12
:1025280022462B46FDF734FE3FA3D3E90023FDF7EF
:102538005DFF22462B46FDF72BFE3DA3D3E9002382
:10254800FDF756FF22462B46FDF722FE3AA3D3E9B4
:102558000023FDF74BFF22462B46FDF719FE38A353
:10256800D3E90023FDF744FF2B462246FDF710FE72
:102578003B4B9845CDE9000191D93A4B98453DD858
:10258800A8F5001300223549002090469946FDF72A
:102598002DFFCDE90201304B002220462946FDF7E8
:1025A800F7FD42464B46FDF721FFDDE90023804653
:1025B800894620462946FDF7EBFD44464D468046B0
:1025C800894652465B4630463946FDF7E1FD0246EC
:1025D8000B4640464946FDF709FF02460B46204692
:1025E8002946FDF703FF02460B46DDE90201FDF728
:1025F800FDFE41EC100B05B0BDE8F08F9FED127B9E
:10260800DFF864908DED027B4FF00008C3E79FED83
:10261800100B05B0BDE8F08FD43888BEE9FAA8BD24
:10262800C4B1B4BD9EEE213EAD529C804F7E923E19
:102638009015CB19A001FA3E7751C1166CC1563FCF
:102648004C5555555555A53F000000000000E73F83
:10265800000000000000F03F0000E03F0000F03FF5
:102668003233D33F0000E93F0000D23F00000000B2
:102678002DE9F04F55EC104B25F0004385B0B3F130
:10268800795F8DED001B804606D220462946FEF76D
:10269800EDF8002800F08A8022462B46204629467D
:1026A800FDF776FD06460F4632463B46204629464C
:1026B800FDF76EFD43A3D3E9002382468B463046DF
:1026C8003946FDF765FD41A3D3E90023FDF78EFEEA
:1026D80032463B46FDF75CFD3EA3D3E90023FDF7F8
:1026E80087FE32463B46FDF753FD3CA3D3E9002362
:1026F800FDF77CFE32463B46FDF74AFD39A3D3E998
:102708000023FDF775FECDE90201B8F1000F35D0C1
:10271800DDE900012A4B0022FDF73AFDDDE902233D
:102728008046894650465946FDF732FD02460B461B
:1027380040464946FDF75AFE32463B46FDF728FD1E
:10274800DDE90023FDF752FE1BA3D3E9002306466B
:102758000F4650465946FDF71BFD02460B463046CC
:102768003946FDF745FE02460B4620462946FDF749
:102778003DFE41EC100B05B0BDE8F08F02460B465C
:1027880030463946FDF704FD0BA3D3E90023FDF7D6
:102798002DFE52465B46FDF7FBFC22462B46FDF715
:1027A80027FE41EC100B05B0BDE8F08F45EC104B4F
:1027B80005B0BDE8F08F00BF495555555555C53F83
:1027C8000000E03F7CD5CF5A3AD9E53DEB9C2B8AF7
:1027D800E6E55A3E7DFEB157E31DC73ED561C119F6
:1027E800A0012A3FA6F810111111813F0000000036
:1027F8002DE9F04F53EC102B874923F000458D420B
:1028080091B0044640F28E8084498D421E462AD8F3
:10281800002E1046194676A3D3E9002340F3A88179
:10282800FDF7E4FD7E4B9D4206460F4600F08B8087
:1028380071A3D3E90023FDF7D9FD804689464246B6
:102848004B4630463946FDF7D1FD6BA3D3E900234B
:10285800FDF7CCFDC4E90089C4E902010127384627
:1028680011B0BDE8F08F6F498D4240F286806E4905
:102878008D425FD84FEA255AAAF2164AA5EB0A51AB
:10288800104690468946FDF7F1FFFDF7FDFE02462A
:102898000B4640464946CDE90A23FDF7A7FD634BA1
:1028A8000022FDF775FC89468046FDF7DFFFFDF73E
:1028B800EBFE02460B4640464946CDE90C23FDF7A0
:1028C80095FD5A4B0022FDF763FCCDE90E0110AFD0
:1028D80003254FF000084FF0000977E9020142464E
:1028E8004B46AB46013DFDF78FFF0028F5D1504B15
:1028F80001930223009352465B4621460AA800F042
:1029080093F9002E0746AADA6168226801F10043AC
:10291800E168C4E90023A26801F10043C4E9022385
:1029280047429CE70020002184ED000BC4E9020126
:10293800002794E710461946FDF758FDC4E902013F
:10294800C4E90001F4E72EA3D3E90023FDF74EFD07
:102958002DA3D3E9002306460F46FDF747FD804621
:10296800894642464B4630463946FDF73FFD26A389
:10297800D3E90023FDF73AFD6CE700F04BF959EC79
:10298800108B23A3D3E9002340464946FDF700FCFA
:10299800284B0022FDF72CFDFDF768FF0746FDF7E1
:1029A80073FE02460B46CDE9042311A3D3E90023A5
:1029B800FDF7EEFB02460B4640464946FDF716FD7D
:1029C8000DA3D3E9002382468B46DDE90401FDF718
:1029D800DFFB1F2FCDE9020130DC174B7A1E53F8BD
:1029E8002230AB422AD002460B469DE0AFF300806E
:1029F80000004054FB21F93F3163621A61B4D03DB5
:102A08000000601A61B4D03D7370032E8A19A33B8D
:102A180083C8C96D305FE43FFB21E93F7BD90240A1
:102A2800FB21F93FFB213941FFFFEF7F0000704197
:102A3800803A00080000E03F003A0008DDE9022380
:102A480050465946FDF7D2FC2B150793C1F30A539C
:102A5800C3EB1553102B804689466BDD64A3D3E97D
:102A68000023DDE90401FDF793FB804689464246D1
:102A78004B4650465946FDF7B9FC02460B465046B0
:102A88005946CDE9082392469B46FDF7AFFC4246DE
:102A98004B46FDF7ABFC58A3D3E900238046894693
:102AA800DDE90401FDF774FB42464B46FDF79EFC49
:102AB80002460B4650465946CDE90223FDF796FCDF
:102AC800079AC1F30A53D31A312B804689464CDD45
:102AD8004CA3D3E90023DDE90401FDF759FB804647
:102AE800894642464B4650465946FDF77FFC82468A
:102AF8008B4652465B46DDE90801FDF777FC424606
:102B08004B46FDF773FC41A3D3E900238046894671
:102B1800DDE90401FDF73CFB42464B46FDF766FC48
:102B280002460B46CDE9022350465946FDF75EFCA6
:102B38008046894642464B46C4E900895046594674
:102B4800FDF754FCDDE90223FDF750FC002EC4E933
:102B58000201BFF684AE09F10043C4E9008301F124
:102B68000043C4E902037F4279E6DDE908ABE1E707
:102B7800FDF73EFC224B9D4206460F4618D01AA38D
:102B8800D3E90023FDF734FC8046894642464B468C
:102B980030463946FDF72AFC13A3D3E90023FDF795
:102BA80027FCC4E90089C4E902014FF0FF3756E663
:102BB8000FA3D3E90023FDF71BFC0FA3D3E90023E0
:102BC80006460F46FDF714FC8046894642464B46AA
:102BD80030463946FDF70AFC07A3D3E90023FDF781
:102BE80007FCDEE7AFF300803163621A61B4D03DC1
:102BF8000000601A61B4D03D7370032E8A19A33B9C
:102C0800FB21F93F0000002E8A19A33BC14920256A
:102C18009A837B3951EC100B024621F0004343ECB8
:102C2800102B7047000000002DE9F04FADF5197D1D
:102C38009C460B91BD4BA299049053F82130059303
:102C480012F1140F0CF1FF330393C0F2AD82B849AF
:102C5800D31E81FB0301DB17C3EBA10308930133E8
:102C6800A3EB8303DB00D618089A039BD41A059AB2
:102C7800D7181DD40137DDF88CA2274420AD4FF0BA
:102C880000084FF00009E34608E05AF82400FDF771
:102C9800FBFC0134BC42E5E8020108D0002CF4DA60
:102CA800013440464946BC42E5E80201F6D1DC461B
:102CB800059B002BB8BF4FEACC0738DB20AB03EBF2
:102CC800CC0A059BDDF80C90029663444FEACC07CA
:102CD8000093049BCDE906C70DF5E07B03EBCC0818
:102CE8004B46D9469B46039B002BC0F2A281049E0B
:102CF80057460024002577E90223F6E80201FDF78C
:102D080047FA02460B4620462946FDF771FB464521
:102D180004460D46EFD1009B0BF1010B9B45E9E8FA
:102D280002450AF1080ADED1DDE906C7029E049BC6
:102D3800059A009203EB070B0CAB03EB8203043BF1
:102D480009930CAB03EB8207CDF828C0009A98AB27
:102D580003EBC203002A53E928454FEAC2082CDDD9
:102D68000DF5E07AD0440DF1300902960697714BC3
:102D7800002220462946FDF70BFAFDF777FDFDF7FF
:102D880083FC6D4B002206460F46FDF701FA02460A
:102D98000B4620462946FDF729FBFDF767FD78E934
:102DA800022349F8040B39463046FDF721FBD0458C
:102DB80004460D46DBD1029E069F45EC104B30467B
:102DC80000F04AFB55EC104B00224FF07F53204691
:102DD8002946FDF7DDF941EC100B00F0C9FB574B14
:102DE80051EC100B0022FDF7D3F902460B462046A2
:102DF8002946FDF7FBFA0D460446FDF737FD8246E6
:102E0800FDF742FC02460B4620462946FDF7EEFA3E
:102E1800002E8046894640F39380009B0CAA581EDA
:102E2800C6F1180352F8202042FA03F404FA03F317
:102E3800D21AC6F117010CAB42FA01F5002D43F87E
:102E48002020A24400F3DC800022002340464946AB
:102E5800FDF7DAFC002800F05782009B059A9342A0
:102E68000CDD0CAA02EB8303002253F8041DBB42BD
:102E780042EA0102F9D1002A40F0DE80059B0CAA43
:102E8800013B52F82330002B40F0CE80099A0123F1
:102E980052F8041D01330029FAD0009A1344013274
:102EA800914600990A9802930144089802EB000A97
:102EB8000AF1804AA3980AF1FF3A00EB8A0A20A88F
:102EC80000EBC108CDE9066770A901EBC2020092C8
:102ED8005AF8040FFDF7D8FB039B002BE8E8020122
:102EE80020DB049E47460024002577E90223F6E804
:102EF8000201FDF74DF902460B4620462946FDF72B
:102F080077FA5E4504460D46EFD1009BE3E802459B
:102F18000093029B09F101099945D9DDDDE90667AE
:102F2800009313E700240025EFE700BFC83B000823
:102F3800ABAAAA2A0000703E0000704100002040A1
:102F480055D1009B0CAA013B52F82350ED15002DDA
:102F58007FF77AAF009B002B0AF1010A40F3438206
:102F68000CAB002253F8044B002C3BD0C4F1807406
:102F780043F8044C6FF07F40009C03E01968411A45
:102F880043F8041B01329442F8DC0124002E0DDDC5
:102F9800012E3ED0022E09D1009B5A1E0CAB0CA963
:102FA80053F82230C3F3150341F82230022D7FF481
:102FB8004BAF42464B4694490020FDF717FA80462E
:102FC8008946002C3FF440AF30469FED8D0B00F052
:102FD80043FA4046494653EC102BFDF707FA804662
:102FE800894631E7009901329142BBDCCEE7874B35
:102FF8000022FDF727FC002840F0C480054623E79F
:10300800009B002B0AF1010AD8BF0024A8DC012E7E
:10301800C0D1009B5A1E0CAB0CA953F82230C3F345
:10302800160341F82230C1E7009B5A1C914613460B
:1030380037E7002400256EE6009A0CAB541ECDE954
:10304800035A53F82430183E5BB902F18043013B20
:103058000CAA02EB830353F8042D013C183E002A06
:10306800F9D030469FED660B00F0F6F9002C57ECCE
:10307800106BC0F2C48104F1010A0CAB03EB8A05A2
:103088004FEACA0270ABDFF8889103EBCA0A4FF027
:103098000008934655F8040DFDF7F6FA32463B460C
:1030A800FDF776F84B466AE9020142463046394652
:1030B800FDF76EF80CAB9D4206460F46EAD1ABF120
:1030C800080370A95A4601EB030A0DF590784FF0F2
:1030D8000009CDE9064243465246A346CA46DDF8F2
:1030E8001490CDF81480B9F1000FC0F28380DFF896
:1030F800248100931746002600240025029201E04F
:10310800564510DCF7E80223F8E80201FDF740F81D
:1031180002460B4620462946FDF76AF90136B145B5
:1031280004460D46ECDA009B029A0BF1FF3BBBF11B
:10313800FF3FE3E802450AF1010AA2F10802D2D1F1
:10314800A29BDDF81480022BDDE9064264DC002B2B
:103158002FDC10D108EB02040020002174E90223BF
:10316800FDF746F94445F9D1039B002B40F0378120
:103178000B9BC3E90001049B03F007000DF5197DC3
:10318800BDE8F08F009B002B0AF1010AC8BF022599
:103198003FF7E6AE42464B461B490020FDF726F9AD
:1031A8000225804689464FE600216FF017030891F3
:1031B80059E508EB02050026002775E90223304689
:1031C8003946FDF715F9454506460F46F5D13B4604
:1031D800D5E900013246FDF709F9039B002B00F001
:1031E800E2800B9D07F10043C5E90063002C40F025
:1031F800DE80E7E00024002597E700BFAFF30080FA
:10320800000000000000F03F0000F03F0000E03F39
:103218000000703E883B0008A29B032BABD1002C1A
:1032280000F0FD8008EBC4054FEAC40AD5E9006741
:10323800CDE905A50095A946029479E902453046ED
:10324800394622462B46FDF7D3F8B246BB4606461A
:103258000F4632463B4620462946FDF7C7F85246F8
:103268005B46FDF7C5F8C145C9E90201C9E9006730
:10327800E3D1029C012CDDE905A500F0D080D5E959
:103288000045009E08F1080B474676E9028920466A
:10329800294642464B46CDE90045FDF7A9F80446C4
:1032A8000D4622462B4640464946FDF79FF8DDE984
:1032B8000023FDF79DF8B345C6E90201C6E90045BC
:1032C800E3D10AF10804B8463C4407F11005002090
:1032D800002174E90223FDF78BF8A542F9D1039B7D
:1032E800D8E90067D8E90245002B47D10B9BC3E911
:1032F8000401C3E90067C3E90245049B03F0070022
:103308000DF5197DBDE8F08F704249EC108BCDE9C1
:10331800035A00F0A1F855EC104B4B4B0022204605
:103328002946FDF78FFAF8B1484B00222046294676
:10333800FCF72EFFFDF79AFA0746FDF7A5F9424B71
:103348000022FCF725FF02460B4620462946FDF7DA
:103358004DF8FDF78BFA009B0CAA5C1C42F8230081
:10336800183642F824707CE620462946FDF77EFA96
:10337800009B0CAA1C4642F8230072E632460B9EBC
:1033880007F10043C6E9002305F10043C6E90243FB
:1033980001F10043C6E90403049B03F007000DF59F
:1033A800197DBDE8F08F0B9BC3E900676CB14AAE8D
:1033B8000125F6E802230135FDF71AF8AC42F8DAE0
:1033C800039B13B101F1004319460B9BC3E90201AA
:1033D800049B03F007000DF5197DBDE8F08F01F19E
:1033E80000431946C4E6022D7FF42EAD02460B4673
:1033F80000201749FCF7FAFF8046894624E5A29B7E
:10340800022B06DC002B0DDC7FF4B5AE002000217A
:10341800AAE6A29B032B7FF4AEAE0DF590780020B0
:1034280000215CE7039BDDE9480133B10B9C0022D6
:103438004FF00043C4E90023C4E70B9C002200239B
:10344800C4E90023C1E700BF000070410000703EDE
:103458000000F03F0000000070B555EC104BC5F3BC
:103468000A5206462B4672BB25F00043234329D057
:103478003B4B204629460022FCF78AFE394B9E42E8
:1034880004460D4652DBC1F30A520B46363A4CF25B
:1034980050318E4223DC164440F2FE7296421EDC06
:1034A800002E34DC16F1350F38DB6FF31E53363639
:1034B80043EA065520462C4B29460022FCF768FEB5
:1034C80041EC100B70BD40F2FF718A42DFD12246F9
:1034D80020462946FCF78CFF41EC100B70BD002DEF
:1034E80017A1D1E9000107DB15A3D3E90023FCF7F5
:1034F8004FFE41EC100B70BD13A1D1E9000110A3E0
:10350800D3E90023FCF744FE41EC100BF3E76FF31B
:103518001E5343EA065545EC104B70BD002D0CA117
:10352800D1E9000102DA0CA1D1E9000108A3D3E92D
:103538000023FCF72DFE41EC100B70BDAFF30080AB
:103548009C7500883CE4377E9C7500883CE437FE17
:1035580059F3F8C21F6EA50159F3F8C21F6EA58171
:1035680000005043B03CFFFF0000903C000000000A
:1035780051EC100BC1F30A532DE9F041A3F2FF35CA
:10358800132D0C46064632DC002D20DB384B43FA5F
:1035980005F801EA080303430F462DD032A3D3E907
:1035A8000023FCF725FF00220023FDF755F940B161
:1035B800002C03DA4FF480132B411F4427EA080438
:1035C80000262346324643EC102BBDE8F08126A3A3
:1035D800D3E90023FCF70CFF00220023FDF73CF998
:1035E8000028EED0002C2ADB00263446E9E7332DEC
:1035F80006DDB5F5806F1BD041EC100BBDE8F081FE
:10360800A3F213434FF0FF37DF400742F4D016A36D
:10361800D3E90023FCF7ECFE00220023FDF71CF998
:103628000028CED0002C334610DB23EA0706C8E773
:1036380002460B46FCF7DCFE41EC100BDEE724F0FB
:10364800004426430DD14FF00044BAE7142D06D0AC
:10365800C5F134050122AA401344B342E5D201342E
:10366800E3E7044C0026ACE79C7500883CE4377E11
:10367800FFFF0F000000F0BF2DE9F047089D0E4640
:1036880004460F46002B4AD194468C45B2FA82F282
:1036980060D942B1C2F12003974020FA03F30CFA33
:1036A80002FC1F4394404FEA1C4E1FFA8CF6B7FBEE
:1036B800FEF1230C0EFB117743EA074301FB06F0EA
:1036C80098420AD91CEB030301F1FF3780F01581FA
:1036D800984240F21281023963441B1AA4B2B3FB28
:1036E800FEF00EFB103344EA034400FB06F6A64244
:1036F8000AD91CEB040400F1FF3380F00081A642D4
:1037080040F2FD806444023840EA0140A41B0021D5
:103718001DB1D4400023C5E90043BDE8F0878B42C2
:1037280005D90DB1C5E9000100210846F5E7B3FA4E
:1037380083F1002946D1B34202D3824200F2F580D8
:10374800841A66EB030201201746002DE5D0C5E96F
:103758000047E2E7002A40F09380A1EB0C034FEA10
:103768001C471FFA8CFE0121B3FBF7F607FB163046
:10377800230C43EA00430EFB06F0984208D91CEBE1
:10378800030306F1FF3802D2984200F2D080464681
:103798001B1AA4B2B3FBF7F007FB103344EA034447
:1037A8000EFB00FEA64508D91CEB040400F1FF330C
:1037B80002D2A64500F2B6801846A4EB0E0440EAF1
:1037C8000640A5E7C1F120078B4022FA07FC4CEA26
:1037D800030C06FA01FE20FA07F426FA07F344EA76
:1037E8000E0400FA01F84FEA1C404FEA1449B3FBF3
:1037F800F0FE1FFA8CF600FB1E3349EA03430EFB6A
:1038080006F9994502FA01F20BD91CEB03030EF1F4
:10381800FF3A80F08580994540F28280AEF1020E31
:103828006344A3EB0909A4B2B9FBF0F300FB1399B5
:1038380044EA094403FB06F6A64208D91CEB040433
:1038480003F1FF3068D2A64266D9023B644443EADA
:103858000E40A41BA0FB02E6B4427346B14652D305
:103868004FD05DB1B8EB030264EB090404FA07F723
:1038780022FA01F31F43CC40C5E9007400214CE74C
:10388800C2F1200120FA01F30CFA02FC26FA01F138
:10389800964033434FEA1C471FFA8CFEB1FBF7F002
:1038A80007FB1016190C41EA064100FB0EF68E4282
:1038B80004FA02F408D91CEB010100F1FF382DD2FB
:1038C8008E422BD902386144891B9BB2B1FBF7F6B3
:1038D80007FB161143EA014306FB0EF1994208D98A
:1038E8001CEB030306F1FF3814D2994212D9023EA9
:1038F80063445B1A46EA004136E73946EDE6184666
:1039080002E7F045ADD2BEEB020366EB0C060138C8
:10391800B146A6E74646ECE7034698E74046D3E7B4
:10392800D6467EE76444023847E708460DE7023E7C
:1039380063442DE7F8B500BFF8BC08BC9E46704745
:0C394800F8B500BFF8BC08BC9E467047F4
:1039580066617274312E7761760000006661727458
:10396800322E77617600000066617274332E7761BB
:103978007600000066617274342E7761760000006C
:1039880066617274352E7761760000006661727424
:10399800362E77617600000066617274372E776183
:1039A8007600000066617274382E77617600000038
:1039B80066617274392E77617600000066617274F0
:1039C80031302E77617600006661727431312E775E
:1039D800617600006661727431322E77617600007C
:1039E80000000000010203040000000000000000C5
:1039F8000102030406070809FB21F93FFB210940DE
:103A08007CD91240FB2119407A6A1F407CD9224098
:103A1800BBFD2540FB2129403A462C407A6A2F40BD
:103A28005C4731407CD932409C6B3440BBFD35400B
:103A3800DB8F3740FB2139401BB43A403A463C40C3
:103A48005AD83D407A6A3F404C7E40405C474140EE
:103A58006C1042407CD942408CA243409C6B44404D
:103A6800AC344540BBFD4540CBC64640DB8F4740A4
:103A7800EB584840FB21494083F9A200444E6E00B0
:103A8800FC291500D1572700DD34F50062DBC000A2
:103A98003C999500419043006351FE00BBDEAB00AA
:103AA800B761C5003A6E2400D24D42004906E000D5
:103AB80009EA2E001C92D100EB1DFE0029B11C0062
:103AC800E83EA700F535820044BB2E009CE984003F
:103AD800B4267000417E5F00D691390053833900C7
:103AE8009CF439008B5F840028F9BD00F81F3B0067
:103AF800DEFF97000F980500112FEF000A5A8B0080
:103B08006D1F6D00CF7E360009CB2700464FB700EA
:103B18009E663F002DEA5F00BA277500E5EBC700F7
:103B28003D7BF100F739070092528A00FB6BEA00EF
:103B38001FB15F00085D8D00300356007BFC460016
:103B4800F0AB6B0020BCCF0036F49A00E3A91D004F
:103B58005E619100081BE60085996500A0145F006E
:103B68008D40680080D8FF0027734D00060631009D
:103B7800CA561500C9A873007BE260006B8CC000B0
:103B880000000040FB21F93F000000002D44743E76
:103B9800000000809846F83C0000006051CC783B5B
:103BA80000000080831BF0390000004020257A388F
:103BB800000000802282E336000000001DF3693512
:103BC80002000000030000000400000006000000DE
:083BD800A8FAFF7F01000000C4
:043BE0001D090008B3
:043BE400F9080008D4
:0C3BE8000024F4000100000010000000A8
:04000005080022BD10
:00000001FF
