:020000040800F2
:10000000008001201D1D0008DD0A0008DF0A00082D
:10001000E10A0008E30A0008E50A00080000000001
:10002000000000000000000000000000E70A0008D7
:10003000E90A000800000000EB0A0008ED0A0008C9
:100040006D1D00086D1D00086D1D00086D1D000868
:100050006D1D00086D1D00086D1D00086D1D000858
:100060006D1D00086D1D00086D1D00086D1D000848
:100070006D1D00086D1D00086D1D00086D1D000838
:100080006D1D00086D1D00086D1D000800000000BA
:100090000000000000000000000000006D1D0008CE
:1000A0006D1D00086D1D00086D1D00086D1D000808
:1000B0006D1D00086D1D00086D1D00086D1D0008F8
:1000C0006D1D00086D1D00086D1D00086D1D0008E8
:1000D0006D1D00086D1D00086D1D0008000000006A
:1000E0006D1D00086D1D00086D1D0008000000005A
:1000F0000000000000000000000000006D1D00086E
:10010000000000006D1D00086D1D00086D1D000839
:1001100000000000000000000000000000000000DF
:100120006D1D00086D1D00086D1D00086D1D000887
:100130006D1D00080000000000000000000000002D
:100140000000000000000000000000006D1D00081D
:100150006D1D00086D1D00086D1D00086D1D000857
:100160006D1D00086D1D000800000000000000006B
:10017000000000000000000000000000000000007F
:10018000000000006D1D00080000000000000000DD
:040190006D1D0008D9
:1001A00001F0FF01102A2BDB10F0070F08D010F828
:1001B000013B013A8B422DD010F0070F42B3F6D12C
:1001C000F0B441EA012141EA014122F007047FF045
:1001D00000070023F0E80256083C85EA010586EA9C
:1001E000010685FA47F5A3FA87F586FA47F6A5FAD8
:1001F00087F68EB9EED1F0BC01F0FF0102F00702E4
:1002000032B110F8013B013A83EA010313B1F8D18E
:100210000020704701387047002D06BF354603386F
:10022000073815F0010F07D1013015F4807F02BFA8
:10023000013015F4C03F0130F0BC0138704700BFF9
:1002400053B94AB9002908BF00281CBF4FF0FF313D
:100250004FF0FF3000F00CB8ADF1080C6DE904CEA2
:1002600002F040FADDF804E0DDE9022304B0704753
:10027000704700BF10B5054C237833B9044B13B158
:100280000448AFF300800123237010BD64000020F8
:1002900000000000A029000808B5034B1BB103496A
:1002A0000348AFF3008008BD000000006800002094
:1002B000A02900082DE9F041A2B006460D4690465F
:1002C0001F46002000F0FEF9002410E055F824300D
:1002D00000933E23204A7F2102A801F049FD1F4AD6
:1002E000012306CA02A800F04BFB0134E4B24445E6
:1002F00011D204EB840149000131C9B2012000F0A0
:1003000057FBBC42E2D0154A012306CA55F8240027
:1003100000F036FBE9E7002513E0012221462846DC
:1003200000F0AEFA0134E4B2322C08D8631EDBB21E
:10033000302BF2D8002DF0D07E2DF3D9EDE701352A
:10034000EDB215F0800F01D10024EDE7304600F04A
:10035000C9F922B0BDE8F081B829000800000020EA
:10036000F8B506460F4600250AE000222146284639
:1003700000F086FA0134E4B23F2CF6D90135EDB233
:1003800015F0800F01D13324F6E73521002000F06D
:100390000FFB054A012306CA384600F0F1FA304641
:1003A00000F0A0F9F8BD00BF000000200023C0F855
:1003B000E8334FF0FF33C0F8F033C0F8EC33704748
:1003C00010B50446D0F8E803312800DD10BD00EB7D
:1003D000800004EB800001F033FDD4F8E8330133F2
:1003E000C4F8E833012BF1D10023C4F8EC33EDE776
:1003F000D0F8EC33002B03DD013BC0F8EC33704741
:10040000D0F8E833013BC0F8EC337047D0F8EC3358
:10041000C0F8F0337047000030B58BB0002405946D
:1004200006940794089409940194224B1A6B42F0A5
:1004300004021A631A6B02F004020192019A0294F8
:100440001A6B42F080021A631A6B02F08002029269
:10045000029A03941A6B42F001021A631A6B02F0BB
:1004600001020392039A04941A6B42F002021A6387
:100470001B6B03F002030493049B0F4D22462021C3
:10048000284600F019FD4FF4005305934FF4041370
:100490000693079405A9094800F02AFC2023059338
:1004A000012306930794089405A9284600F020FC30
:1004B0000BB030BD0038024000000240000802408E
:1004C00072B6FEE708B50A480A4B03604FF4E13301
:1004D000436000238360C36003610C224261836137
:1004E000C36101F0EBFB00B908BDFFF7E9FF00BFF6
:1004F000800000200044004008B50A480A4B036011
:100500000A4B436000238360C3604FF48042026162
:1005100043618361C361036200F078FE00B908BDE6
:10052000FFF7CEFFC800002000540040A086010065
:1005300000B595B03022002108A801F04DFC002341
:100540000393049305930693079301931F4A116C39
:1005500041F080511164126C02F080520192019AB4
:1005600002931B490A6822F4404242F400420A60A6
:100570000A6802F440420292029A02210891012282
:100580000B9210220C920E910F9310924FF4A873BD
:100590001193042312930723139308A800F0C6FFB6
:1005A00080B90F23039302210491002305934FF494
:1005B00080520692079303A801F022FA20B915B0E1
:1005C0005DF804FBFFF77CFFFFF77AFF003802407D
:1005D0000070004030B5ADF2C44D00F0DFFAFFF717
:1005E000A7FFFFF719FFFFF76DFFFFF785FF28480B
:1005F00000F0A2F808B1FFF763FF4FF47A7000F043
:10060000F9FA002000F05EF8214800F06BF84FF492
:100610007A7000F0EFFA33A8FFF7C8FE1D4933A83F
:10062000FFF7CEFE1C4933A8FFF7CAFE1B4933A8CB
:10063000FFF7C6FE22E003EB830233A901EB82023F
:1006400001A941F823200133DDF8B4249A42F2DCF9
:10065000DDF8BC1401EB810133AB03EB81040C4DDD
:100660009DF8B834D2B201A92846FFF723FE2146EF
:100670002846FFF775FE33A8FFF7BAFE4FF49670D1
:1006800000F0B8FA33A8FFF7C1FE0023DCE700BF93
:10069000C8000020C0290008CC290008D82900087B
:1006A00000B587B08DF817100A2302930123019338
:1006B0000DF1170200920022782100F085FE07B0AC
:1006C0005DF804FB002303E0FF21054AD154013308
:1006D000B3F5806F03D20028F6D10146F5E77047E5
:1006E0002401002030B585B0054600241DE0A4F1AA
:1006F0005001C9B22846FFF7D3FF00212846FFF773
:10070000CFFF10212846FFF7CBFF642302938023FD
:100710000193084B03EBC41300930123402278217B
:10072000284600F051FE0134E4B2072CDFD905B0B1
:1007300030BD00BF2401002038B50446642000F01D
:1007400059FAAE212046FFF7ABFF0546202120468F
:10075000FFF7A6FF054410212046FFF7A1FF05443F
:10076000B0212046FFF79CFF0544C8212046FFF733
:1007700097FF054400212046FFF792FF0544102112
:100780002046FFF78DFF054440212046FFF788FFF4
:10079000054481212046FFF783FF0544FF212046C1
:1007A000FFF77EFF0544A1212046FFF779FF0544AE
:1007B000A6212046FFF774FF0544A8212046FFF735
:1007C0006FFF05443F212046FFF76AFF0544A4213F
:1007D0002046FFF765FF0544D3212046FFF760FF61
:1007E000054400212046FFF75BFF0544D521204644
:1007F000FFF756FF0544F0212046FFF751FF05445F
:10080000D9212046FFF74CFF054422212046FFF75F
:1008100047FF0544DA212046FFF742FF0544122135
:100820002046FFF73DFF0544DB212046FFF738FF58
:10083000054420212046FFF733FF05448D21204643
:10084000FFF72EFF054414212046FFF729FF05443A
:10085000AF212046FFF724FFE84201D0012038BD38
:100860000020FFF72FFF2046FFF73CFF034B00203F
:100870001880588001225A71F1E700BF1C01002046
:1008800010F0800F25D13F2923D810B4114B1B79CC
:1008900013B1B2FA82F25209012A0FD0CB0800EB51
:1008A000C3100D4C225C01F0070101238B40DB4398
:1008B0005BB2134023545DF8044B7047CB0800EB48
:1008C000C310054C235C01F007018A4013432354F5
:1008D000F1E770471C010020240100202DE9F047BA
:1008E00082B0814602A800E906009846234B1B8887
:1008F0009DF8006033447F2B3BDC204B5B889DF8E8
:1009000001A053443F2B36DC00251FE01B4B188809
:10091000598829442044B8FA88F25209C9B2C0B2B1
:10092000FFF7AEFF0134A6420FD907FA04F313F420
:10093000004FEBD0114B1888598829442044424677
:10094000C9B2C0B2FFF79CFFECE70135AA4508D950
:10095000A9F1200303FB0A53019A32F81370002413
:10096000E1E7064A138833441380484602B0BDE8E5
:10097000F0870020FAE70020F8E700BF1C01002004
:1009800030B583B0044602A800E906001D4600E029
:100990000134207848B12B4602AA12E90600FFF77D
:1009A0009DFF024620788242F2D003B030BD0000A5
:1009B000014B1880598070471C01002000B583B09E
:1009C000002100910C4B5A6C42F480425A645A6CDC
:1009D00002F480420092009A01911A6C42F0805217
:1009E0001A641B6C03F080530193019B072000F0F5
:1009F00049F903B05DF804FB0038024030B589B016
:100A00000023039304930593069307930268154B01
:100A10009A4201D009B030BD00250195124C236BDC
:100A200043F002032363236B03F002030193019B52
:100A3000C0230393122304930123059303230693F6
:100A40000423079303A9094800F052F90295236C87
:100A500043F400132364236C03F400130293029BFA
:100A6000D8E700BF005400400038024000040240B4
:100A700000B589B00023039304930593069307936D
:100A80000268144B9A4202D009B05DF804FB0021C1
:100A9000019103F5FA331A6C42F400321A641A6CAD
:100AA00002F400320192019A02911A6B42F00102A3
:100AB0001A631B6B03F001030293029B0C23039345
:100AC000022304930723079303A9034800F010F9B6
:100AD000DAE700BF0044004000000240FEE7FEE706
:100AE000FEE7FEE7FEE770477047704708B500F085
:100AF0006FF808BD10B503460C4A0D490D48006853
:100B000040B10C4800680344521A934206D8094A7F
:100B1000136010BD0748084C0460F2E701F064F967
:100B20000C2303604FF0FF30F3E700BF008001208B
:100B3000000400002405002078060020034AD2F8B3
:100B4000883043F47003C2F88830704700ED00E04D
:100B500010B504460E4B1A784FF47A73B3FBF2F3D8
:100B60000C4A1068B0FBF3F000F0AEF868B90F2C37
:100B700001D901200AE0002221464FF0FF3000F0A9
:100B800093F8054B1C60002000E0012010BD00BF61
:100B90000C000020080000201000002008B50B4BBE
:100BA0001A6842F400721A601A6842F480621A608D
:100BB0001A6842F480721A60032000F063F8002083
:100BC000FFF7C6FFFFF7FAFE002008BD003C024019
:100BD000034A1168034B1B780B441360704700BF36
:100BE000280500200C000020014B1868704700BF4A
:100BF0002805002038B50446FFF7F6FF0546B4F196
:100C0000FF3F02D0044B1B781C44FFF7EDFF401B55
:100C1000A042FAD338BD00BF0C000020002808DB3A
:100C20000901C9B200F1604000F5614080F800138D
:100C3000704700F00F000901C9B2014B1954704709
:100C400014ED00E000B500F00700C0F1070CBCF1A6
:100C5000040F28BF4FF0040C031D062B0FD9C31E31
:100C60004FF0FF3E0EFA0CF021EA000199400EFA17
:100C700003FE22EA0E0241EA02005DF804FB0023B3
:100C8000EEE70000074AD36823F4E0631B041B0C63
:100C9000000200F4E060034343F0BF6343F4003319
:100CA000D360704700ED00E010B50446054BD868EE
:100CB000C0F30220FFF7C6FF01462046FFF7AEFF54
:100CC00010BD00BF00ED00E00138B0F1807F0BD215
:100CD0004FF0E0235861054AF02182F823100020EC
:100CE000986107221A6170470120704700ED00E00B
:100CF00000230F2B00F2D78070B582B065E08568C5
:100D00004FEA430E032404FA0EF425EA0405CC68E6
:100D100004FA0EF42C438460446824EA02044A680E
:100D2000C2F300129A40224342605CE0DC080834BF
:100D300050F8242003F00705AD004FF00F0E0EFA17
:100D400005FE22EA0E0E0A69AA4042EA0E0240F8A7
:100D500024205CE0042200E0002202FA0EF22A4382
:100D60000234514D45F82420504A94686FEA0C0231
:100D700024EA0C054E6816F4801F01D04CEA0405E5
:100D80004A4CA560E46802EA04054E6816F4001FA8
:100D900001D04CEA0405454CE560646802EA0405AC
:100DA0004E6816F4003F01D04CEA04053F4C6560E4
:100DB000246822404D6815F4803F01D04CEA0402BB
:100DC0003A4C226001330F2B6BD801229A400C68F9
:100DD00004EA020C32EA0404F4D14C6804F003047F
:100DE000013C012C8BD94A6802F00302032A09D086
:100DF000C4685D000322AA4024EA02048A68AA406B
:100E00002243C2604A6802F00302022A8ED00468BC
:100E10004FEA430E032202FA0EF224EA02044A6861
:100E200002F0030202FA0EF2224302604A6812F450
:100E3000403FC7D0002201921D4A546C44F48044C4
:100E40005464526C02F480420192019A9C08A51CE1
:100E5000154A52F8255003F0030E4FEA8E0E0F226A
:100E600002FA0EF225EA0205124A90423FF474AFEC
:100E700002F5806290420ED002F5806290420CD062
:100E800002F5806290420AD002F5806290423FF4FF
:100E900061AF072261E701225FE702225DE70322DB
:100EA0005BE702B070BD704700380140003C014074
:100EB00000380240000002400AB181617047090415
:100EC0008161704703685A6912F4806F01D1002074
:100ED00070476FF480625A6100230363202280F818
:100EE0003D2080F83E30026C42F00402026480F83B
:100EF0003C30012070472DE9F04106460C4617466C
:100F000098463BE0FFF770FE069BC01A404502D8AA
:100F1000B8F1000F32D1012D18D033689B6924EA53
:100F200003039BB2B3FA83F35B099F4226D10023EC
:100F30003363202286F83D2086F83E30326C42F042
:100F40002002326486F83C30012027E033685B6978
:100F500024EA03039BB2B3FA83F35B09E5E7336842
:100F60005B6924EA030C1FFA8CFCBCFA8CFC4FEA88
:100F70005C1C674511D1B8F1FF3FC3D1C4F30745ED
:100F8000012DECD033689B6924EA030C1FFA8CFC1A
:100F9000BCFA8CFC4FEA5C1CEBE70020BDE8F0815A
:100FA0002DE9F84305460E469046994653E01A68E7
:100FB00042F400721A602B686FF480625A61002359
:100FC0002B63202285F83D2085F83E302A6C42F0C4
:100FD00004022A6485F83C3001204AE0FFF704FE51
:100FE000A0EB0900404502D8B8F1000F33D1012F22
:100FF00017D02B689B6926EA03039BB2003B18BFFE
:10100000012343B300232B63202285F83D2085F87C
:101010003E302A6C42F020022A6485F83C300120E0
:1010200027E02B685B6926EA03039BB2003B18BFED
:101030000123E6E72B689C6926EA0404A4B2003C7D
:1010400018BF0124A4B12B685A6912F4806FAED185
:10105000B8F1FF3FC2D1C6F30747012FEAD12B6891
:101060005C6926EA0404A4B2003C18BF0124E9E745
:101070000020BDE8F88370B504460D461646236887
:101080005B6913F0800F21D12046FFF71BFFF8B9F1
:10109000B5F1FF3FF3D0FFF7A7FD801BA84201D8B1
:1010A000002DECD123685B6913F0800FE7D100239A
:1010B0002363202284F83D2084F83E30226C42F0E5
:1010C0002002226484F83C30012000E0002070BD42
:1010D0000120FCE72DE9F04385B004460D4691461A
:1010E0001F46DDF830800D9E0368196841F4807159
:1010F00019600096434600224FF00111FFF7FBFEF6
:1011000060B9236805F0FE051D6133464246264955
:101110002046FFF745FF68B1012008E023681B68FF
:1011200013F4807F02D04FF400732364032005B0D2
:10113000BDE8F0830023039323685A6903929B69F7
:101140000393039B324641462046FFF794FF30B994
:10115000012F0FD123685FFA89F61E61E7E7236C40
:10116000042B01D00120E2E72268136843F40073E6
:101170001360F7E723684FEA19221A6132464146A5
:101180002046FFF778FF20B923685FFA89F61E61D1
:10119000CDE7236C042B01D00120C8E72268136837
:1011A00043F400731360F7E70200010070B50446D2
:1011B0000D46164623685B6913F0040F21D12046C3
:1011C000FFF780FEF8B9B5F1FF3FF3D0FFF70CFD54
:1011D000801BA84201D8002DECD123685B6913F075
:1011E000040FE7D100232363202284F83D2084F8F4
:1011F0003E30226C42F02002226484F83C30012010
:1012000000E0002070BD0120FCE70000002800F095
:10121000CC8070B5044690F83D30002B77D0242365
:1012200084F83D302268136823F0010313602268BC
:10123000136843F4004313602268136823F40043E7
:10124000136000F093FC62685A4B9A4264D85A4B80
:1012500098428CBF00230123002B40F0A8805749FF
:10126000A1FB00318B0C25686A6822F03F0242EA3C
:1012700091426A6021680A6A22F03F0266684D4D19
:10128000AE424FD8013313430B622168CA6922F47E
:101290004F4222F0FF026568464B9D424CD8431EE8
:1012A0006D00B3FBF5F3013340F6FC70034278D0D8
:1012B000C3F30B031A43CA6121680B6823F0C00310
:1012C000E269206A024313430B6021688B6823F4B0
:1012D000034323F0FF032269E068024313438B605A
:1012E0002168CB6823F0FF036269A06902431343BE
:1012F000CB602268136843F0010313600020206470
:10130000202384F83D30206384F83E0070BD80F8CF
:101310003C30FFF773FB82E7294B98428CBF0023D8
:10132000012399E74FF4967505FB03F3254DA5FBC3
:1013300003539B090133A6E7A668BEB9431E05EB1C
:10134000450CB3FBFCF30133C3F30B03B3FA83F394
:101350005B0943BBC6B9431E05EB4505B3FBF5F37B
:101360000133C3F30B0343F40043A3E7431E05EB30
:10137000850C0CEB8C0CB3FBFCF30133C3F30B03B8
:10138000B3FA83F35B09E4E7431E05EB850505EB40
:101390008505B3FBF5F30133C3F30B0343F440437B
:1013A00088E7042386E7012384E7012070470120B2
:1013B000ACE700BFA08601007F841E0083DE1B43D4
:1013C000FF083D00D34D62102DE9F04383B0044681
:1013D0000F46904699460C9EFFF706FC054694F88A
:1013E0003D00C0B2202803D0022003B0BDE8F08346
:1013F0000095192301224B492046FFF77CFD002868
:1014000040F0898094F83C30012B00F08680012365
:1014100084F83C3023681A6812F0010F03D11A686F
:1014200042F001021A602268136823F4006313601B
:10143000212384F83D30402384F83E300023236488
:101440000A9B6362BDF82C306385638D2385364B20
:10145000E362019500964B46424639462046FFF727
:1014600039FE00285BD1238D002B35D02A4631462A
:101470002046FFF700FE20BB626A236812781A61DB
:10148000626A531C6362218D013989B22185638DA3
:101490009BB2013B9BB263852368586910F0040F2F
:1014A000E1D00029DFD052781A61636A01336362A8
:1014B000238D013B2385638D9BB2013B9BB26385EA
:1014C000D1E7236C042B01D001208EE7226813683A
:1014D00043F400731360F7E72A4631462046FFF7CE
:1014E00065FE50B1236C042B01D001207DE72268FA
:1014F000136843F400731360F7E72268136843F43A
:1015000000731360202384F83D30002384F83E30BC
:1015100084F83C3069E7022067E7022065E7012094
:1015200063E700BF020010000000FFFF002800F08A
:10153000E08170B582B00446036813F0010F3BD020
:101540009F4B9B6803F00C03042B2CD09C4B9B6897
:1015500003F00C03082B21D06368B3F5803F4FD014
:10156000B3F5A02F52D0964B1A6822F480321A603D
:101570001A6822F480221A606368002B50D0FFF7AB
:1015800033FB05468E4B1B6813F4003F14D1FFF765
:101590002BFB401B6428F5D90320B1E1884B5B6825
:1015A00013F4800FD8D0864B1B6813F4003F03D090
:1015B0006368002B00F09F81236813F0020F54D062
:1015C0007F4B9B6813F00C0F3ED07D4B9B6803F064
:1015D0000C03082B33D0E368002B68D0794B012231
:1015E0001A60FFF701FB0546754B1B6813F0020FED
:1015F00054D1FFF7F9FA401B0228F5D903207FE107
:101600006F4A136843F480331360B5E76C4B1A6874
:1016100042F480221A601A6842F480321A60ABE702
:10162000FFF7E2FA0546664B1B6813F4003FC3D090
:10163000FFF7DAFA401B6428F5D9032060E1604B1C
:101640005B6813F4800FC6D15D4B1B6813F0020F6B
:1016500003D0E368012B40F05081594A136823F00E
:10166000F803216943EAC1031360236813F0080FEC
:1016700042D063696BB3534B0122C3F8802EFFF74E
:10168000B3FA05464E4B5B6F13F0020F34D1FFF7F0
:10169000ABFA401B0228F5D9032031E1484A136810
:1016A00023F0F803216943EAC1031360DDE7454BEA
:1016B00000221A60FFF798FA0546414B1B6813F0A9
:1016C000020FD2D0FFF790FA401B0228F5D9032071
:1016D00016E13C4B0022C3F8802EFFF785FA054641
:1016E000374B5B6F13F0020F06D0FFF77DFA401BFC
:1016F0000228F5D9032003E1236813F0040F77D003
:101700002F4B1B6C13F0805F33D1002301932C4BC4
:101710001A6C42F080521A641B6C03F080530193E0
:10172000019B0125284B1B6813F4807F23D0A368FD
:10173000012B34D0052B38D0214B1A6F22F0010237
:101740001A671A6F22F004021A67A368002B3DD0B3
:10175000FFF74AFA06461A4B1B6F13F0020F46D1E9
:10176000FFF742FA801B41F288339842F3D90320F5
:10177000C6E00025D6E7144A136843F4807313606B
:10178000FFF732FA0646104B1B6813F4807FCED168
:10179000FFF72AFA801B0228F5D90320B0E0084A97
:1017A000136F43F001031367CFE7054B1A6F42F045
:1017B00004021A671A6F42F001021A67C5E700BFF8
:1017C000003802400000474200700040FFF70CFA6A
:1017D0000646524B1B6F13F0020F08D0FFF704FAB6
:1017E000801B41F288339842F3D9032088E0EDB999
:1017F000A369002B00F08380484A926802F00C0233
:10180000082A51D0022B17D0454B00221A66FFF749
:10181000EBF90446414B1B6813F0007F42D0FFF701
:10182000E3F9001B0228F5D9032069E03B4A136C59
:1018300023F080531364DBE7394B00221A66FFF76D
:10184000D3F90546354B1B6813F0007F06D0FFF730
:10185000CBF9401B0228F5D9032051E0E369226A45
:101860001343626A43EA8213A26A5208013A43EAC6
:101870000243E26A43EA0263284A5360284B01228A
:101880001A66FFF7B1F90446244B1B6813F0007F7A
:1018900006D1FFF7A9F9001B0228F5D903202FE094
:1018A00000202DE000202BE0012B2BD01B4B5B6890
:1018B00003F48001E269914226D103F03F02216ADC
:1018C0008A4223D1616A47F6C0721A40B2EB811F87
:1018D0001ED103F44031A26A5208013AB1EB024F23
:1018E00018D103F07063E26AB3EB026F14D10020E9
:1018F00006E001207047012002E0012000E0002006
:1019000002B070BD0120FBE70120F9E70120F7E7F5
:101910000120F5E70120F3E70120F1E7003802405C
:101920000000474208B5334B9B6803F00C03042BBF
:101930005BD0082B5BD12F4B5A6802F03F025B68EB
:1019400013F4800F2CD02B4B5868C0F388104FEA4B
:10195000401CBCEB000C6EEB0E0E4FEA8E1343EAFC
:101960009C634FEA8C11B1EB0C0163EB0E03DB00BF
:1019700043EA5173C90011EB000C43F10003590213
:1019800000234FEA4C2041EADC51FEF759FC194B89
:101990005B68C3F3014301335B00B0FBF3F008BDA8
:1019A000144B5868C0F388104FEA401CBCEB000C85
:1019B0006EEB0E0E4FEA8E1343EA9C634FEA8C11D6
:1019C000B1EB0C0163EB0E03DB0043EA5173C9007A
:1019D00011EB000C43F10003990200234FEA8C2025
:1019E00041EA9C51FEF72CFCD1E70348D7E70348B6
:1019F000D5E700BF0038024000127A000024F4004E
:101A0000002800F09B8070B50D4604464F4B1B68C4
:101A100003F007038B4208D2CBB24C4A1370136811
:101A200003F007038B4240F08B80236813F0020F12
:101A300017D013F0040F04D0454A936843F4E053E1
:101A40009360236813F0080F04D0414A936843F46D
:101A5000604393603E4A936823F0F003A1680B4310
:101A60009360236813F0010F32D06368012B21D0FB
:101A70009A1E012A25D9364A126812F0020F61D047
:101A800033498A6822F0030213438B60FFF7ACF8F6
:101A900006462F4B9B6803F00C036268B3EB820F82
:101AA00016D0FFF7A1F8801B41F288339842F0D995
:101AB000032042E0264A126812F4003FE0D10120E0
:101AC0003BE0234A126812F0007FD9D1012034E0B4
:101AD0001E4B1B6803F00703AB4207D9EAB21B4B4E
:101AE0001A701B6803F00703AB422DD1236813F073
:101AF000040F06D0164A936823F4E053E1680B43C1
:101B00009360236813F0080F07D0114A936823F4F9
:101B10006043216943EAC1039360FFF703FF0C4B65
:101B20009B68C3F303130B4AD35CD8400A4B18607D
:101B30000A4B1868FFF70CF8002070BD01207047B1
:101B40000120FAE70120F8E70120F6E7003C024017
:101B50000038024058310008080000201000002022
:101B6000014B1868704700BF0800002008B5FFF758
:101B7000F7FF044B9B68C3F38223034AD35CD8402E
:101B800008BD00BF003802405031000808B5FFF71B
:101B9000E7FF044B9B68C3F34233034AD35CD8404E
:101BA00008BD00BF003802405031000810B504469F
:101BB0000268136923F44053C1680B4313618368BF
:101BC00002691A4343691A43C3691A430168CB681F
:101BD00023F4164323F00C031343CB6002685369CC
:101BE00023F4407381690B4353610368314A934284
:101BF00006D002F58062934202D0FFF7B7FF01E002
:101C0000FFF7C4FFE369B3F5004F29D000210318A3
:101C100049411B1841F10001C90041EA5371DB0041
:101C2000181863684FEA83024FEA937341F1000189
:101C3000FEF706FB204AA2FB00314909642303FB9F
:101C400011031B013233A2FB03235B0903F0F002F3
:101C500002EB011203F00F03216813448B6010BDE7
:101C60000023021843EB0301121841F10001C900DF
:101C700041EA5271D200101841F1000162689218D5
:101C80005B41FEF7DDFA0C4AA2FB003149096423EF
:101C900003FB1103DB003233A2FB03235B095A0071
:101CA00002F4F87202EB011203F0070321681344F7
:101CB0008B60D4E7001001401F85EB5160B310B575
:101CC000044690F8413013B3242384F8413022684D
:101CD000D36823F40053D3602046FFF767FF2268E0
:101CE000136923F4904313612268536923F02A0394
:101CF00053612268D36843F40053D36000206064CA
:101D0000202384F8413084F84230606310BD80F8AD
:101D10004030FEF7ADFED7E701207047DFF834D042
:101D2000FEF70CFF0C480D490D4A002302E0D45881
:101D3000C4500433C4188C42F9D30A4A0A4C002315
:101D400001E013600432A242FBD300F053F8FEF727
:101D500041FC70470080012000000020640000204A
:101D6000AC3100086400002074060020FEE700008B
:101D70000CB430B5174B0C1E1D689DB008DA8B23D0
:101D80002B604FF0FF301DB0BDE8304002B070470F
:101D90004FF40273ADF8143014BF04F1FF3323463F
:101DA000049307934FF6FF7302900690ADF8163038
:101DB000209A21AB02A92846019300F09DF9431C0B
:101DC000BCBF8B232B60002CDDD0029B00221A703D
:101DD000D9E700BF1400002002440346934200D11B
:101DE000704703F8011BF9E7014B1868704700BF03
:101DF0001400002070B50D4D0D4C641BA41000267E
:101E0000A64209D10B4D0C4C00F0CAFD641BA41076
:101E10000026A64205D170BD55F8043B984701360F
:101E2000EEE755F8043B98470136F2E7A431000885
:101E3000A4310008A4310008A83100087047704799
:101E4000034611F8012B03F8012B002AF9D1704742
:101E500038B50546002941D051F8043C0C1F002B31
:101E6000B8BFE41800F0E0F81D4A136833B96360A6
:101E700014602846BDE8384000F0DCB8A34208D919
:101E8000206821188B4201BF19685B68091821601E
:101E9000EDE71A465B680BB1A342FAD911685018F6
:101EA000A0420BD120680144501883421160E0D158
:101EB00018685B68536008441060DAE702D90C23A5
:101EC0002B60D6E7206821188B4204BF19685B6835
:101ED000636004BF091821605460CAE738BD00BFC1
:101EE0007006002070B50F4E0C463168054611B9DA
:101EF00000F0A4FB30602146284600F09FFB431C05
:101F000003D14FF0FF34204670BDC41C24F00304FD
:101F1000A042F8D0211A284600F090FB0130F2D1FF
:101F2000EFE700BF6C0600202DE9F843CD1C25F03B
:101F3000030508350C2D38BF0C25002D064601DBA6
:101F4000A94204D90C2333600020BDE8F883DFF8F0
:101F5000D48000F069F8D8F800301C4644BB29460C
:101F60003046FFF7BFFF431C044658D1D8F8004065
:101F70002746002F43D1002C4BD0236839463046EA
:101F800004EB030900F05AFB814542D121686D1A28
:101F900029463046FFF7A6FF01303AD023682B448C
:101FA0002360D8F800305A6862BBC8F800700FE0B0
:101FB0002268521B20D40B2A17D96119A34225602D
:101FC00018BF5960636808BFC8F8001062514B60C1
:101FD000304600F02FF804F10B00231D20F007001D
:101FE000C21A1CBF1B1AA350AFE76268A3420CBF02
:101FF000C8F800205A60EBE723466468AEE73C4629
:102000007F68B6E71A465B68A342FBD100235360A2
:10201000DEE70C233360304600F00CF894E70560EF
:10202000D6E700BF700600200148FFF707BF00BFDA
:10203000680600200148FFF702BF00BF68060020C5
:102040002DE9F0478E681F46BE420B6882460C465B
:1020500090462DD8B1F90C2012F4906F26D0656906
:10206000096905EB4505A3EB010905EBD5757B1C5B
:102070004B446D109D4238BF1D46530527D5294658
:10208000FFF752FF064660B321694A4600F0E6FAC0
:10209000A38923F4906343F08003A38126616561E3
:1020A0004E44A5EB09052660A5603E46BE4200D918
:1020B0003E4620683246414600F0A6FAA3689B1BC4
:1020C000A3602368334423600020BDE8F0872A46DC
:1020D00000F0D2FA06460028E0D121695046FFF709
:1020E000B7FE0C23CAF80030A38943F04003A38154
:1020F0004FF0FF30E9E700002DE9F04F98468B895B
:102100001B069DB007460D46144610D50B6973B9E2
:102110004021FFF709FF2860286130B90C233B609C
:102120004FF0FF301DB0BDE8F08F40236B610023FE
:10213000099320238DF82930CDF80C803023DFF867
:102140009C818DF82A304FF0010923469A4613F8F6
:10215000012B0AB1252AF9D1BAEB040B0BD05B464F
:10216000224629463846FFF76BFF013000F0A78072
:10217000099A5A4409929AF80030002B00F09F8087
:1021800000234FF0FF32CDE905230AF1010A049341
:1021900007938DF853301A935446052214F8011B07
:1021A0004E48FDF7FDFF049AD8B9D00644BF20235E
:1021B0008DF85330110744BF2B238DF853309AF814
:1021C00000302A2B15D0079A544600204FF00A0CF5
:1021D000214611F8013B303B092B4BD9B0B1079296
:1021E00014E0A0EB080309FA03F313430493A24697
:1021F000D2E7039B191D1B680391002BBBBF5B42F9
:1022000042F0020207930793B8BF049223782E2B63
:102210000AD163782A2B32D1039B1A1D1B680392C3
:1022200043EAE37302340593DFF8C0A02178032268
:102230005046FDF7B5FF38B1049BA0EB0A004022E1
:10224000824013430134049314F8011B24488DF891
:1022500028100622FDF7A4FF002836D0214B1BBB17
:10226000039B073323F0070308330393099B33448D
:1022700009936AE70CFB02320C460120A8E7002311
:102280000134059319464FF00A0C204610F8012B33
:10229000303A092A03D9002BC6D00591C4E70CFBBC
:1022A000012104460123F0E703AB00932A460E4BBD
:1022B00004A93846AFF30080421C0646D6D1AB894C
:1022C0005B063FF52DAF09982CE703AB00932A4638
:1022D000054B04A9384600F079F8EDE768310008AD
:1022E0007231000800000000412000086E31000833
:1022F0002DE9F047164698468A680B69DDF820906C
:102300009342B8BF1346336091F8432007460C460A
:102310000AB1013333602368990642BF3368023340
:102320003360256815F0060506D104F1190AE36843
:1023300032689B1AAB4226DC94F843302268003B9B
:1023400018BF012392062BD404F1430241463846BC
:10235000C84701301ED02368226903F00603042B0E
:1023600002BFE5683368ED1AA3680CBF25EAE5757E
:1023700000259342C4BF9B1AED1800261A34B542BB
:102380001AD1002008E00123524641463846C8478A
:10239000013003D14FF0FF30BDE8F0870135C6E7CB
:1023A000E1185A1C302081F84300224494F845106B
:1023B00082F843100233C7E70123224641463846DC
:1023C000C8470130E6D00136D9E700002DE9FF47C4
:1023D0000F7E0C9E782F914680460C469A4601F15E
:1023E000430207D8622F0AD8002F00F0D180582F5F
:1023F00000F0B88004F1420684F842703AE0A7F198
:102400006303152BF6D801A151F823F065240008C9
:1024100079240008F5230008F5230008F5230008B7
:10242000F523000879240008F5230008F5230008A7
:10243000F5230008F523000877250008A3240008E9
:1024400031250008F5230008F52300089925000828
:10245000F5230008A3240008F5230008F52300084D
:102460003925000833681A1D1B68326004F14206E2
:1024700084F8423001239CE033682068191D3160E4
:10248000060601D51D6803E04506FBD5B3F90050EB
:10249000002D03DA2D236D4284F8433058480A2377
:1024A00011E021683368080653F8045B02D449063A
:1024B00048BFADB26F2F5248336014BF0A230823C0
:1024C000002184F843106668A660002E05DB2168B1
:1024D0002E4321F0040121604BD01646B5FBF3F1E9
:1024E00003FB1157C75D06F8017D2F46BB420D4621
:1024F000F4D9082B0BD12368DF0708D5236961685D
:102500009942DEBF302306F8013C06F1FF36921BEC
:102510002261CDF800A04B4603AA21464046FFF7B2
:10252000E7FE01304AD14FF0FF3004B0BDE8F0873C
:10253000236843F0200323603248782784F84570ED
:10254000236831681F0651F8045B02D45F0648BF58
:10255000ADB23160D90744BF43F0200323601DB101
:102560001023ADE72648E9E7236823F02003236022
:10257000F6E71646BDE7336825686169181D3060C7
:102580002E061B6801D5196002E06806FBD519808C
:10259000002323611646BCE733681A1D32601E68AB
:1025A000626800213046FDF7FBFD08B1801B6060CA
:1025B00063682361002384F84330AAE72369324625
:1025C00049464046D0470130ADD023689B0713D41D
:1025D000E068039B9842B8BF1846A6E7012332463D
:1025E00049464046D04701309DD00135E368039904
:1025F0005B1AAB42F2DCEBE7002504F11906F5E7C4
:10260000793100088A310008884210B501EB0204D4
:1026100002D98442234607D8431EA14208D011F8AC
:10262000012B03F8012FF8E7024401468A4200D14A
:1026300010BD13F8014D02F8014DF7E738B5064D0E
:102640000023044608462B60FEF754FA431C02D1CF
:102650002B6803B1236038BD640600200A44914210
:1026600000F1FF3300D1704710B511F8014B03F8AA
:10267000014F9142F9D110BD2DE9F04107461446B2
:102680000D4621B9BDE8F0411146FFF74DBC2AB90E
:10269000FFF7DEFB25462846BDE8F08100F01AF87A
:1026A0008442064602D8B4EB500FF4D8214638468F
:1026B000FFF73AFC804608B94546ECE7B4422246AB
:1026C000294628BF3246FFF7C9FF29463846FFF79B
:1026D000BFFBF1E751F8043C181F002BBCBF0B589F
:1026E000C01870472DE9F047089D0E4604460F4676
:1026F000002B4AD194468C45B2FA82F260D942B19D
:10270000C2F12003974020FA03F30CFA02FC1F43A6
:1027100094404FEA1C4E1FFA8CF6B7FBFEF1230CD7
:102720000EFB117743EA074301FB06F098420AD9F2
:102730001CEB030301F1FF3780F01581984240F252
:102740001281023963441B1AA4B2B3FBFEF00EFBE4
:10275000103344EA034400FB06F6A6420AD91CEBF8
:10276000040400F1FF3380F00081A64240F2FD80B6
:102770006444023840EA0140A41B00211DB1D4404A
:102780000023C5E90043BDE8F0878B4205D90DB1B0
:10279000C5E9000100210846F5E7B3FA83F10029F5
:1027A00046D1B34202D3824200F2F580841A66EB2E
:1027B000030201201746002DE5D0C5E90047E2E7F6
:1027C000002A40F09380A1EB0C034FEA1C471FFA4C
:1027D0008CFE0121B3FBF7F607FB1630230C43EA0E
:1027E00000430EFB06F0984208D91CEB030306F1E8
:1027F000FF3802D2984200F2D08046461B1AA4B29B
:10280000B3FBF7F007FB103344EA03440EFB00FE72
:10281000A64508D91CEB040400F1FF3302D2A645FB
:1028200000F2B6801846A4EB0E0440EA0640A5E785
:10283000C1F120078B4022FA07FC4CEA030C06FA90
:1028400001FE20FA07F426FA07F344EA0E0400FA20
:1028500001F84FEA1C404FEA1449B3FBF0FE1FFA9F
:102860008CF600FB1E3349EA03430EFB06F999453B
:1028700002FA01F20BD91CEB03030EF1FF3A80F0D0
:102880008580994540F28280AEF1020E6344A3EB4D
:102890000909A4B2B9FBF0F300FB139944EA094417
:1028A00003FB06F6A64208D91CEB040403F1FF3033
:1028B00068D2A64266D9023B644443EA0E40A41B98
:1028C000A0FB02E6B4427346B14652D34FD05DB18D
:1028D000B8EB030264EB090404FA07F722FA01F3E8
:1028E0001F43CC40C5E9007400214CE7C2F1200130
:1028F00020FA01F30CFA02FC26FA01F19640334368
:102900004FEA1C471FFA8CFEB1FBF7F007FB1016CD
:10291000190C41EA064100FB0EF68E4204FA02F45D
:1029200008D91CEB010100F1FF382DD28E422BD9C2
:1029300002386144891B9BB2B1FBF7F607FB161105
:1029400043EA014306FB0EF1994208D91CEB03034D
:1029500006F1FF3814D2994212D9023E63445B1A41
:1029600046EA004136E73946EDE6184602E7F0450B
:10297000ADD2BEEB020366EB0C060138B146A6E70A
:102980004646ECE7034698E74046D3E7D6467EE75F
:102990006444023847E708460DE7023E63442DE7EA
:1029A000F8B500BFF8BC08BC9E467047F8B500BF3C
:0829B000F8BC08BC9E4670470C
:1029B8002563202573000000666172742E776176A6
:1029C8000000000066617274322E776176000000A4
:1029D80066617274332E7761760000000000000093
:1029E80000000000000000000000000000000000DF
:1029F800001000100010001000100010000000105F
:102A08000000000000280028002800000000000046
:102A1800000000000000000000240024007C0024C6
:102A28000048007C004800480000000000380054BE
:102A38000050003800140054005400380010000002
:102A480000200054005800300028005400140008EA
:102A58000000000000100028002800100034004882
:102A680000480034000000000010001000100000B2
:102A78000000000000000000000000000008001036
:102A88000020002000200020002000200010000866
:102A980000200010000800080008000800080008CE
:102AA800001000200010003800100028000000006E
:102AB80000000000000000000000000000100010EE
:102AC800007C001000100000000000000000000062
:102AD80000000000000000000000001000100010BE
:102AE80000000000000000000000003800000000A6
:102AF80000000000000000000000000000000000CE
:102B0800000000100000000000080008001000107D
:102B180000100010002000200000000000380044D1
:102B28000044005400440044004400380000000001
:102B380000100030005000100010001000100010AD
:102B480000000000003800440044000400080010A1
:102B58000020007C00000000003800440004001839
:102B680000040004004400380000000000080018B9
:102B7800002800280048007C000800080000000029
:102B8800007C004000400078000400040044003845
:102B98000000000000380044004000780044004471
:102BA8000044003800000000007C00040008001009
:102BB8000010002000200020000000000038004421
:102BC800004400380044004400440038000000007D
:102BD8000038004400440044003C0004004400382D
:102BE80000000000000000000010000000000000CD
:102BF80000000010000000000000000000000010AD
:102C0800000000000000001000100010000000008C
:102C1800000C003000400030000C000000000000F4
:102C2800000000000000007C0000007C00000000A4
:102C380000000000000000000060001800040018F8
:102C48000060000000000000003800440004000894
:102C580000100010000000100000000000380044C0
:102C6800004C0054005C00400040003800000000A8
:102C780000100028002800280028007C0044004498
:102C8800000000000078004400440078004400443C
:102C98000044007800000000003800440040004074
:102CA8000040004000440038000000000070004868
:102CB8000044004400440044004800700000000044
:102CC800007C00400040007C004000400040007C48
:102CD80000000000007C00400040007800400040F8
:102CE8000040004000000000003800440040004060
:102CF800005C004400440038000000000044004428
:102D08000044007C004400440044004400000000EB
:102D180000380010001000100010001000100038DB
:102D28000000000000040004000400040004000483
:102D380000440038000000000044004800500060D3
:102D480000500048004800440000000000400040D7
:102D580000400040004000400040007C00000000AF
:102D68000044006C006C00540044004400440044DB
:102D78000000000000440064006400540054004C4B
:102D8800004C0044000000000038004400440044A7
:102D9800004400440044003800000000007800446B
:102DA800004400440078004000400040000000005B
:102DB80000380044004400440044004400540038F3
:102DC80000040000007800440044004400780048F3
:102DD8000048004400000000003800440040003073
:102DE800000800040044003800000000007C0010C7
:102DF800001000100010001000100010000000006B
:102E080000440044004400440044004400440038A6
:102E18000000000000440044004400280028002866
:102E2800001000100000000000440044005400544A
:102E38000054006C0028002800000000004400280E
:102E4800002800100010002800280044000000009E
:102E58000044004400280028001000100010001052
:102E680000000000007C0004000800100010002092
:102E78000040007C00000000001800100010001046
:102E88000010001000100010001000180020002092
:102E980000100010001000100008000800000000DA
:102EA800003000100010001000100010001000107A
:102EB8000010003000100028002800440000000026
:102EC80000000000000000000000000000000000FA
:102ED8000000000000000000000000FE00200010BC
:102EE80000000000000000000000000000000000DA
:102EF8000000000000380044003C0044004C00344E
:102F080000000000004000400058006400440044F5
:102F18000064005800000000000000000038004471
:102F28000040004000440038000000000004000495
:102F38000034004C00440044004C00340000000001
:102F48000000000000380044007C004000440038C5
:102F580000000000000C0010007C001000100010A1
:102F68000010001000000000000000000034004CB9
:102F780000440044004C0034000400780040004045
:102F8800005800640044004400440044000000006D
:102F98000010000000700010001000100010001059
:102FA8000000000000100000007000100010001069
:102FB80000100010001000E00040004000480050E1
:102FC800006000500048004400000000007000103D
:102FD8000010001000100010001000100000000089
:102FE80000000000007800540054005400540054BD
:102FF8000000000000000000005800640044004485
:1030080000440044000000000000000000380044B4
:1030180000440044004400380000000000000000A4
:103028000058006400440044006400580040004018
:10303800000000000034004C00440044004C003400
:103048000004000400000000005800640040004034
:10305800004000400000000000000000003800446C
:103068000030000800440038000000000020002064
:103078000078002000200020002000180000000038
:10308800000000000044004400440044004C0034A8
:103098000000000000000000004400440028002850
:1030A8000028001000000000000000000054005438
:1030B8000054006C002800280000000000000000F8
:1030C8000044002800100010002800440000000000
:1030D80000000000004400440028002800100010F0
:1030E8000010006000000000007C000800100020B4
:1030F8000040007C000000000018001000100010C4
:10310800002000200010001000100018001000100F
:103118000010001000100010001000100010001027
:103128000030001000100010000800080010001007
:10313800001000300000000000000074004C000087
:10314800000000000000000000000000010203046D
:10315800000000000000000001020304060708093F
:10316800232D302B2000686C4C0065666745464768
:1031780000303132333435363738394142434445EB
:10318800460030313233343536373839616263645A
:043198006566000068
:08319C0004D0FF7F01000000D8
:0431A4009902000884
:0431A80075020008A4
:1031AC00070A0000E42900080024F40001000000D4
:1031BC001000000018000020000000002C0500206A
:1031CC0094050020FC050020000000000000000019
:1031DC0000000000000000000000000000000000E3
:1031EC0000000000000000000000000000000000D3
:1031FC0000000000000000000000000000000000C3
:04320C0000000000BE
:0400000508001D1DB5
:00000001FF
